:20000000008020209D560000E7330000E733000000000000000000000000000000000000F9
:20002000000000000000000000000000E73300000000000000000000E7330000E733000072
:20004000E733000065490000E7330000E7330000E7330000E7330000E7330000E73300003C
:2000600000000000E7330000E73300000000000000000000E7330000E7330000A95200001D
:20008000E7330000E7330000E7330000451F0000E7330000E733000000000000000000007A
:2000A000E7330000E73300000000000000000000E733000000000000E7330000E7330000BE
:2000C000F0B599B0AE200024214602F0FDF92046214602F0F9F91020214602F0F5F9402663
:2000E0003046214602F0F0F981201690214602F0EBF9CF20214602F0E7F9A12015902146CF
:2001000002F0E2F9C820214602F0DEF9A6252846214602F0D9F9A820214602F0D5F93F2048
:200120000A90214602F0D0F9D3200D90214602F0CBF92046214602F0C7F9D52006902146E5
:2001400002F0C2F980273846214602F0BDF9D9200590214602F0B8F9F1200490214602F028
:20016000B3F9DA20214602F0AFF91220214602F0ABF9DB200B90214602F0A6F90C96304603
:20018000214602F0A1F920200790214602F09CF90220214602F098F98D200390214602F002
:2001A00093F91420214602F08FF9A4200990214602F08AF90E952846214602F085F9014A32
:2001C000089701E00000202017970120119040021890101814900320C001129011181391E6
:2001E0001046E03010901046C0300F901346A0331546803517466037114640311046203076
:200200001470147214741476079E94550472047404760C9814540C720C740C766020145458
:200220003C723C743C76089814542C722C742C76A02014541C721C741C76C02014540F98FF
:20024000047204740476E020145410980472047404761198000214542126F00014541120DB
:20026000000114542325E80014540920400114542523D80014541320000114542721C80077
:2002800014540520800114542920C00014541520000114542B20C00014540B204001145492
:2002A0002D20C00014541720000114542F20C00014541298145413980472047404760D2060
:2002C000400114543520C00014541B20000114543720C00014540720800114543920C000AC
:2002E00014541D20000114543B20C00014540F20400114543D20C00014541F200001145468
:200300000A98C0001454179F403F149A00D05BE707950A930C91024B8020089602E0C046D5
:20032000000020201390FF20179082301190191812911846E13010901846C1300F901D468D
:20034000A1351F468137194661311A464132184621305C705C725C745C76089E9C550472EE
:2003600004740476412014901C5414721474147661229C540C720C740C7616981C543C72BF
:200380003C743C76159FDC552C722C742C76C1255C550F980472047404761799E1269C55E8
:2003A0001098047204740476084602301C5408460A301C54084612301C5408461A301C543D
:2003C000084622301C5408462A301C54084632301C5408463A301C54084642301C5408462F
:2003E0004A301C54084652301C5408465A301C54084662301C5408466A301C5408467230F3
:200400001C5408467A301C5411981C5412980472047404760846A2301C540846AA301C54B1
:200420000846B2301C540846BA301C540846C2301C540846CA301C540846D2301C540846FE
:20044000DA301C540846E2301C540846EA301C540846F2301C540846FA301C5418981B18CF
:200460001398403800D05DE70892024880210195029601E000002020139101994900119148
:20048000421812920146E23110910146C2310F910546A235074682370346623302464232C7
:2004A00001462231847084728474847622268455029E0C720C740C7642214454147214747C
:2004C0001476622144541C721C741C76822144543C723C743C76A22144542C722C742C7641
:2004E000C22144540F990C720C740C76E221445410990C720C740C7616994900445485225E
:200500005100445489214900445403994900445491214900445495214900445499214900BD
:2005200044549D2149004454159949004454A52359004454A92149004454AD2149004454E2
:20054000B12149004454B52149004454B92149004454BD21490044541199445412990C724C
:200560000C740C76D12149004454069949004454059949004454DD214900445471004454BF
:20058000E52569004454E92149004454ED2149004454049949004454F52149004454F921E7
:2005A00049004454FD2149004454189940181399403900D060E7029503930492014E802064
:2005C000179D01E0000020201590284684301290311813913046E33011903046C3301090BD
:2005E0003046A3300F9037468337314663313246433230462330F470F472F474F476079BDD
:20060000F454047204740476432016903454147214741476632034540C720C740C768321D2
:2006200074543C723C743C76A322B4540F98047204740476C323F4541098047204740476C8
:20064000E327F455119804720474047628460430345428460C303454284614303454284632
:200660001C30345428462430345428462C30345428463430345428463C303454284644306C
:20068000345428464C30345428465430345428465C30345428466430345428466C30345448
:2006A00028467430345428467C3034541298345413980472047404762846A4303454284681
:2006C000AC3034542846B43034542846BC3034542846C43034542846CC3034542846D430AC
:2006E00034542846DC3034542846E43034542846EC3034542846F43034542846FC30345418
:20070000189836181598403800D05DE70597069307920F910148802102E0C0460000202022
:200720001591089989001291421813920146E43111910146C43110910546A4350746843740
:200740000346643302464432014624310471047304750477242684550C720C740C76442177
:200760004454147214741476642144541C721C741C76842144543C723C743C7609994454F5
:200780002C722C742C76C421445410990C720C740C76E421445411990C720C740C7614995F
:2007A000890044541699890044544523990044544722910044544921890044544B2189009D
:2007C00044544D21890044544F2189004454512189004454532189004454552189004454A2
:2007E0005721890044545921890044545B21890044545D21890044545F218900445412993D
:20080000445413990C720C740C766921890044546B21890044546D21890044546F218900F4
:2008200044547121890044547321890044547521890044547721890044547921890044548D
:200840007B21890044547D21890044547F2189004454189940181599403900D060E7099279
:20086000F8488021179A11930A9F169186321492811815910146E53113910146C531129174
:200880000646A536054685350346653302464532014625314471447344754477C4550C7278
:2008A0000C740C7611994454147214741476652144541C721C741C76049944542C722C741B
:2008C0002C7603994454347234743476179AC521445412990C720C740C7602994454139911
:2008E0000C720C740C7611460631445411460E31445411461631445411461E314454114659
:200900002631445411462E31445411463631445411463E31445411464631445411464E31AA
:20092000445411465631445411465E31445411466631445411466E31445411467631445481
:2009400011467E3144541499445415990C720C740C761146A63144541146AE31445411469B
:20096000B63144541146BE3144541146C63144541146CE3144541146D63144541146DE31EA
:2009800044541146E63144541146EE3144541146F63144541146FE314454189940181699BF
:2009A000403900D061E7A74880211691069949001491421815920146E63113910146C631A1
:2009C00012910646A6360746863705466635024646320146263184718473847584772623D5
:2009E000C4540C720C740C7646214454147214741476662144542C722C742C76862144548A
:200A00003C723C743C760E994454347234743476179AC621445412990C720C740C76E6212D
:200A2000445413990C720C740C760F99490044548723590044548B21490044548F21490048
:200A400044549321490044549721490044549B21490044549F214900445407994900445411
:200A6000A72569004454AB2149004454AF2149004454B32149004454B72149004454BB2101
:200A800049004454BF21490044541499445415990C720C740C760D9949004454D721490079
:200AA00044540B9949004454DF2149004454059949004454E72671004454EB2149004454B6
:200AC000EF2149004454F32149004454F72149004454FB2149004454510044541899401848
:200AE0001699403900D060E7564880210A9308950496169111468831149143181593103203
:200B00001292811813910146E73111910146C73110910746A73705468735034667330246B6
:200B2000473201462731C471C473C475C4770C9E84550C720C740C76099944541472147472
:200B40001476672144541C721C741C760A9BC4542C722C742C76089D44553C723C743C7650
:200B6000C721445410990C720C740C76049E179A845511990C720C740C761146083144544E
:200B80001299445413990C72114620314454114628314454114630314454114638314454B8
:200BA0001146403144541146483144541146503144541146583144541146603144541146AE
:200BC000683144541146703144541146783144541146803144541499445415990C720C742B
:200BE0000C761146A83144541146B03144541146B83144541146C03144541146C83144543B
:200C00001146D03144541146D83144541146E03144541146E83144541146F031445411467D
:200C2000F831445408494454189940181699403900D05EE701F012FEAF20002101F044FCA2
:200C400019B0F0BD00002020FF010000F0B593B0014C80200A9001E000002020119001208C
:200C60000D9040021290201810900320C0010E9021180F912046E0300C902046C0300B90BD
:200C80002546A03527468037264660362246403220462030002121702172217421762023AA
:200CA000E15401720174017640202154117211741176602021543172317431760A98215441
:200CC000397239743976A0202154297229742976C02021540B98017201740176E020215435
:200CE0000C980172017401760D98000221542126F00021541120000121542325E8002154DD
:200D00000920400121542523D80021541320000121542722D00021540520800121542920C4
:200D2000C00021541520000121542B20C00021540B20400121542D20C000215417200001B8
:200D400021542F20C00021540E9821540F980172017401760D20400121543520C00021540C
:200D60001B20000121543720C00021540720800121543920C00021541D20000121543B207D
:200D8000C00021540F20400121543D20C00021541F20000121543F20C0002154119840383D
:200DA000109C00D05AE7069508930992014C80200A9601E0000020201190FF273846823000
:200DC0000D9022180E922046E1300C902046C1300F902046A1300B902646813622466132A3
:200DE000234641332046213061706172617461760A9D6155017201740176412010902154DD
:200E00001972197419766123E1541172117411768122A154317231743176A126A1550B98FC
:200E2000017201740176C12561550F98017201740176E1200F9021540C9801720174017699
:200E400038460230215438460A30215438461230215438461A30215438462230215438460B
:200E60002A30215438463230215438463A30215438464230215438464A302154384652301F
:200E8000215438465A30215438466230215438466A30215438467230215438467A3021541C
:200EA0000D9821540E980172017401763846A23021543846AA3021543846B230215438462E
:200EC000BA3021543846C23021543846CA3021543846D23021543846DA3021543846E2305F
:200EE00021543846EA3021543846F23021543846FA302154129824181198403800D05BE725
:200F0000079311970495024D80200392059601E0000020200E90049840000C902A180D92BF
:200F20002846E2300B902846C2300A902A46A2322E4682362C4662342B464233284622307E
:200F4000A970A972A974A9762227E9550172017401764220295419721974197662202954B6
:200F600021722174217682202954317231743176059EA2202954117211741176C2202954D4
:200F80000A98017201740176E22029540B9801720174017603984000295485225000295403
:200FA0008920400029548D20400029549120400029549520400029549920400029549D204E
:200FC0004000295470002954A52358002954A92040002954AD2040002954B120400029542C
:200FE000B52040002954B92040002954BD20400029540C9829540D98017201740176D12019
:2010000040002954D52040002954D92040002954DD20400029540F9840002954E524600024
:201020002954E92040002954ED2040002954F12040002954F52040002954F920400029542D
:20104000FD204000295412982D180E98403800D060E700940193029201488022119B01E05E
:20106000000020200E9284330C93C2180D920246E3320B920246C3320A920546A33506467F
:201080008336044663340346433302462332C170C172C174C176069FC15511721174117640
:2010A00043220F92815419721974197663228154217221742176119B8324015531723174A4
:2010C0003176A3268155297229742976C32541550A9A117211741176E327C1550B9A1172FA
:2010E000117411761A46043281541A460C3281541A46143281541A461C3281541A46243252
:2011000081541A462C3281541A46343281541A463C3281541A46443281541A464C328154CB
:201120001A46543281541A465C3281541A46643281541A466C3281541A46743281541A4658
:201140007C3281540C9A81540D9A1172117411761A46A43281541A46AC3281541A46B432F7
:2011600081541A46BC3281541A46C43281541A46CC3281541A46D43281541A46DC3281549B
:201180001A46E43281541A46EC3281541A46F43281541A46FC328154129A80180E9A403A8D
:2011A00000D05FE70397049505960694014E802002E0C046000020200E90079880000C9041
:2011C00032180D923046E4300B903046C4300A903746A43734468434324664323346443375
:2011E000304624303171317331753177242571550172017401764420315419721974197693
:201200006420315411721174117684203154217221742176A4203154397239743976C4201A
:2012200031540A98017201740176E42031540B980172017401761098800031540F988000C9
:2012400031544523980031544722900031544920800031544B20800031544D2080003154B6
:201260004F208000315451208000315453208000315455208000315457208000315459209D
:20128000800031545B20800031545D20800031545F20800031540C9831540D98017201740D
:2012A00001766920800031546B20800031546D20800031546F2080003154712080003154DD
:2012C0007320800031547520800031547720800031547920800031547B20800031547D2065
:2012E000800031547F2080003154129836180E98403800D060E70792F64A80200B93119B55
:20130000089F109086330E93D0180F901046E5300D901046C5300C901646A536154685356A
:201320001446653413464533104625305171517351755177D1550172017401760B9811549D
:2013400019721974197665201154217221742176119B0298115429722974297601981154BD
:20136000317231743176C52011540C98017201740176009811540D980172017401761846D2
:201380000630115418460E30115418461630115418461E30115418462630115418462E30C2
:2013A000115418463630115418463E30115418464630115418464E301154184656301154AB
:2013C00018465E30115418466630115418466E30115418467630115418467E3011540E9882
:2013E00011540F980172017401761846A63011541846AE3011541846B63011541846BE3053
:2014000011541846C63011541846CE3011541846D63011541846DE3011541846E63011547A
:201420001846EE3011541846F63011541846FE301154129812181098403800D061E7A54DF3
:2014400080201090049840000E902A180F922846E6300D902846C6300C902E46A6362F4609
:2014600086372C4666342B46463328462630A971A973A975A9772622A954017201740176DD
:201480004620295419721974197666202954217221742176119A862029543972397439762B
:2014A000A6202954317231743176C62029540C98017201740176E62029540D980172017484
:2014C00001760698400029548723580029548B20400029548F204000295493204000295477
:2014E0009720400029549B20400029549F2040002954059840002954A72460002954AB20B7
:2015000040002954AF2040002954B32040002954B72040002954BB2040002954BF204000A7
:2015200029540E9829540F98017201740176D32040002954D72040002954DB2040002954E9
:20154000DF2040002954039840002954E72670002954EB2040002954EF2040002954F320D6
:2015600040002954F72040002954FB20400029545000295412982D181098403800D060E70F
:20158000544D80200893029401961090104688300E902B180F9310320C92A8180D90284666
:2015A000E7300B902846C7300A902F46A7372C4687342B4667332A46473228462730E971E7
:2015C000E973E975E977099EA95501720174017607982954117211741176672029541972B3
:2015E00019741976089BE954217221742176029C119A2955397239743976C72029540A985C
:20160000017201740176019EA9550B980172017401761046083029540C9829540D98017288
:20162000104620302954104628302954104630302954104638302954104640302954104655
:20164000483029541046503029541046583029541046603029541046683029541046703023
:2016600029541046783029541046803029540E9829540F980172017401761046A83029541B
:201680001046B03029541046B83029541046C03029541046C83029541046D0302954104625
:2016A000D83029541046E03029541046E83029541046F03029541046F8302954064829541E
:2016C00012982D181098403800D05EE701F0C6F813B0F0BD00002020FF010000F0B5FFB033
:2016E0008EB0049306920646929802900025E84305908C913468204603F0A3FF21188B9583
:2017000003918C4200D3B5E00020879087A908738890059889902F46049D2078002800D1A8
:20172000A9E0252805D0641C34600699A8477F1CF3E78B97601C306087AC2046314600F0B9
:20174000A1F88CAA2046314600F0B9F831680A781346683B0120C341092B2BD87B441B7976
:201760005B009F4404130A272727162727194B78879A682B19D1430204E04B78879A6C2B13
:2017800010D103021A438792891C12E0879AC30204E0879A430301E0879A030313438793AD
:2017A000491C06E0491C402301E0491C20231A4387920A784C1C346087A90A73732A1ED061
:2017C0006E2A28D187992E4A1140202947D040293BD04203914238D0420291423AD0C202B6
:2017E000914205D0020391422FD0000281422CD1F8178C9904C98C911760506033E087A821
:201800000078400619D4009587A88CAA8BAB069900F015F927E007AD87A98CAA284600F0D1
:2018200065F9024628460699029B9847411C059D00D0C5198B95039917E0009587A88CAA1F
:201840008BAB069900F097F80DE08C9802C88C900F6008E08C9802C88C900F7003E08C9856
:2018600002C88C900F8003998B9D681C00D048E7059F00E02F4638467FB00EB0F0BDC04695
:20188000603F000010B50A681378302B0FD0232B07D02B2B09D02D2B05D0202B0ED10423DB
:2018A00006E0082304E0012302E0022300E0102304681C430460521C0A60E5E710BDFEB5A2
:2018C00016460D460446086802782A2A10D13068011D316000686060002805D5404260603D
:2018E00020680121014321602868471C2F6017E00021303A092A08D84218531C2B60435C6F
:201900006F467B545278491CF3E76A460023535412784718002A03D0684603F0D3FB6060AB
:2019200038782E2826D1781C286079782A2908D13068011D31600068A0602868401C28604E
:20194000FEBD00203039092908D839188A1C2A604A786B461A548978401CF3E76A460021C7
:2019600011541078002804D0684603F0ABFBA060FEBDA160FEBDF0B587B01E460C9F13685A
:201980001C1D14601D68002D3BD0049106908468002C04D4284603F03DFE844203D328461C
:2019A00003F038FE044606984068A042039000DC204601463068019140180296306005942D
:2019C0000398A0420EDD06980078C0070AD1059801990E1A0024B44204DA20200499B847B4
:2019E000641CF8E70026049C069805998E420BDA2868010A19D12D1DC0B22146B847761C98
:201A0000F2E70020B84718E00599039A8A4214DD0078C00711D00198451A0024AC420CDACE
:201A200020200499B847641CF8E70020C0430299086003F023FE5821016007B0F0BDF0B54E
:201A400085B00C4606460A9D1068011D116000680490002844D00393B768002F04D4049875
:201A600003F0EFFD874203D3049803F0EAFD074602967268BA42114600DC3946039B1868E7
:201A80000091401818600192BA420FDD02980078C0070BD10098C01B039000260398864226
:201AA00004DA20202146A847761CF7E70026BE4205DA0498805D2146A847761CF7E7019865
:201AC000B84210DD02980078C0070CD00098C61B0027B74207DA20202146A8477F1CF8E7E0
:201AE00000202146A84705B0F0BDC046F0B589B005920E4604467F20800027184868039054
:201B000000250795FF210491FE3120222046019203F090FD3046089702977D70367B3146A2
:201B20006339152906903DD801228A40604B1A42069822D007A908AA059B00F0BDF8069857
:201B40000025067B012731466F390929059504D801228A4057490A423FD1582E3DD001680B
:201B600002230B40079A002A27D008994A1E08922D220A705F425F412FE0002912D1059BCB
:201B80001A68111D19601268D1B24D424D410499FC316118089102990A70026802218A43B7
:201BA0000260CEE7252E02D0582EC3D0CAE70020607025202070012078E0002B07D149078E
:201BC0000BD5089A511E08910199117005E0089A511E08912B21117000270399039765182A
:201BE000089B0178C907264608D10299491CC91A42689142264601DC691A4E1C591C04980D
:201C00004300002730463A4603F042FC08900599002903D0411C0891077000E00146A94282
:201C200006D8481E691A491C202203F003FD2F7006980078C00606D4311B2022204603F007
:201C4000F9FC059D2EE0A642059D2BD0311B302720463A4603F0EEFC069B079841424141AF
:201C600003980140012905D11878400702D43046214604E03078611C2070701C37701A7B9D
:201C8000412A0CD0582A05D0612A08D0782A01D0702A07D11B781B0701D4612A02D14278BC
:201CA0004A704770204603F0CCFC401909B0F0BD4230240043020000F8B514460F46054651
:201CC0008068002804D4286810218843286001E00120A860287B1026582808D0782806D057
:201CE000702804D06F2801D1082600E00A262846194600F055F8AA68002A09D102460A431C
:201D000006D12878000749D52B7B0020024612E02B7B642B03D1642300290BD504E0692B16
:201D200008D1002906D5692301223A60002240428A4100E00A4600941146324600F0B0F8E3
:201D4000A968884206DA401C21684A1E226030220A70F5E7287B582803D0782801D0702852
:201D60000FD1297809070CD5702800D1782021684A1E226008702068411E216030210170DB
:201D8000287B6F280AD12878000707D520684178302903D0411E216030210170F8BDC046E1
:201DA00010B5037B702B05D10868021D0A60006800226FE00068384A024001204403A24225
:201DC00022D0402A20D00402A24230D04402A24246D0C402A2422AD00403A24214D0202AD0
:201DE00012D100221C46643C142C06D8A0402B4C204204D1212420423ED1582B49D108686D
:201E0000031D0B60008845E000221C46643C142C06D8A040214C204204D1212420422BD121
:201E2000582B36D10868031D0B60006832E01A46643A142A06D89040184A104206D12122EB
:201E4000104203D10020582B024623D10868C21D072082431046083008601068526819E021
:201E600000221C46643C142C0CD8A0400B4C20420AD12124204205D00868021D0A600068C9
:201E8000C21707E0582B04D10868031D0B60007800E01046114610BD603F000000081200A4
:201EA000FEB501920D460646582B01D0174800E015480090089802903046284305D1029A38
:201EC0001068411E116030210170019C3046284313D030462946224600F01AF807460D46A8
:201EE000224603F0C3FA301A0099085C029B19684A1E1A6008703E46E8E70298006803F0C3
:201F0000A0FB401EFEBDC046F87100000972000080B5102A06D0082A09D1C0084A07801821
:201F2000C90880BD00090A078018090980BD002904D1114603F086F8002180BD002303F058
:201F400031FB80BDF0B587B0F3480068C0B2012800D0DEE10120069072B603F02DFBEF4C3A
:201F6000208003F033FBEE49088062B60023E05EEC4C2268101820600593C95EEA4B1A6888
:201F800055181D6041210F01394602F0DFFE03F02FFAE64AE64B01F059FF04460E46E54806
:201FA000046041602846394602F0D0FE03F020FADE4ADF4B01F04AFFDF4A03C2DF4D28781C
:201FC000012864D1DE4903C90322930700273A46049301F044F902460B462046314602F01D
:201FE000AFFD002804D103F0E7F8002800D1C1E1D448012101702F70D3480770D348077059
:20200000D3480178D3480078421E504250410129069900D00146012939D101F05DFB01F0C8
:20202000E3F9400002F010FA02F058FFCA490860002809D1BB4B1968BB4C22685118CA0F68
:20204000891849101960216003F0D2F904460D46C24804604160C24903C922462B4601F081
:20206000F9F802F03BFFBF4E3060BF4903C922462B4601F0F4F802F031FFBD4C20603046FB
:20208000214603F09DF93068216802F009FDB74F3878012858D1AE480178AE480078421EF2
:2020A000504250410129069900D0014601292FD101F012FBEE48006802F0E4FF0246FA48F8
:2020C0000B4600F0A3FE02F013FCF44990C902F0D9FF05460E4620463946F24F2A4633460F
:2020E00001F0BDF802F0FAFEE44C2060EC4903C92A46334601F0AEF802F0F0FEE14D286089
:202100002046294603F05CF92068296802F0C8FCD14860C8D14903C90024E44B224601F000
:202120009EF802460B462846314602F009FD00280AD03C70CB48047003F0EEF803F008F991
:20214000D3480168491C0160D9480078012847D1D0480178D0480078421E5042504101298D
:20216000069900D0014601293AD101F0B5FACB4903C902F0B3FEC14C2060C94903C902F0F4
:20218000ADFEC04D28602046294603F019F92068296802F085FCC74830C8C74AC74B204609
:2021A000294601F05CF8AC4AC0CA32463B4602F0B3FC002807D13046394622462B4602F091
:2021C000C9FC00280CD003F0A7F803F0C1F80599B7480170A3480170AD480168491C01606A
:2021E000AA48007801289B4F00D092E003F0C2F903F0CCF9A7480178A7480078421E5042F9
:202200005041012900D00690069801287FD101F099FB994903C902F061FE984C20609849BD
:2022200003C902F05BFE974D28602046294603F0C7F82068296802F033FC8B48856AC46A6A
:20224000002228462146134602F084FC002820D08748006802F016FF074606910026994B78
:2022600028462146324600F0FAFF3A46794F069B02F05CFC00284AD003F04EF803F068F827
:20228000824806707748067081480168491C01603DE0002228462146134602F03DFC002811
:2022A00035D07348006802F0EDFE07460E4601208307002206922846214600F0D0FF0597E3
:2022C0003A460496334602F03BFC0746032083072846069D21462A4600F0C1FF002F5D4FD5
:2022E00015D0059A049B02F021FC00280FD0744C2068411C2160092809DB03F00DF803F07F
:2023000027F862480570574805702560BCE70120B86207B0F0BDC046203086407C0B2020C1
:202320007E0B2020740B2020780B2020624A24D1CB282E40100B2020180B2020820B2020C5
:20234000F00A2020850B2020840B2020890B2020860B2020870B2020680B2020F80A202038
:20236000200B20206C0B2020280B2020810B2020700B20203A480078012867D13A4F002439
:202380003A4B38462246039403F080F93848006802F0A6FF03F02CF8024638460B4601F031
:2023A000E9F8344B224602F0FCFC334903C902F095FD324C2060324903C902F08FFD314E5D
:2023C00030602046314602F0FBFF2068316802F067FB2748006802F055FE05460C46B86A54
:2023E0000290FE6A01218B073146039F3A4600F036FF01952A463D460094234602F0A0FB5E
:202400000746029831462A46049B00F028FF002F00D1F5E5019A009B02F088FB002800D1BA
:20242000EEE5194C2068411C2160092800DAE7E502F072FF02F08CFF1448057009480570B0
:20244000256013480168491C0160D9E5054801210170D3E520308640100B2020F00A20206C
:20246000850B2020840B202060092020007066403C05202000005940300B20206C0B2020B2
:20248000380B2020700B2020600B2020800B2020640B2020860B2020870B2020200B2020CB
:2024A000280B2020810B2020B0082020000014C0830B2020480B20209A9999999999B9BFA1
:2024C0005C0B2020000028C0F0B583B000910290E14F103F02253D6001243C600A263046C8
:2024E00002F010FEDC480560304602F00BFEDA480460304602F006FED7480560304602F004
:2025000001FE3C60304602F0FDFDD34804603D60304602F0F7FD3C60304602F0F3FDCE483C
:2025200004603D60304602F0EDFD3C60304602F0E9FDC94804603D60304602F0E3FD3C6068
:20254000304602F0DFFDC44804603D60304602F0D9FD3C60304602F0D5FDBF480460056046
:20256000304602F0CFFD3C60304602F0CBFDBA4804600560304602F0C5FD3C60304602F062
:20258000C1FDB54804600560304602F0BBFD3C60304602F0B7FDB048046001953D603046DA
:2025A00002F0B0FD3C60304602F0ACFDAA480460304602F0A7FD0098002853D0A648019EFD
:2025C00006600A25284602F09DFD3C60284602F099FDA14804603E60284602F093FD3C6063
:2025E000284602F08FFD9C4804600660284602F089FD3C60284602F085FD97480460066034
:20260000284602F07FFD3C60284602F07BFD924804600660284602F075FD3C60284602F0F8
:2026200071FD8D4804600660284602F06BFD3C60284602F067FD884804600660284602F06B
:2026400061FD3C60284602F05DFD834804600660284602F057FD3C60284602F053FD7E486B
:2026600004605CE07C49019808600A25284602F049FD794E103E3460284602F043FD764917
:202680000C6001980860284602F03CFD3460284602F038FD70490C6001980860284602F085
:2026A00031FD3460284602F02DFD6B490C6001980860284602F026FD3460284602F022FD17
:2026C00065490C6001980860284602F01BFD3460284602F017FD60490C60019808602846DB
:2026E00002F010FD3460284602F00CFD5A490C6001980860284602F005FD3460284602F078
:2027000001FD5548046001990160284602F0FAFC3460284602F0F6FC4F480460019E3E604B
:202720000A25284602F0EEFC3C60284602F0EAFC49480460284602F0E5FC029840B2002854
:20274000454800DA38460660284602F0DBFC3C60284602F0D7FC40490C6002984006084605
:2027600000D538460660284602F0CCFC3C60284602F0C8FC38490C6002988006084600D588
:2027800038460660284602F0BDFC3C60284602F0B9FC31490C600298C006084600D53846A4
:2027A0000660284602F0AEFC3C60284602F0AAFC29490C6002980007084600D53846066081
:2027C000284602F09FFC3C60284602F09BFC22490C6002984007084600D53846066028463E
:2027E00002F090FC3C60284602F08CFC1A490C6002988007084600D538460660284602F080
:2028000081FC3C60284602F07DFC13490C600298C007084600D038460660284602F072FCCD
:202820003C60284602F06EFC0B4804603E60284602F068FC3C60284602F064FC064804600B
:20284000284602F05FFC044806603C60284602F059FC3E6003B0F0BDA0120A40F0B589B0E2
:202860000021CC48CC4F10E0089E3E603D46103D079828600A2002F045FC2E600099491CF4
:202880000198401C082900D182E10190B02000910843C0B200242146FFF716FE20462146CD
:2028A000FFF712FE102002942146FFF70DFE3E46103E022008903060012434600A25284672
:2028C00002F020FC08983860284602F01BFC3C60284602F017FC08983860284602F012FC86
:2028E0003460284602F00EFC3C6008983060284602F008FC3460284602F004FC3C6008987A
:202900003060284602F0FEFB3460284602F0FAFB3C6008983060284602F0F4FB34602846C8
:2029200002F0F0FB3C6008983060284602F0EAFB3460284602F0E6FB3C6008983860284692
:2029400002F0E0FB3460284602F0DCFB3C6008983860284602F0D6FB3460284602F0D2FB19
:202960003C6008983860284602F0CCFB3460284602F0C8FB3C6008983060284602F0C2FBBC
:202980003460284602F0BEFB3C60284602F0BAFB08983860284602F0B5FB3460284602F09D
:2029A000B1FB3C6008983060284602F0ABFB3460284602F0A7FB3C6008983860284602F0CF
:2029C000A1FB3460284602F09DFB3C6008983860284602F097FB3460284602F093FB3C60EB
:2029E00008983860284602F08DFB3460284602F089FB3C6008983860284602F083FB3460F9
:202A0000284602F07FFB3C6008983860284602F079FB3460284602F075FB3C6008983860FC
:202A2000284602F06FFB3460284602F06BFB3C6008983060284602F065FB0396346028464B
:202A400002F060FB07943C60284602F05BFB8020019E1FE0089E0660284602F053FB079F9E
:202A60002760284602F04EFB4B4807602660284602F048FB2760284602F044FB46480760E8
:202A80000746284602F03EFB059E08360698401E00D1E9E606903846029905967756002F8D
:202AA00000DA0398089901600A25284602F02AFB039C079E2660284602F024FB36490E60B5
:202AC0007806084600D5204608990160284602F019FB079E2660284602F014FB2E490E60FA
:202AE000B806084600D5204608990160284602F009FB079E2660284602F004FB26490E60C2
:202B0000F806084600D5204608990160284602F0F9FA079E2660284602F0F4FA1E490E608B
:202B20003807084600D5204608990160284602F0E9FA079E2660284602F0E4FA16490E6052
:202B40007807084600D5204608990160284602F0D9FA079E2660284602F0D4FA0E490E601A
:202B60000497B807084600D5204608990160284602F0C8FA079F2760284602F0C3FA064EB0
:202B800037600498C007304600D163E7204661E709B0F0BD00002020A0120A40F0B58CB079
:202BA0000A910190082B01D1062408E0D808590700D0401C5C084443200600D119E1119DDC
:202BC000203AD1B2580800902420029148438A4909180020E2B203922C46019E0546049396
:202BE000089409E006460799069D6D1CE8B2491C039A904200D3FCE0082B0791069504D1E0
:202C00000621029A51437F4A0FE0182B00D1EEE0102B07D00C2B00D0EBE00C21029A514382
:202C2000774A02E002990901744A511808180B900596F1B20A9AD0B2C608072002400127A7
:202C400009979740C900704A5518A95D0A46BA430F43002C394600D0114600240B9B1C5759
:202C60000B94089B002B00D03A460B9CE40700D01146A9550A994A1CD1B2CE08024009999A
:202C80009140AC5D22468A432143089C002C0F4600D01746002C00D00A460B99890700D51A
:202CA0001746AF550A998A1CD1B2CE08024009999140AC5D22468A432143089C002C0F4695
:202CC00000D01746002C00D00A460B99490700D51746AF550A99CA1CD1B2CE08024009998B
:202CE0009140AC5D22468A432143089C002C0F4600D01746002C00D00A460B99090700D53A
:202D00001746AF550A990A1DD1B2CE08024009999140AC5D22468A432143089C002C0F46B3
:202D200000D01746002C00D00A460B99C90600D51746AF550A994A1DD1B2CE08024009992A
:202D40009140AC5D22468A432143089C002C0F4600D01746002C00D00A460B99890600D55A
:202D60001746AF550A998A1DD1B2CE08024009999140AC5D22468A432143089C002C0F46D3
:202D800000D01746002C049B00D00A460B99490600D51746AF550A99C91DCAB2D6080840C7
:202DA000099A8240A95D084690430A43002C1746114600D00146002C00D038460B9A002AFA
:202DC00000D40846A8550598401C082B00D109E7C1B2019A891A009DA942164600D0064636
:202DE000A94200D0FFE60A9808300A90FBE60B911EE70CB0F0BDC046B05600000C64000058
:202E0000FC690000706E000000002020F0B587B0014602634363806A0691C96A00F01AFA49
:202E200005460E460022814B01F094FE00282DD07E4C0027284631463A467D4B00F00FFA46
:202E400005460E463A46234601F084FE00281DD00027284631463A46754B00F000FA0546E1
:202E60000E463A46234601F075FE00280ED00027284631463A466E4B00F0F1F905460E46ED
:202E80003A46234601F066FE0028D2D106988565C6650024674B28463146224601F03CFE28
:202EA0000028059431D0634C0027284631463A46614B00F0D4F905460E463A46234601F033
:202EC0002BFE00281DD00027284631463A465A4B00F0C5F905460E463A46234601F01CFE42
:202EE00000280ED00027284631463A46524B00F0B6F905460E463A46234601F00DFE002858
:202F0000D2D106988565C665059C0120C007314681434A4B2846224601F0FEFD00282746AB
:202F2000204625D006980CC82846314600F097F904900C460027424B3A4601F00BFE0390B8
:202F4000404A04980294214614463A46234601F0E3FD0028394600D10499002800D1029C8E
:202F6000039A002A364800D12046002A00D10F460290069C276060602269636928463146CE
:202F800000F064FF0490039120646164A269E3693846029900F05AFF02900191A064E16447
:202FA000276A606A0090226E636E2846314600F051F902460B463846009900F047FF009030
:202FC0000F462065616504980399029A019B00F046F9009A3B4600F042F9044603911A4B29
:202FE000059F3A4601F0B6FD0490184B02942046039C21463A461F4601F08EFD002800D1B6
:20300000274600280598024600D1029A049B002B0D4900D11046002B00D13946069A906374
:20302000D1631566566607B0F0BDC04600806640008076C0008066C000807640000024409F
:2030400000004940000049C000409F4000409FC09AB001F0B1FF02F08DFA02F097FA002415
:20306000089409940A940B940794069405940494039402945C4E019600945C485C4D2246BD
:203080002B4601F081FB089409940A940B9400940196029403940494059406940794554881
:2030A00022462B4601F070FB089409940A940B9400940194029403940494059406940794A9
:2030C0004D484E4D4E4E2A46334601F05DFB089409940A940B94009401940294039404948E
:2030E00005940694079447482A46334601F04CFB089409940A940B94009401940294039486
:2031000004940594069407943F48404B2A4601F03BFB089409940A940B940794069405945C
:2031200004943B4803903B4802903B4801903B4800903B483B4A3C4B01F026FB08940994CB
:203140000A940B94009401940294039404940594069407943548364B224601F015FB01F01E
:2031600049FEFCF7ADFF02F079FA0125E904314A1160E803106008231360022414602E4AFA
:203180001160106013601460A9062C4A116029061162A905116010622948014601F080FC79
:2031A000FDF754FD274802680DAE3046264902F0EBF80095002410272046394632463B46AE
:2031C00001F0D6F9FFF74AFB204802683046204902F0DAF800952021204632463B4601F059
:2031E000C7F9FFF73BFBDDE700002140500720200000184000082020F00520203333333386
:203200003333D33FA0062020600920203333F33FF3FDC43FCBA145B67493683FFA7E6ABC69
:20322000400520209A99999999993F40B00820200020724080E200E000E100E080120A404A
:20324000B80B0000740B20201A720000780B202026720000FCB40124E407634002E0FCB410
:203260000124E40708B41D03ED08D60D354356025F007F0D06D12C00344300D0AEE001B046
:20328000FCBC7047A408254307242402FF34A74205D10020190D090501B0FCBC7047002BC9
:2032A00003D50024A61BAC4125000B03DB08C20D134342024800400D07D11C00144300D035
:2032C0008CE00EBC1000F0BC704701246407234307242402FF34A04205D10020090D0905CF
:2032E00001B0FCBC7047002903D50024A21A9C412300C11B08D51C002B0025001400320062
:2033000026000024611A3800362925D502B4393949420C00203C03D22F008F40374301E00E
:203320003700A740002F01D040210E4302BC20290BD500290ED04C42203420B4A5402C0008
:2033400020BC0D41CE40361904E000292E000D4120390E4192196B411C0014433ED00024B9
:20336000002B04D5012400218A1A99410B00401E52005B41FBD50121890215000D400CD073
:20338000521800277B4101D3401C0BE00721C90115000D4001D189008A43072109028A4349
:2033A00052005B41801C19DD07210902FF31884209D30EBC0020C90F0902FF31C900C91DD8
:2033C0000905F0BC7047190B00050143E40721431805120B104301B0FCBC704700210020D2
:2033E00001B0FCBC7047FEE7F0B587B0594908680001C00F0A685201D50F0A689201D20F7B
:2034000000920A68D201D20F01920A681203D20F02920A685203D20F03920A681204D20FBF
:20342000049209684904C90F059101F089FE0646494901F0E3F80021069100F0ECFD0446CD
:20344000284601F07DFE0746444901F0D7F8214600F0E1FD05463046394600F0DCFD06466E
:20346000009801F06DFE0746FD208105384601F0C5F8294600F0CFFD05463046394600F0E1
:20348000CAFD0646019801F05BFE07467D20C105384601F0B3F8294600F0BDFD0546304692
:2034A000394600F0B8FD0646029801F049FE04462B4901F0A3F8294600F0ADFD05463046B6
:2034C000214600F0A8FD0646039801F039FE0446244901F093F8294600F09DFD05463046F4
:2034E000214600F098FD0646049801F029FE04461D4901F083F8294600F08DFD054630461A
:20350000214600F088FD0646059801F019FE0446164901F073F8294600F07DFD074630463D
:203520002146069C00F077FD05463846294601F0ABF80F4901F062F801F0D2FE0646284634
:20354000214601F011FB002800D13446204607B0F0BDC04680330A400000E03F0000A03FC9
:20356000000080BE000040BF0000A0BF0000E0BF00007A44F0B587B0044602634363806A37
:20358000E16AFFF767FE06460F46A065E16500254B4B2A4601F0DEFA0028059701D0494B7C
:2035A00009E00025484B304639462A4601F0B4FA00280AD0454B304605992A46FFF74FFE0D
:2035C00006460D46A065E16500E0059D00273F4B304629463A4601F0B3FA00280AD10022A6
:2035E000384B3046294601F0A1FA002802D10CCC083C05E0A765E7653A463B463E463D467B
:203600000696304605952946FFF729FE06460D462F4B3A46049301F09DFA02902D4B30463A
:2036200029463A46039301F077FA002800D103950028384600D130460299002900D1074643
:203640000029069901D1039804902760049D6560226963690846059E314600F0F7FB039080
:20366000029120646164A069E1693A462B4600F0EDFB04900191A064E164276A656A226EF3
:20368000636E06983146FFF7E5FD02460B463846294600F0DBFB07460D462065616503989A
:2036A0000299049A019BFFF7DAFD3A462B46FFF7D6FDA063E163069A2266666607B0F0BD0F
:2036C00000806640006076C0008066C00060764000408F4000408FC0F0B581B03B48007803
:2036E000012805D03A480078012801D001B0F0BD38480178491CCAB20170022A20D30024EC
:2037000004703548006801F073FE024633480B4600F0B0FA324D22462B4601F042FB314A3F
:2037200003C23148006801F063FE02462F480B4600F0A0FA22462B4601F033FB2C4A03C2C4
:2037400028480CC82B4801F0A1FF29480CC82A4801F09CFF29480025405F01F049FE284FFA
:203760002A463B4600F072FB264C2A46234600F06DFB254E2A46334600F074F901F0AEFB05
:2037800001F036FE02461B480B4600F045F81F4A03C21F48405F01F02BFE2A463B4600F0AC
:2037A00055FB2A46234600F051FB2A46334600F059F901F093FB01F01BFE02460E480B4601
:2037C00000F02AF8134A03C201B0F0BD860B2020870B2020880B2020740B2020F0052020ED
:2037E00000005940000B2020780B2020A0062020080B202050072020000820207C0B202043
:2038000000408F4000004E400050D440200B20207E0B2020280B2020F0B587B0044601F0E9
:2038200037FB20636163A26AE36A204600F0C0FC226B636BFFF70EFD06460D4600273D4BFA
:203840003A4601F069F906903B4B304629463A4601F080F900283A4600D1324606990029F1
:2038600000D1324600283B4600D12B46002900D12B46A265E36503CC05920693083CFFF721
:20388000EEFC06460D462D4B3A4601F063F904902B4B304629463A46039301F03DF9002806
:2038A000394600D13146002800D1039504980028059A069B214D00D1039D002800D10F467F
:2038C0002760656020696169164600F0BFFA0490039120646164A069E1693A462B4600F09F
:2038E000B5FA02900F46A064E164256A606A0190226E636E30460699FFF7ACFC02460B4652
:203900002846019900F0A2FA06460D462065616504980399029A3B46FFF7A1FC32462B4658
:20392000FFF79DFCA063E163059A2266069A626607B0F0BD0000E03F0000E0BF00408F40F1
:2039400000408FC0F0B581B03648007836490978014364D035480178491CCAB20170012A21
:2039600015D9002404703348006801F0B9FC01F03FFD024630480B46FFF7FCFD2F4B224629
:2039800001F00FFA02462A480260416002E02848026841680120C3074B40294801F076FEBF
:2039A00023480CC8274801F071FE27480025405F01F01EFD254F2A463B4600F047FA244CB4
:2039C0002A46234600F042FA224E2A46334600F049F801F083FA01F00BFD024618480B46F8
:2039E000FFF71AFF1C4A03C21C48405F01F000FD2A463B4600F02AFA2A46234600F026FAAE
:203A00002A46334600F02EF801F068FA01F0F0FC02460C480B46FFF7FFFE114A03C201B0C6
:203A2000F0BDC046860B2020870B20208A0B2020400B20203C05202060092020000059400D
:203A400050072020000820207C0B202000408F4000004E400050D440300B20207E0B20207B
:203A6000380B2020FCB40C005C40E40FE40710B41D032D0B56006D415F007F0D73D001241A
:203A80006405254307242402FF34A74261D00B031B0B42005B414800400D64D0012464054E
:203AA000234307242402FF34A04252D0C01B002100273624AB4200D1B24204D37F414941C8
:203AC000921BAB4101E07F414941641E06D0002B01D1002A02D052005B41EBE7202C07D2EC
:203AE000162C0AD33900A7402026361BF1400BE0203C3900A140002706E0A1402026361BD9
:203B00003D00F5402943A74001246405214202D17F004941401E00247F1C61410124A40586
:203B2000214202D0401CA14301E06408A14303242402FF34001916DD2419A04209D8CC0780
:203B40004908000501437808204310BC2143FCBC704702BC0020C90F0902FF21C900C91DB9
:203B60000905FCBC70470021002001B0FCBC7047F0B5394A8218394BC0183A4D4C790B7979
:203B8000002C22D0466F202B02D00524E70100E0354F2E40002B00D188273E434667846F86
:203BA0002C403C438467446B2D4E34404463846B3440846300244465846554688F26F64340
:203BC000344054609468344094600C688979202B09D006467036002B15D1641E4460C46E64
:203BE0002C40882715E0641E4460C46E2C401E4E3443C466046F2C40344304671B4D012496
:203C00006707064607E00527FF0164084460C46E2C403C43C46634682C403C433460C46A37
:203C20000F4D2C40C462046B2C4004630024C4640465C46F8F25ED432C40C46714682C4009
:203C40001460194302680A4B1340BD220A40D118891C0160F0BDC0468418000004180000FF
:203C60008888FDFF24493E0001040000FFFFFFCF4000FFCFF0B587B0194615460446026369
:203C80004363826AC36A284601F030F8226B636BFFF7E0FA0591A065E1650CCC0746069017
:203CA000083CFFF7DCFA05460E4603C4A268E3683846059F3946083C00F0C8F8049003917C
:203CC00020646164A269E3692846314600F0BEF806460291A064E164256A606A0190226E17
:203CE000636E06983946FFF7B5FA02460B462846019900F0ABF807460D4620656165049876
:203D000003993246029BFFF7AAFA3A462B46FFF7A6FA2546903590220492A25803926E68F4
:203D20000D4A0E4B00F092F8074602910C4B03983146094A00F08AF83A46029BFFF78FFAAF
:203D4000A063E163049AA0506960069A2266059A626607B0F0BDC0469A9999999999C93F2D
:203D60009999E93FB0B5364A80184A6842600A78222A56D8930001A4E3589F46193E00006D
:203D8000233E0000193E0000233E0000233E0000233E0000233E0000233E0000233E000025
:203DA000233E0000233E0000233E0000233E0000233E0000233E0000233E0000093E000015
:203DC000233E0000093E0000233E0000233E0000233E0000233E0000233E0000233E0000F5
:203DE000233E0000233E0000233E0000233E0000233E0000233E0000233E0000093E0000D5
:203E0000233E0000093E0000036803242407A343012464071B1903E0036803242407A3430D
:203E200003600B69C360CB68C46A064D2540064C1C402B19C362097A11430160B0BDC046AD
:203E4000041800008888FDFF77770200FCB50C005C40E40FE40710B4DD02540D2543D602CF
:203E60005F007F0D60D00124E407254307242402FF34A74250D0CB02440D2343C202480092
:203E8000400D51D00124E407234307242402FF34A04241D0C01901B41800290001F0E6F928
:203EA0000F0001B41800310001F0E0F903000C001000310001F0DAF906001000290001F0E7
:203EC000D5F905007618002202BC01BC55415141A419554151418024A4005B195141FF1872
:203EE000514100D564003F19514102D47F00494100E0401C03242402FF34001B14DD241929
:203F0000A04209D80305F80A4C0520434900090B194310BC2143FCBD0020FF21C900C91D8F
:203F2000090510BC2143FCBD0021002001B0FCBDF0B584B03049314A0125AC0316682B0292
:203F400003939E4316600E68264205D10E68264202D10E682642F6D06C02467E9769AF4347
:203F60002E40BD1995612025455DD6690327BE433D407519D561224D2E68072737400526A0
:203F80002E60466A33681362736853622F60C3695B065B0CD5697F263602B543EB18D36176
:203FA000E8C8009707680197476802971B071B0B2D03ADB2ED1833071B0D007A009E35439D
:203FC0001D43019B1D43029B1D43054390690D4B03400D482840C01890611068039B1843B5
:203FE00010600868204205D10868204202D108682042F6D004B0F0BD04020B4008010B4066
:20400000001340408D00F0FF72FF0F00FCB40127FF07794002E0FCB40127FF070C024D005F
:204020002D0E03D1002C52D1FCBC70473C43FF2D50D0A408002900D56442020243001B0E28
:2040400004D1002A43D10800FCBC70473A43FF2B41D09208002800D552425E1B04D517008A
:2040600022003C0076422B00192E06D527003741D2191C27F71B7F42BC40002A27D002D549
:204080005242012700E00027013B5200FCD51500802635400FD01500202635402C438032FE
:2040A00008D21500402635402C4304D101263602B24300E05B1C5200023308DDFF2B0BD2D4
:2040C000500ADB051843FF073843FCBC70470020FCBC70470800C70FFF07FF20C005384389
:2040E000FCBC7047F0B5264B8420586001210803244A10608520986048031060224C82206C
:204100002065224D65659D659861DD61204E1E6481255D641F4807467F3767621E4F276327
:204120001F6066679E629D665D659D631D615F661F66DF65DF641F63DF62E767A76725607B
:2041400065601346303B154C1C601346403B03251D60E31C13608905114A116011631149E6
:204160000A68114B13430B600A69092313430B610E490A6A02430A620A6802430A60F0BD05
:2041800084804240D0120A40048042408200040081000E000200010081000D0020804005DC
:2041A000A0320A4090330A400400000828300A40F0B585B0194604468834076B436B039234
:2041C000104604913A460293FFF744F80125EA079143244A244B00F09FFC00260028304696
:2041E00007D1384602AB0ECB00F096FC0028284606D0206201F0FCF802900191AF0706E0CE
:204200000026F0432062194F194801900296A268E3680398049904920393FFF71BF80546C4
:204220000120C00700918143284632463B4600F091FC394607463046029A019BFFF706FEE9
:2042400002460B46002F00D12A46002F00D1009B04980399FFF703F803C42060616005B0D4
:20426000F0BDC046FCA9F1D24D62503F000008400000F0BFF0B58B4200D1824204D90B00FF
:2042800002000021002040E0002B00D1002A0CD10B00020000210020002B00D1002A01D073
:2042A000C943C04300F0ABFA2FE01C0015000B0002000CB4002126002F00FF19764102D234
:2042C000491C4029F9D100201E001700FF19764102D2401C4028F9D10E1A2100280032001D
:2042E00001F0F8F80C0005000CBC00200021A34200D1AA4201D3521BA341404149416D087C
:20430000E7073D436408761EF1D5059F002F01D03A607B60F0BD002A49D084468B071CD117
:20432000830722D1102A08D370B4103A78C978C0103AFBD270BC103238D0042A2CD3082A18
:2043400005D30C2A01D308C908C008C908C008C908C092072AD0920F22E00B780370491C1F
:20436000401C521E22D08B07F7D1C30714D18307D8D0121F12D308C903801B0C4380001DD3
:20438000121FF8D20AE008C903701B0A43701B0A83701B0AC370001D121FF4D2121D05D094
:2043A0000B780370491C401C521EF9D16046704710B51F491F4C204601F012F91E492046E8
:2043C00000F0B2FD1D4801680322D2039143016001691B4A0A404121C90051180161416988
:2043E00035220A430A218A434261426801210A4043688B439A184260124A13680B43136003
:204400008B02136302684B0413430360C2682023134350229343C360C2680F231B029A43A3
:204420000B02D218C26002680A43026010BDC04657720000000050404672000000115040C5
:204440000000FFFF28105040F0B581B000F0D0FF06460D46204CA065E165206961693246E0
:204460002B46FFF7F3FC2064616403CC32462B46083CFEF7F4FE03C40022184B083C00F03A
:2044800090FC03C422696369083CFFF7DFFC00900D46A064E164266A676A234658330FCB02
:2044A000FEF7D8FE02460B4630463946FFF7CEFC06460F4620656165226C636C0098294693
:2044C000FEF7CDFE02460B4630463946FEF7C7FEA063E16301B0F0BD100A20200058AB4092
:2044E000F0B581B01C491D4C204601F011F81C492046FFF73DFB1B4801681B4A0A400260E2
:2045000000250095204629462A462B4601F00EF8204629462A4600F0EDFF7D208601204689
:2045200031462A4601F06EF801270097204629462A462B4600F0FAFF204629463A4600F09A
:20454000D9FF204631463A4601F05CF8074887600321016001B0F0BDA1710000004008402E
:2045600098700000045808407F00FFFF00510840F0B585B00646177838462038C0B25E28F6
:204580003AD8082B01D0580800E0062002900A980490D41C0391029D04980090F0B2FAB23A
:2045A00003991F46FEF7FAFAA01E027810462038C0B25E2820D80298361804980090F0B285
:2045C00003993B46FEF7EAFA601E027810462038C0B25E2810D8761904980090F0B2039966
:2045E0003B46FEF7DBFA3B467619277838462038C0B2E41C5F28CFD305B0F0BDFCB4012716
:20460000FF0706004E4001D4002600E03E00020243001B0E30D03A43FF2B30D00C024D0075
:204620002D0E29D03C43FF2D29D05B194240504042404C4061404C4000B500F017FE20BC4B
:20464000AE464240504042404C4061404C4025001400002C01D46400013B803401D3013383
:2046600064087E3B08DDFF2B09D2BC43200ADB0518433043FCBC70470020FCBC7047FF2037
:20468000C0053043FCBC7047FCB40127FF0706004E40F60FF607020243001B0E2DD03A4315
:2046A000FF2B2DD00C024D002D0E26D03C43FF2D26D05B1B0020202164085208A2424041A4
:2046C000A24200D3121B013904D0002A01D05200F4D18840384201D14000013B803001D3C2
:2046E000013300E040007F3307DDFF2B08D2400ADB0518433043FCBC70470020FCBC7047D6
:20470000FF20C0053043FCBC70477047F8B5451C00780023082B32D02F78C2070CD16A780F
:204720000F241440E41C122C0BD102242E57F4B2002E08D4EE1C0EE06D1C4A1C0F701146C0
:204740001AE0AE1C08E02E1DED7800957F252C40009DED012C1912343D0112095219094D28
:20476000AA420ED0D243002C05D08D5C4F1C0D70641E3946F7E7354640085B1CCAE7284650
:20478000C5E7F8BDFF0F0000F0B589B01F46164618990891199907911699069117990591EB
:2047A000159902911499019112990491139903910EAD3CCD002101604160066147610646B7
:2047C00018363CC68162C16201634163024680328023019CC450029B53608165C16501666A
:2047E0004166049981660399C1660699016705994167089981670799C16709B0F0BD704710
:2048000010B51649164C204600F0EAFE1549204600F08AFB144802680321CB039A430260A4
:204820000269124B1340412292009A18026142691B231343242293434361426801231A402C
:2048400044689C43A2184260094A146889022143116001681943016010BDC0465372000084
:204860000080104032720000009110400000FFFF28901040FEB502930F46194D0024E14392
:20488000184E00973740019043422B46BB4101D20C4623E0084602990E405342B54101D264
:2048A00004461BE0134601990B433E431E43029D009E13D02B46334004D401998B1A3346FC
:2048C000AB4103E00199531A2B46B341044605DB51406E400E43701E864134462046FEBDF3
:2048E0000000F07FFFFFFF7F80B500F02BFE80BD0CB41B4B4A00D21A1BD2000D0A0310438C
:2049000001221202801802D3400812038918400A002902D50122D20710434900490D382263
:204920001201891A0CD4FF290DD2C90508430CBC7047DB431A40024305D0D8430CBC704716
:2049400000200CBC7047C90FC907FF20C00508430CBC7047C046C046C046C046C046C0463E
:204960000000E0FF70B516480068022826D10020C143144A14480346103B1C68A4070DD5C9
:204980001668124C2568B60401D50E4600E001267519256004680225254305601B68DB03EF
:2049A0000CD5012423041668094A1568B60300D50C466119116001681943016070BDC04658
:2049C0003011404080330A4048300A40540B2020580B2020F8B50446164F174D0E462E4093
:2049E0000120009464423C46B4411AD31D405442AF4116D31046009C20433543054311D036
:204A00000020C0431C460C400ED4009CA41A0C469C4106DB0098504059400143481E81414C
:204A20000846F8BD0020F8BD009C141B1C468C41F0DAF6E70000F07FFFFFFF7F70B5154890
:204A400000240460144D28680F21090288430126710240182860281F01680322D2430A4029
:204A600002606868B043686068683102884368600A48FFF75DFA286810210143202081430B
:204A800029602868310301432960204600F0B8FA70BDC04608030B4004010B40A471000006
:204AA000F0B581B00C46154E374620370028394600DC31460028324600DC3A460125AB06CA
:204AC0000B6029061160C1174840411A0C48002200F098FD002C384600DC3046002C00DC11
:204AE0003E46A9050160E8033060E0174440211A03482A4600F086FD01B0F0BD80120A408A
:204B00000040084010B5FFF765FF002801D0002010BD012010BDC04610B5FFF75BFF0028D7
:204B200001DB002010BD012010BDC04610B5FFF751FF002801DD002010BD012010BDC046C6
:204B400010B5FFF797FE002801DA002010BD012010BDC04610B5FFF78DFE002801DC0020B6
:204B600010BD012010BD000010B500F061FB002801D0002010BD012010BDC04610B500F0DA
:204B800057FB002801DB002010BD012010BDC04610B500F04DFB002801DD002010BD0120CD
:204BA00010BDC04610B500F0E9FA002801DA002010BD012010BDC04610B500F0DFFA0028F0
:204BC00001DC002010BD012010BD8446830706D0002A29D001700130013A8307F8D1042A72
:204BE0001CD30906090E0B0219430B041943082A10D30B00102A09D370B40F24161B2240AC
:204C00000C000D003AC0103EFCD870BC082A01D30AC0083A042A01D302C0043A002A03D022
:204C2000013A8154013AFCD26046704710B51249124C204600F0D4FC1149204600F074F93D
:204C4000104801680322D2039143016001690E4A0A40911C016141690B220A4334218A4303
:204C60004261416801221140436893435918416001681143016010BD5572000000001040DF
:204C80003C720000001110400000FFFFF0B581B00D480E4941600E4A51600E4B59600E4C6F
:204CA00061600E4D69600E4E71600E4F79600E4901601160196021602960316039601020A6
:204CC00000F0D2FC01B0F0BD00080A40030000B100280A40004808400028864000881040EA
:204CE000000850400008104001000026F0B581B01E4617460B460546104631462A4600939A
:204D0000FEF7A8FA0122D207914300220D4C2346FFF720FF002811D0384631462A46009E27
:204D20003346FFF717FF002800D1074C002021462A463346FEF793FA07460E46384631461A
:204D400001B0F0BD00003440000034C01CB5002922D04C08002900D54942421054400028B6
:204D600000D5404200230A00904201D95200FBE790425B41904200D3801A914201D2520822
:204D8000F6E71900002C00D54042640000D549420200080011001CBD01000020FFF7B5FC1A
:204DA0001CBDF0B583B01F4600920D460446FFF7D1FE01900120C60702977E4027462C4634
:204DC000009D284631463A462346FFF7C3FE002800D126460028284600D13846019A002AA2
:204DE000029900D10546002A00D13146284603B0F0BD000080B58CB00020089009900A9060
:204E00000B900790069005900490074803900748029007480190074800900748074A084B2C
:204E2000FFF7B2FC0CB080BDF3FDC43FCBA145B67493683FFA7E6ABC100A20209A99999970
:204E400099993F40F0B581B00646536894689589D0890090176950691C432C433C43009BA0
:204E60001843000120430B01F3180924640218511078527889007118024304480B58BF2425
:204E8000A34322409A180A5001B0F0BD10110000F0B583B002930192064604469834A068D5
:204EA000E1680B4A0B4BFEF7D1FF07460D460A4B01980299064AFEF7C9FF3A462B46FEF71D
:204EC000CEF99822B0506160A060E16003B0F0BD9A9999999999E93F9999C93F0CB54A00EB
:204EE000520D03231B02FF33D21A13D31F239A1A12D98E46C9020123DB071943D1400B2AE4
:204F000002D21532D04001437346002B00D5494208000CBD00200CBD0B000120C007002B06
:204F200000D401380CBD000070B511221302C218C4580125AC43C4500C888D7825438C88FA
:204F40002C43C558084E2E40084D25407419C4508879CB790343087A184351687E23994308
:204F600018400818506070BDE798FDFF1867000010B50B490B4C204600F0CAFA0A4920469F
:204F8000FEF7F0FE0948016801221143016008480168FF231B06994301600648026010BDE6
:204FA0005072000000208640E47100002830864010E400E00831864080B5FFF767FEFFF77D
:204FC00091F8FFF73BFDFFF78BFAFFF7D1FFFFF717FCFFF7EDF9FFF729FEFFF785FC00F070
:204FE00069FA00F01BFA0448B8210022425403482C21425480BDC04680042020C00A20202D
:2050000010B50E490E4A01235C0590600868204205D10868204202D108682042F6D010684A
:205020001B04034313600868C00605D40868C00602D40868C006F6D510BDC04604020B4058
:2050400004010B401CB50A0017D000230124E407A04200D20400944201D95200FBE790429D
:205060005B41904200D3801A914201D25208F6E719000200080011001CBD01000020FFF754
:2050800044FB1CBD08B443001B0E0FD0FF2B11D00721C9015B18C10FC9020B430100480748
:2050A0004902090B1B05194308BC70470021002008BC704701004002C90DC900C91D090508
:2050C00008BC704710B50E4902788B185B78401CDB06F9D400212D2A04D02B2A02D0401E6E
:2050E000134600E00378303B092B04D80A244C431919401CF6E72D2A00D14942084610BD8B
:20510000A070000080B582B001900198411E0191002813D0502000F0A7FA0198411E019167
:2051200000280BD0502000F09FFA0198411E0191002803D0502000F097FAE6E702B080BD41
:2051400006B49E22002802D404D106BC7047414204D400E00100013A4900FCD5803101D373
:20516000013200E04900490AD2051143002802D50122D2071143080006BC704740B542004E
:205180004B005E08164301D006004E4000D4D01A04D20120C90F06D1404204E003D90120D9
:2051A000C90F00D04042FF263606B24200D8B34201D90120404240BD0D490A68002012012E
:2051C00015D40A68520112D40A6892010FD40A68D2010CD40A68120309D40A68520306D429
:2051E0000A68120403D40868810B01208843704780330A4070B50A480A4C84420CD00A4DEE
:205200000A4EB54208D02A686968501C12789200A25890470835F4E700BF00BF70BDC046E2
:205220006C72000060720000807200009072000040B542004B005E08164301D006004E4024
:2052400000D4D01A04D20120C90F06D1404204E003D90120C90F00D04042FF263606B24208
:2052600000D8B34200D9012040BD0000FCB4020C0B0CFF242402FF34204021400C004443C5
:2052800015005D4306005E430F005743320C3B0CA818C01832043B040025A1186841C9180F
:2052A0006841FCBC704700000A480068C0B20B280ED10948C169094A117011780268D2077D
:2052C00005D00268D20702D00268D207F6D181617047C04620901040089110408B0B20207C
:2052E00006B54100090E7F390DD41F22511A0CD9864600020122D2071043C8407246002A6A
:2053000000D5404206BD002006BD02000120C007002A00D4401E06BD80B50948002101706F
:2053200008480078002804D107480168012291430160064800210A4600F064F980BDC04649
:20534000860B2020870B2020045808400040084080B509480021017008480078002804D1A1
:205360000748016801229143016006480021012200F048F980BDC046870B2020860B202074
:20538000045808400040084082B0F8B5069207930291019006A9039107480090074B02A88E
:2053A00001AAFCF79BF9019900220A7004B080BC02BC02B00847C0465D5500007356000055
:2053C000B0B5094B094A05689542144602DC9D421C4600DA04600868904202DC98421A466C
:2053E00000DA0A60B0BDC046A8E4FFFF581B000004B40422002802D1002104BC704701D5B2
:205400000832404212021F320100521E4900FCD30805090B1205114304BC7047074808493F
:2054200002680A408A4207D002680A408A4203D002680A408A42F3D17047C04604020B4070
:20544000000A2000084880F3088800BF00BF00F027F9002801D0FFF7CDFE0020FDF7F8FD7E
:20546000012000F016F9C0460080202030B514004C4325001C00444364190500100029003B
:20548000FFF7F4FE001904000D002100280030BDB0B504460020002B08D0D2B20D78257054
:2054A000954204D0641C491C5B1EF7D1B0BD601CB0BD0000054804210160054941600021E2
:2054C0008160016805220A430260704710E000E0FF69180018B520239B1A04D801000020E3
:2054E0005B42994004E004009140DC402143904018BD000010B592008018044A8358072415
:20550000A404A34321405918815010BD3018000010B50122120383180C789C604B78835097
:205520008978014A815010BD0C11000010B5029CA400001911431943014A815010BDC046A5
:205540005018000080B5034A03480021FFF77AFC80BDC046CC71000000A04240B0B5144628
:205560000D460146286800F08DF82868001928602046B0BD034801210170034802680A43A8
:2055800002607047860B202004580840034801210170034802680A4302607047870B2020B2
:2055A0000458084040B584B002AE0096FEF762FE029A039B04B040BD72B603490868002292
:2055C0000A6062B67047C046540B202072B60349086800220A6062B67047C046580B202005
:2055E00010B50122120383180C789C604978815010BD80B50B4603214258C11D184600F0C4
:2056000041F880BD92008018014A81507047C0461018000000214258091D002AFBD1081FEB
:205620008010704780B50A4603214158104600F00FF880BD0B4611461A4680B5FFF7C5FA65
:2056400080BD0021425C491C002AFBD1481E70470A46002180B5FFF7B8FA80BD01482021C1
:2056600001607047A0120A40811E091F00BFFCD270470A68531C0B60107070470048704789
:20568000500B202080B5FEF746FE80BD8262C362704700F001F8FEE700BF7047D2E6704751
:1056A0000120704700000000000000000000000022
:2056B0000000000000000000000000000000000000000000000000000000000000000000DA
:2056D000000000000000000000F0F0F0000000000000000000017F01000000000000000069
:2056F000001C1C1C0000000000008060301C8C60301C0C00000000000000000000000000D6
:20571000000000000000000000000000000000E00000000000E000000086E69F8686868696
:20573000E69F860000011F01010101011F010100000080C06020F820E0C000000000030786
:205750000C18FF70E18100000000070F10107F100F0700008060206080000000E020000089
:205770000F3020309F70DC371030C0000000100E03000718101807000000C02020E0C00059
:205790000000000080E01F38E88703C43C040000070F1810100B070D1010080000808C4CDF
:2057B0003800000000000000000000000000000000000000000000000000000000000000A1
:2057D00000000000000080E0300804000000000000FEFF0100000000000000000000030F0D
:2057F0001820400000040830E0800000000000000000000001FFFE0000000000004020180F
:205810000F03000000000000000000000000C00000000000004266663C18FF183C666642E3
:20583000000000000000030000000000000000000000800000000000001010101010FF1076
:205850001010101000000000000003000000000000000000000000000000000000000000F5
:20587000000000000000000000808C4C380000000000000000000000000000000000000088
:20589000001010101010101010101000000000000000000000000000000000000000000058
:2058B0000000000000000000000000000000000000001C1C1C000000000000000000000084
:2058D00000000000E0380C000000000080701C03000000000060380E0100000000000000DE
:2058F000000080C060202060C080000000FEFF010000000001FFFE000001070E18101018B6
:205910000E0701000000808080C0E000000000000000000000FFFF00000000000000101023
:20593000101F1F10101000000080402020202060C080000000030300804020381F070000B5
:20595000001C1A1918181818181F00000080C020202060C080000000000303001010182FA4
:20597000E780000000070F10101010180F070000000000000000C0E0F000000000C0B088A4
:20599000868180FFFF808000000000000010101F1F1010000000E060606060606060000074
:2059B00000003F1008080818F0E0000000070B101010101C0F030000000080C04020202028
:2059D000E0C0000000FCFF211008080818F0E0000001070C18101010080F03000000C0E0D5
:2059F0006060606060E06000000003000000E0180700000000000000001F1F000000000037
:205A10000080C0602020202060C080000087EF2C1818303068CF830000070F08101010106C
:205A3000180F07000000C0C020202020C0800000001F3F604040402010FFFE0000000C1C15
:205A5000101010080F03000000000000000000000000000000000000000E0E0E00000000C2
:205A700000000000001C1C1C0000000000000000000000000000000000000000000C0C00AA
:205A900000000000000000000058380000000000000000000000008040201000000010283E
:205AB0004482010000000000000000000000010204081000000000000000000000000000F0
:205AD00000848484848484848484840000000000000000000000000000001020408000009E
:205AF0000000000000000000000001824428100000001008040201000000000000C0202078
:205B10001010101030E0C0000003030000F010080C070300000000001C1C1C0000000000ED
:205B3000000000C0406020202040C00000FCFF01F00E03C1FE03807F0001070E0811111087
:205B5000110904020000000080E0E000000000000000807C4340477FF880000010181F10C1
:205B700000000000131F1C1020E0E02020202060C080000000FFFF10101010182FE78000CB
:205B9000101F1F1010101010180F0700000080C0402020202060E00000FCFF0100000000ED
:205BB000000001000001070E181010100804030020E0E02020202040C080000000FFFF0089
:205BD0000000000001FFFE00101F1F10101018080E07010020E0E020202020202060800083
:205BF00000FFFF101010107C00000000101F1F10101010101018060020E0E020202020208F
:205C10006060800000FFFF101010107C00000100101F1F100000000000000000000080C0DB
:205C30006020202040E0000000FCFF0100004040C0C140400001070E181010100F0F00007B
:205C500020E0E0200000000020E0E02000FFFF101010101010FFFF00101F1F10000000007A
:205C7000101F1F100000202020E0E020202000000000000000FFFF00000000000000101018
:205C9000101F1F101010000000000000202020E0E020202000000000000000FFFF000000F8
:205CB0000060E0808080C07F3F00000020E0E020000020A06020200000FFFF30187CE3C0D1
:205CD00000000000101F1F10000001131F1C181020E0E020000000000000000000FFFF00E1
:205CF0000000000000000000101F1F10101010101018060020E0E0E000000000E0E0E02048
:205D100000FF013FFEC0E01E01FFFF00101F1000031F0300101F1F1020E0E0C00000000017
:205D30000020E02000FF0003071C78E08000FF00101F100000000000030F1F00000080C087
:205D500060202060C080000000FEFF010000000000FFFE000001070E181010180C0701007E
:205D700020E0E0202020202060C0800000FFFF2020202020301F0F00101F1F100000000099
:205D900000000000000080C060202060C080000000FEFF010000000000FFFE000001070E62
:205DB0001111133C7C67210020E0E0202020202060C0800000FFFF101030F0D0080F070012
:205DD000101F1F10000000030F1C10100080C060202020204040E00000070F0C18183030D5
:205DF00060E08100001F0C0810101010180F07008060202020E0E0202020608001000000F0
:205E100000FFFF000000000100000000101F1F100000000020E0E020000000000020E020F5
:205E300000FFFF00000000000000FF0000070F1810101010100807002060E0E02000000068
:205E500020E060200000077FF88000807C03000000000000071F1C070000000020E0E0206C
:205E700000E0E0200020E0200007FFF8E01FFFFCE01F00000000031F0300011F03000000D3
:205E9000002060E0A0000020E0602000000000038F7CF8C6010000000010181E1300011734
:205EB0001F1810002060E0E02000000020E06020000001073EF8E01807000000000000105E
:205ED000101F1F101000000000806020202020A0E0E0200000000000C0F03E0F0300000064
:205EF00000101C1F17101010101806000000000000FC0404040404000000000000FF0000C3
:205F10000000000000000000007F404040404000000010E0000000000000000000000000C2
:205F3000031C60800000000000000000000000030C70800000000404040404FC0000000043
:205F500000000000000000FF00000000000040404040407F0000000000000010080C040C3F
:205F70000810000000000000000000000000000000000000000000000000000000000000F9
:205F90000000000000000000000000000000000000000000808080808080808080808080F1
:205FB0000000000404080800000000000000000000000000000000000000000000000000B9
:205FD00000000000000000000000000000000000000098D844642424FCF80000000F1F1817
:205FF000101010081F1F10180020E0F000000000000000000000FFFF180804040CF8F000E9
:2060100000001F0F18101010180F030000000000000000000000000000E0F8180404043C98
:206030003800000000030F0C10101010080600000000000000000020E0F0000000E0F81CC8
:2060500004040408FFFF000000030F18101010081F0F080000000000000000000000000086
:206070000000E0F8484444444C7870000000030F0C181010100804000000000080C06020BE
:2060900020E0C00000040404FFFF040404040000000010101F1F1010100000000000000088
:2060B0000000000000000000000070F88C04048CF874040C007076CF8D8D8D89C878700037
:2060D0000020E0F000000000000000000000FFFF08040404FCF8000000101F1F100000104C
:2060F0001F1F10000000000000606000000000000000040404FCFC0000000000000010105E
:20611000101F1F101010000000000000000000606000000000000000040404FCFC0000002D
:206130000000C0C08080C07F3F0000000020E0F000000000000000000000FFFF80C0F41C13
:206150000404000000101F1F1100031F1C1010000000202020E0F00000000000000000003A
:2061700000FFFF000000000000001010101F1F101010000000000000000000000000000073
:2061900004FCFC0804FCFC0804FCFC00101F1F10001F1F10001F1F100000000000000000F1
:2061B000000000000004FCFC08080404FCF8000000101F1F100000101F1F1000000000000B
:2061D000000000000000000000E0F0180C04040C18F0E00000030F0C101010100C0F030043
:2061F0000000000000000000000000000004FCFC080404040CF8F0000080FFFF88901010D5
:206210001C0F030000000000000000000000000000E0F81C04040408F8FC000000030F181A
:2062300010109088FFFF8000000000000000000000000000040404FCFC100804040C0C005C
:206250001010101F1F1010100000000000000000000000000000000000003078CCC4848450
:20627000840C1C0000001E1810101011190F06000000000000C000000000000000040404F1
:20629000FFFF040404000000000000000F1F1010100C00000000000000000000000000007A
:2062B0000004FCFE00000004FCFE000000000F1F181010081F0F080000000000000000002E
:2062D0000000000000040C3CFCC40000C43C0C0400000000010F1E0E010000000000000055
:2062F0000000000000000000043CFCC400E47CFC84807C040000071F070000071F07000054
:206310000000000000000000000000000004041C7CE4C0341C0404000010101C1601131F4C
:206330001C18100000000000000000000000000000040C3CFCC400C43C0404000000C080B5
:20635000C1370E010000000000000000000000000000000000001C0404C4F47C1C040000AE
:206370000000101C1F17111010180E0000000000000000F80C04000000000000001028EF25
:2063900000000000000000000000003F60400000000000000000FF0000000000000000000F
:2063B0000000FF0000000000000000000000FF00000000000000040CF800000000000000C7
:2063D00000000000EF28100000000000000040603F00000000000000001806020204081069
:2063F000202030080000000000000000000000000000000000000000000000000000000015
:20641000000000000000000000000000000000F800000000000000333000000000100C06EF
:20643000100C0600000000000000000040C07840C0784000043F04043F040400007088FC74
:2064500008300000001820FF211E0000F008F000E018000000211C031E211E0000F0088881
:20647000700000001E2123241927211010160E00000000000000000000000000000000E091
:2064900018040200000000071820400000020418E00000000040201807000000404080F0E2
:2064B000804040000202010F01020200000000F0000000000101011F01010100000000009E
:2064D0000000000080B0700000000000000000000000000000010101010101010000000005
:2064F0000000000000303000000000000000000080601804006018060100000000E01008B9
:206510000810E000000F102020100F00001010F8000000000020203F20200000007008089E
:2065300008887000003028242221300000300888884830000018202020110E000000C02025
:2065500010F8000000070424243F240000F80888880808000019212020110E0000E010883C
:2065700088180000000F112020110E0000380808C83808000000003F00000000007088085D
:2065900008887000001C222121221C0000E010080810E0000000312222110F00000000C0E8
:2065B000C0000000000000303000000000000080000000000000806000000000000080408B
:2065D000201008000001020408102000404040404040400004040404040404000008102020
:2065F000408000000020100804020100007048080808F0000000003036010000C030C82885
:20661000E810E0000718272423140B000000C038E0000000203C23020227382008F88888FC
:2066300088700000203F202020110E00C030080808083800071820202010080008F8080885
:206650000810E000203F202020100F0008F88888E8081000203F20202320180008F888883A
:20667000E8081000203F200003000000C03008080838000007182020221E020008F808009F
:206690000008F808203F210101213F20000808F8080800000020203F2020000000000808F9
:2066B000F8080800C08080807F00000008F888C028180800203F20012638200008F808006D
:2066D00000000000203F20202020300008F8F800F8F80800203F003F003F200008F830C0BE
:2066F0000008F808203F200007183F00E01008080810E0000F10202020100F0008F80808FF
:206710000808F000203F210101010000E01008080810E0000F18242438504F0008F8888898
:2067300088887000203F2000030C302000708808080838000038202121221C00180808F8AB
:20675000080818000000203F2000000008F808000008F808001F202020201F0008788800AC
:2067700000C83808000007380E010000F80800F80008F800033C0700073C03000818688027
:206790008068180820302C03032C30200838C800C83808000000203F20000000100808082C
:2067B000C83808002038262120201800000000FE020202000000007F40404000000C30C08B
:2067D00000000000000000010638C00000020202FE000000004040407F0000000000040261
:2067F000020204000000000000000000000000000000000080808080808080800002020479
:2068100000000000000000000000000000008080808000000019242222223F2008F80080E6
:2068300080000000003F112020110E000000008080800000000E1120202011000000008089
:206850008088F800000E112020103F200000808080800000001F222222221300008080F0B0
:20687000888888180020203F202000000000808080808000006B94949493600008F800807F
:2068900080800000203F210000203F2000809898000000000020203F2020000000000080FA
:2068B0009898000000C08080807F000008F8000080808000203F24022D302000000808F84F
:2068D000000000000020203F202000008080808080808000203F20003F20003F80800080CC
:2068F00080800000203F210000203F200000808080800000001F202020201F00808000804B
:206910008000000080FFA12020110E000000008080808000000E112020A0FF80808080006A
