:2000000000802020014900005F1400005F14000000000000000000000000000000000000F0
:200020000000000000000000000000005F14000000000000000000005F1400005F14000067
:200040005F140000E14700005F1400005F1400005F1400005F1400005F1400005F14000053
:20006000000000005F1400005F1400000000000000000000B54400005F1400005F140000BB
:200080005F1400005F140000910A00005F1400005F1400005F140000000000000000000086
:2000A0005F1400005F14000000000000000000005F140000000000005F1400005F14000001
:2000C000F0B5FFB08EB0049306920646929802900025E84305908C913468204604F0D7FB8D
:2000E00021188B9503918C4200D3BBE00020879087A908738890059889902F46049D207879
:20010000002800D1AFE0252805D0641C34600699A8477F1CF3E78B97601C306087AC204657
:20012000314600F0A7F88CAA2046314600F0BFF8306801787A2925D0682919D06A2908D071
:200140006C290ED0742908D04C2922D1879980221BE087990122D20217E0879901225203EC
:2001600013E0427887996C2A64D10122120205E042788799682A60D101225202114387914B
:20018000801C05E08799012212030A438792401C0178441C346087A8017373291FD06E2992
:2001A00029D1879832490840202850D040283CD001214A03904238D04A02904242D0CA0242
:2001C000904205D00A0390422FD0090288422CD1F8178C9904C98C91176050603BE087A839
:2001E0000078400619D4009587A88CAA8BAB069900F01DF92FE007AD87A98CAA284600F0F8
:200200006DF9024628460699029B9847411C059D00D0C5198B9503991FE0009587A88CAA45
:200220008BAB069900F09FF815E08C9802C88C900F6010E0401C402201E0401C2022114373
:200240008791A5E78C9802C88C900F7003E08C9802C88C900F8003998B9D681C00D042E7B4
:20026000059F00E02F4638467FB00EB0F0BDC046603F000010B50A681378302B0FD0232B7E
:2002800007D02B2B09D02D2B05D0202B0ED1042306E0082304E0012302E0022300E01023A7
:2002A00004681C430460521C0A60E5E710BDFEB516460D460446086802782A2A10D130683B
:2002C000011D316000686060002805D54042606020680121014321602868471C2F6017E01B
:2002E0000021303A092A08D84218531C2B60435C6F467B545278491CF3E76A460023535466
:2003000012784718002A03D0684604F001F8606038782E2826D1781C286079782A2908D166
:200320003068011D31600068A0602868401C2860FEBD00203039092908D839188A1C2A60C3
:200340004A786B461A548978401CF3E76A46002111541078002804D0684603F0D9FFA06052
:20036000FEBDA160FEBDF0B587B01E460C9F13681C1D14601D68002D3BD00491069084681F
:20038000002C04D4284604F06BFA844203D3284604F066FA044606984068A042039000DC53
:2003A000204601463068019140180296306005940398A0420EDD06980078C0070AD1059890
:2003C00001990E1A0024B44204DA20200499B847641CF8E70026049C069805998E420BDA71
:2003E0002868010A19D12D1DC0B22146B847761CF2E70020B84718E00599039A8A4214DDDC
:200400000078C00711D00198451A0024AC420CDA20200499B847641CF8E70020C0430299D3
:20042000086004F05DFA5821016007B0F0BDF0B585B00C4606460A9D1068011D116000683D
:200440000490002844D00393B768002F04D4049804F01DFA874203D3049804F018FA0746DB
:2004600002967268BA42114600DC3946039B18680091401818600192BA420FDD0298007850
:20048000C0070BD10098C01B039000260398864204DA20202146A847761CF7E70026BE4220
:2004A00005DA0498805D2146A847761CF7E70198B84210DD02980078C0070CD00098C61B70
:2004C0000027B74207DA20202146A8477F1CF8E700202146A84705B0F0BDC046F0B589B04F
:2004E00001920F460446FF210846FA30251878680290002607960391FE31202220460092C3
:2005000004F0BEF97F20800006942118089104952E713D46387B0246613A172A2AD80123ED
:2005200093402C46B44D2B42254608D007A908AA2846019B00F066F900260596B3E0712520
:200540002B42254622D1022A14D1019B1868021D1A600068C2B2534253410593039AFC32A2
:20056000069B9A18089208702868022188432860002698E001464539032907D3252860D02A
:20058000412803D058280596D0D08DE0019A1068C11D0720814308460830106005C9D14343
:2005A0002F7B4900490D0BD17B3F944911400143049C2CD01920C1438F4234D36E2033E098
:2005C000002A01D4114602E00121C9075140D60F002205923A46413A062A0BD9613F062FDE
:2005E00061D8C0467F443F797F00BF440B5C5C5C3B3631007A441279520097440354545489
:20060000332E290008AB2A4601F04CF84BE0002311461A46059303F057FB1921C9438F42FF
:2006200025D3662224E04E20E0708F4201D3612100E04121A17008946070002005900226B5
:2006400031E0002006994870252008700120A1E008AB2A4601F03CFB25E008AB2A4603F04D
:2006600045FC20E008AB2A4602F07EF81BE04622E2708F4201D36E2200E04E22A2708F4291
:2006800001D3692100E0492161703F21C900069A51180891002803D02D202070042602E032
:2006A0002B2020700326287B012701466F39092904D801228A4052490A4201D158286BD10C
:2006C000049B029C04972946069F3D1908980C460978C90707D1191D091A62689142069F22
:2006E00001DC691A4F1C411C0398430000263846324603F0DFFF08900599002903D0411C78
:200700000891067000E00146A94206D8481E691A491C202204F0B4F82E702078C00605D4D5
:200720000698391A202204F0ABF82EE0069887422BD00698391A3026324604F0A1F8079894
:200740004142414104980140012905D12078400702D43846069905E03878069A511C1070C3
:20076000781C3E70227B412A0CD0582A05D0612A08D0782A01D0702A07D123781B0701D422
:20078000612A02D142784A704670069804F07FF80599401809B0F0BD002E09D0012E049B97
:2007A000029C8FD10120079029680220084007E0079A296802200840002A09D0049B029CC5
:2007C00008994A1E08922D220A704742474179E70028049B029C08D1480700D472E70898E2
:2007E000411E0891009901706CE70898411E08912B210170002765E708C19000FFFF0F0076
:2008000043020000F8B514460F4605468068002804D4286810218843286001E00120A860E6
:20082000287B1026582808D0782806D0702804D06F2801D1082600E00A262846194600F041
:2008400055F8AA68002A09D102460A4306D12878000749D52B7B0020024612E02B7B642BCF
:2008600003D1642300290BD504E0692B08D1002906D5692301223A60002240428A4100E027
:200880000A4600941146324600F0B0F8A968884206DA401C21684A1E226030220A70F5E7DB
:2008A000287B582803D0782801D070280FD1297809070CD5702800D1782021684A1E226053
:2008C00008702068411E216030210170287B6F280AD12878000707D520684178302903D071
:2008E000411E216030210170F8BDC04610B5037B702B05D10868021D0A60006800226FE015
:200900000068384A024001204403A24222D0402A20D00402A24230D04402A24246D0C40223
:20092000A2422AD00403A24214D0202A12D100221C46643C142C06D8A0402B4C204204D10D
:20094000212420423ED1582B49D10868031D0B60008845E000221C46643C142C06D8A0407A
:20096000214C204204D1212420422BD1582B36D10868031D0B60006832E01A46643A142AF5
:2009800006D89040184A104206D12122104203D10020582B024623D10868C21D072082439B
:2009A0001046083008601068526819E000221C46643C142C0CD8A0400B4C20420AD1212415
:2009C000204205D00868021D0A600068C21707E0582B04D10868031D0B60007800E01046BE
:2009E000114610BD603F000000081200FEB501920D460646582B01D0174800E015480090B5
:200A0000089802903046284305D1029A1068411E116030210170019C3046284313D0304670
:200A20002946224600F01AF807460D46224603F02FFE301A0099085C029B19684A1E1A606E
:200A400008703E46E8E70298006803F020FF401EFEBDC046585000006950000080B5102AC8
:200A600006D0082A09D1C0084A078018C90880BD00090A078018090980BD002904D111467F
:200A800003F006FC002180BD002303F0B3FE80BDF0B587B0F8480068C0B2012800D0E9E146
:200AA0000120069003F0CCFD4042F44C2080022003F0C6FDF249088000210591615EF14B14
:200AC0001A685118196000B2EF4B1A6814181C604120C6000846314603F034FA03F086FD19
:200AE000EA4AEB4B02F0E2F905460F46E948056041602046314603F025FA03F077FDE34A65
:200B0000E34B02F0D3F9E44A03C2E44E3078012864D1E34903C903229307002422460493E4
:200B200001F0A5FA02460B462846394603F0E0F8002804D103F06AFB002800D1C2E1D948C2
:200B4000012101703470D8480470D8480470D8480178D8480078421E5042504101290699B9
:200B600000D00146012939D101F0C0FC01F044FB400002F0FFFC03F0DDFACF4908600028AE
:200B800009D1C04B1968C04C22685118CA0F891849101960216003F029FD04460D46C7485E
:200BA00004604160C64903C922462B4601F05AFA03F0C0FAFB4E3060FB4903C922462B46C8
:200BC00001F055FA03F0B6FAF84C20603046214603F0F4FC3068216803F004F8F44F3878AB
:200BE000012862D1B2480178B2480078421E504250410129069900D00146012939D101F02C
:200C000075FCF648006803F063FB0246E9480B4600F026FC02F00CFFE84B1968E84C226821
:200C20005118CA0F8918491019602160F64990C903F04EFB05460E4620463946F44F2A4673
:200C4000334601F014FA03F075FAE74C2060EF4903C92A46334601F005FA03F06BFAE44DA1
:200C600028602046294603F0A9FC2068296802F0B9FFD44860C8D44903C90024E54B2246D3
:200C800001F0F5F902460B462846314603F030F800280AD03C70CE48047003F049FD03F078
:200CA00055FDD6480168491C0160DB480078012847D1D3480178D3480078421E504250410F
:200CC0000129069900D0014601293AD101F00EFCCD4903C903F02EFAC34C2060CB4903C998
:200CE00003F028FAC24D28602046294603F066FC2068296802F076FFC84830C8C84AC94B70
:200D00002046294601F0B3F9AE4AC0CA32463B4602F0DAFF002807D13046394622462B464D
:200D200002F0F0FF00280CD003F002FD03F00EFD0599B9480170A6480170B0480168491CA9
:200D40000160AD48007801289B4F00D092E003F02FFD03F02DFDAA480178AA480078421EFF
:200D600050425041012900D00690069801287FD101F01AFE9B4903C903F0DCF99A4C2060C2
:200D80009A4903C903F0D6F9994D28602046294603F014FC2068296802F024FF8D48856AAA
:200DA000C46A002228462146134602F0ABFF002820D08A48006803F08BFA07460691002645
:200DC0009A4B28462146324601F051F93A467A4F069B02F083FF00284AD003F0A9FC03F07B
:200DE000B5FC854806707A48067084480168491C01603DE0002228462146134602F064FF0A
:200E0000002835D07548006803F062FA07460E4601208307002206922846214601F027F945
:200E200005973A460496334602F062FF0746032083072846069D21462A4601F018F9002F1D
:200E40005D4F15D0059A049B02F048FF00280FD0754C2068411C2160092809DB03F068FCF0
:200E600003F074FC64480570594805702560BCE70120B86207B0F0BD201086407406202061
:200E8000760620206C06202070062020624A24D1CB282E4010062020180620207C062020B6
:200EA000F00520207F0620207E06202083062020800620208106202060062020F80520203B
:200EC0002006202041480078012867D1414F0024414B38462246039403F00AFD3F480068A4
:200EE00003F004FB03F082FB024638460B4601F04BFA3B4B224603F0CEF83A4903C903F05A
:200F000019F9394C2060394903C903F013F9384D28602046294603F051FB2068296802F041
:200F200061FE2E48006803F0D3F906460C463846BF6AC16A0291012083073846039D2A4679
:200F400001F095F8019632460094234602F0D0FE0646384602992A46049B01F088F8002E34
:200F600000D1F4E5019A009B02F0B8FE002800D1EDE5204C2068411C2160092800DAE6E576
:200F800003F0D6FB03F0E2FB1B4805701048057025601A480168491C0160D8E50C480121CF
:200FA0000170D2E56406202028062020680620207B06202020042020201086406C06202076
:200FC0007006202010062020F00520207F0620207E062020A804202000706640EC05202014
:200FE0000000594030062020640620203806202068062020580620207A0620205C0620200C
:20100000800620208106202020062020280620207B062020000014C07D0620204806202089
:201020009A9999999999B9BF54062020000028C0F0B583B001F050FE7825284600F042FCCF
:201040000024204600F03EFCAE2000F03BFC02F047F901F041FE284600F034FC204600F0A1
:2010600031FCD52000F02EFC02F03AF901F034FE284600F027FC204600F024FC802000F065
:2010800021FC02F02DF901F027FE284600F01AFC204600F017FCA82000F014FC02F020F955
:2010A00001F01AFE284600F00DFC204600F00AFC3F2000F007FC02F013F901F00DFE2846AA
:2010C00000F000FC204600F0FDFBD32000F0FAFB02F006F901F000FE284600F0F3FB20466C
:2010E00000F0F0FB204600F0EDFB02F0F9F801F0F3FD284600F0E6FB204600F0E3FB402040
:2011000000F0E0FB02F0ECF801F0E6FD284600F0D9FB204600F0D6FBA12000F0D3FB02F090
:20112000DFF801F0D9FD284600F0CCFB204600F0C9FBC82000F0C6FB02F0D2F801F0CCFDC3
:20114000284600F0BFFB204600F0BCFBDA2000F0B9FB02F0C5F801F0BFFD284600F0B2FB65
:20116000204600F0AFFB122000F0ACFB02F0B8F801F0B2FD284600F0A5FB204600F0A2FB73
:20118000812000F09FFB02F0ABF801F0A5FD284600F098FB204600F095FBCF2000F092FBB9
:2011A00002F09EF801F098FD284600F08BFB204600F088FBD92000F085FB02F091F801F08F
:2011C0008BFD284600F07EFB204600F07BFBF12000F078FB02F084F801F07EFD284600F038
:2011E00071FB204600F06EFBDB2000F06BFB02F077F801F071FD284600F064FB204600F0A0
:2012000061FB302000F05EFB02F06AF801F064FD284600F057FB204600F054FBA42000F02A
:2012200051FB02F05DF801F057FD284600F04AFB204600F047FBA62000F044FB02F050F86C
:2012400001F04AFD284600F03DFB204600F03AFB8D2000F037FB02F043F801F03DFD2846A0
:2012600000F030FB204600F02DFB142000F02AFB02F036F801F030FD284600F023FB20466C
:2012800000F020FBAF2000F01DFB02F029F800940294E0B20190009D294602F03BFC01F0E6
:2012A0001BFD7826304600F00DFB4027384600F009FB0024204600F005FB02F011F801F0CB
:2012C0000BFD304600F0FEFA384600F0FBFA204600F0F8FA02F004F801F0FEFC304600F0BE
:2012E000F1FA384600F0EEFA204600F0EBFA01F0F7FF01F0F1FC304600F0E4FA384600F0FB
:20130000E1FA204600F0DEFA01F0EAFF01F0E4FC304600F0D7FA384600F0D4FA204600F050
:20132000D1FA01F0DDFF01F0D7FC304600F0CAFA384600F0C7FA204600F0C4FA01F0D0FF24
:2013400001F0CAFC304600F0BDFA384600F0BAFA204600F0B7FA01F0C3FF01F0BDFC3046BD
:2013600000F0B0FA384600F0ADFA204600F0AAFA01F0B6FF01F0B0FC304600F0A3FA384600
:2013800000F0A0FA204600F09DFA01F0A9FF01F0A3FC304600F096FA384600F093FA204656
:2013A00000F090FA01F09CFF01F096FC304600F089FA384600F086FA204600F083FA01F009
:2013C0008FFF01F089FC304600F07CFA384600F079FA204600F076FA01F082FF01F07CFCAB
:2013E000304600F06FFA384600F06CFA204600F069FA01F075FF01F06FFC304600F062FA0E
:20140000384600F05FFA204600F05CFA01F068FF01F062FC304600F055FA384600F052FA43
:20142000204600F04FFA01F05BFF01F055FC304600F048FA384600F045FA204600F042FA99
:2014400001F04EFF10356DB2002D00D427E7029C641C0198072800D21AE703B0F0BDFEE7DD
:20146000F0B587B0014602634363806A0691C96A00F0F8FD05460E460022814B02F042FCE8
:2014800000282DD07E4C0027284631463A467D4B00F0EDFD05460E463A46234602F032FC87
:2014A00000281DD00027284631463A46754B00F0DEFD05460E463A46234602F023FC00283F
:2014C0000ED00027284631463A466E4B00F0CFFD05460E463A46234602F014FC0028D2D1D8
:2014E00006988565C6650024674B28463146224602F0EAFB0028059431D0634C0027284639
:2015000031463A46614B00F0B2FD05460E463A46234602F0D9FB00281DD00027284631461A
:201520003A465A4B00F0A3FD05460E463A46234602F0CAFB00280ED00027284631463A4625
:20154000524B00F094FD05460E463A46234602F0BBFB0028D2D106988565C665059C0120FD
:20156000C007314681434A4B2846224602F0ACFB00282746204625D006980CC8284631461E
:2015800000F075FD04900C460027424B3A4602F0B9FB0390404A04980294214614463A4699
:2015A000234602F091FB0028394600D10499002800D1029C039A002A364800D12046002AF2
:2015C00000D10F460290069C27606060226963692846314601F06AFC049003912064616466
:2015E000A269E3693846029901F060FC02900191A064E164276A606A0090226E636E284607
:20160000314600F02FFD02460B463846009901F04DFC00900F462065616504980399029A49
:20162000019B00F024FD009A3B4600F020FD044603911A4B059F3A4602F064FB0490184B26
:2016400002942046039C21463A461F4602F03CFB002800D1274600280598024600D1029A9A
:20166000049B002B0D4900D11046002B00D13946069A9063D1631566566607B0F0BDC04640
:2016800000806640008076C0008066C0008076400000244000004940000049C000409F407D
:2016A00000409FC0F0B5A5B0049308920E46074600240A947E4D22462B4602F019FB00282B
:2016C00013D100247B4D3846314622462B4602F005FB002809D1002238463146134602F016
:2016E000E9FA00283C46354607D10AAA2046294602F0A2FB0A98401E0A900899087B0BAE7B
:20170000412801D06D4800E06B4809908868019030200390307000220792204629461346C1
:2017200002F0D2FA01210028029101D0C8074540771C20462946079A134602F0BBFA0028B8
:201740000DD124AA2046294602F076FB249801210A1A2046294601F089FC04460D46204655
:20176000294602F0E7FC06463946059702F092FB0690304602F03AFF03F09BF804460D46E5
:201780000198471C20D3059806994618002220462946134602F08EFA002848D1002220462D
:2017A0002946474B01F082FB04460D4602F0C2FC0999095C771C317002F018FF03F079F8C5
:2017C00004460D463E46E1E70BA806994618002F16D07F1E002220462946394B01F066FBF1
:2017E00004460D4602F0A6FC0999095C3246761C517002F0FBFE03F05CF804460D46E6E74A
:201800003178099C204602F0FFFF001B08280EDB0196741E089D079F099E2178304602F0D4
:20182000F3FF801B0E2805DD2770641EF5E7089D079F04E00999081840782070019E37708F
:201840000A98297B4129049C01D0702100E05021069E059F224602F0F5FBAA68501C04D1A0
:20186000384603F014F8421EAA6038463146234602F08CFEA8680028029A02D12868000769
:20188000C20F38463146234602F0E0F9287B412801D0782000E0582021684A1E2260087096
:2018A0002068411E21600399017025B0F0BDC0460000F07F0000F0FF58500000695000006C
:2018C00000003040F0B583B00190002703E0BF1C082F00D1BDE00198B840000601D57A4876
:2018E00001E07948103002250560032602960298411E0291002813D0502002F0D5FF029852
:20190000411E029100280BD0502002F0CDFF0298411E0291002803D0502002F0C5FFE6E72A
:2019200001246948046002960298411E0291002813D0502002F0B8FF0298411E0291002871
:201940000BD0502002F0B0FF0298411E0291002803D0502002F0A8FFE6E75B48046102969E
:201960000298411E0291002813D0502002F09CFF0298411E029100280BD0502002F094FF4F
:201980000298411E0291002803D0502002F08CFFE6E73846204301998140080601D54A4854
:2019A00001E049481030056002960298411E0291002813D0502002F077FF0298411E02917D
:2019C00000280BD0502002F06FFF0298411E0291002803D0502002F067FFE6E73A48046032
:2019E00002960298411E0291002813D0502002F05BFF0298411E029100280BD0502002F00B
:201A000053FF0298411E0291002803D0502002F04BFFE6E72C48046102960298411E029177
:201A2000002800D153E7502002F03EFF0298411E0291002800D14AE7502002F035FF0298EE
:201A4000411E0291002800D141E7502002F02CFFE3E71D48046002960298411E0291002807
:201A600013D0502002F020FF0298411E029100280BD0502002F018FF0298411E0291002846
:201A800003D0502002F010FFE6E70F48046102960298411E0291002813D0502002F004FFE5
:201AA0000298411E029100280BD0502002F0FCFE0298411E0291002803D0502002F0F4FE60
:201AC000E6E703B0F0BDC04690120A40F0B583B0144640000290801EC9000839C0B2C9B24E
:201AE000019102F017F820017749401877494618475C01F0F1F878242046FFF7E3FE402541
:201B00002846FFF7DFFE3846FFF7DCFE01F0E8FB777801F0E1F82046FFF7D4FE2846FFF717
:201B2000D1FE3846FFF7CEFE01F0DAFBB77801F0D3F82046FFF7C6FE2846FFF7C3FE384622
:201B4000FFF7C0FE01F0CCFBF77801F0C5F82046FFF7B8FE2846FFF7B5FE3846FFF7B2FEAF
:201B600001F0BEFB377901F0B7F82046FFF7AAFE2846FFF7A7FE3846FFF7A4FE01F0B0FBAC
:201B8000777901F0A9F82046FFF79CFE2846FFF799FE3846FFF796FE01F0A2FBB77901F01B
:201BA0009BF82046FFF78EFE2846FFF78BFE3846FFF788FE01F094FBF77901F08DF82046F7
:201BC000FFF780FE2846FFF77DFE3846FFF77AFE01F086FB0298401EC0B2019901F09AFFC6
:201BE0003746367A01F078F82046FFF76BFE2846FFF768FE3046FFF765FE01F071FB7E7AA4
:201C000001F06AF82046FFF75DFE2846FFF75AFE3046FFF757FE01F063FBBE7A01F05CF871
:201C20002046FFF74FFE2846FFF74CFE3046FFF749FE01F055FBFE7A01F04EF82046FFF74E
:201C400041FE2846FFF73EFE3046FFF73BFE01F047FB3E7B01F040F82046FFF733FE2846F0
:201C6000FFF730FE3046FFF72DFE01F039FB7E7B01F032F82046FFF725FE2846FFF722FE6D
:201C80003046FFF71FFE01F02BFBBE7B01F024F82046FFF717FE2846FFF714FE3046FFF70B
:201CA00011FE01F01DFBFE7B01F016F82046FFF709FE2846FFF706FE3046FFF703FE01F06B
:201CC0000FFB03B0F0BDC0461049000000FEFFFFF0B5A3B003930F4604460492916800295A
:201CE00003D0002904D5062100E001210498816007910AA8302108910170002520463946BA
:201D00002A462B4601F0E0FF01210028059101D0C8074740624E20463946604A334601F062
:201D2000F1FF002809D00022204639465E4B00F0CBFE04460F466D1CEDE75A4E002220461D
:201D400039460992134601F0B5FF002811D1002220463946334601F0B7FF002809D0002217
:201D600020463946504B01F0A1F804460F466D1EE4E702950AA8451C2046394602F0DAF910
:201D80000695294602F086F807998842019004DD481C0AA90A18085C1FE0C9430E180AA96C
:201DA0000D18681C07902046394602F0C3F902F01DFC02460B462046394600F053F9002269
:201DC000394B01F073F804460F4602F0B3F9079A30306870761C1546E3D3C0B23528039EFA
:201DE000049F029B099D0FD31446501E0178491CCAB201703A2A03D330210170401EF5E752
:201E00000AA98842224640D00198C41815700220C043844202DBB868844207DD601E397B0F
:201E2000891EC9B2324602F00DF90124069802F02EFD401E0599A0421ADB0028089A01D4BE
:201E4000069A125C1346303B5D1EAB41C9431943C90705D13978090702D40025059905E0FC
:201E600031684B1E33600A7001250021401EE2E73868082202402A43501E82410698214636
:201E8000334601F0E3FE23B0F0BD501E002101700198C018441C0AA80690B8E70000C0FF00
:201EA000FFFFDF410000F03F000024408CB002F0CFF902F07DFC02F087FC0024089409943E
:201EC0000A940B940794069405940494039402944E4E019600944E484E4D22462B4601F070
:201EE0002DFD089409940A940B9400940196029403940494059406940794474822462B461C
:201F000001F01CFD089409940A940B94009401940294039404940594069407943F48404D71
:201F2000404E2A46334601F009FD089409940A940B9400940194029403940494059406949C
:201F40000794394F38462A46334601F0F7FC089409940A940B9400940194029403940494AF
:201F600005940694079438462A46334601F0E6FC089409940A940B9400940194029403948D
:201F800004940594069407942848294B2A4601F0D5FC089409940A940B9407940694059481
:201FA0000494244803902448029024480190244800902448244A254B01F0C0FC0894099463
:201FC0000A940B94009401940294039404940594069407941E481F4B224601F0AFFCFFF73E
:201FE00027F802F035FC1C4E1C4C1D4D306802F06FF902460B462046294602F093FA002064
:202000002021224601F0C9FFF0E7C046000021401003202000001840980320200002202058
:20202000333333333333D33F88022020A80420203333F33FF3FDC43FCBA145B67493683F06
:20204000FA7E6ABC780120209A99999999993F402004202000207240EC052020B8052020AF
:202060008E500000FCB40124E407634002E0FCB40124E40708B41D03ED08D60D35435602F9
:202080005F007F0D06D12C00344300D0AEE001B0FCBC7047A408254307242402FF34A742DC
:2020A00005D10020190D090501B0FCBC7047002B03D50024A61BAC4125000B03DB08C20D1C
:2020C000134342024800400D07D11C00144300D08CE00EBC1000F0BC704701246407234317
:2020E00007242402FF34A04205D10020090D090501B0FCBC7047002903D50024A21A9C4182
:202100002300C11B08D51C002B0025001400320026000024611A3800362925D502B43939B3
:2021200049420C00203C03D22F008F40374301E03700A740002F01D040210E4302BC2029A7
:202140000BD500290ED04C42203420B4A5402C0020BC0D41CE40361904E000292E000D41C1
:2021600020390E4192196B411C0014433ED00024002B04D5012400218A1A99410B00401E8A
:2021800052005B41FBD50121890215000D400CD0521800277B4101D3401C0BE00721C9013C
:2021A00015000D4001D189008A43072109028A4352005B41801C19DD07210902FF318842E8
:2021C00009D30EBC0020C90F0902FF31C900C91D0905F0BC7047190B00050143E40721434A
:2021E0001805120B104301B0FCBC70470021002001B0FCBC70477047F0B587B0594908682C
:202200004003C00F0A681203D50F574A13689B02DB0F009313685B02DB0F01930B68DB0265
:20222000DB0F02930B681B02DB0F03930968C901C90F049111680902C90F059102F088F803
:2022400006464A4901F074FA0021069100F07FFF0446284602F07CF80746454901F068FACE
:20226000214600F074FF05463046394600F06FFF0646009802F06CF80746FD20810538464E
:2022800001F056FA294600F062FF05463046394600F05DFF0646019802F05AF807467D209E
:2022A000C105384601F044FA294600F050FF05463046394600F04BFF0646029802F048F86B
:2022C00004462C4901F034FA294600F040FF05463046214600F03BFF0646039802F038F827
:2022E0000446254901F024FA294600F030FF05463046214600F02BFF0646049802F028F84D
:2023000004461E4901F014FA294600F020FF05463046214600F01BFF0646059802F018F872
:202320000446174901F004FA294600F010FF074630462146069C00F00AFF05463846294699
:2023400001F03CFA0F4901F0F3F902F0CFF806462846214601F0E0FC002800D134462046A1
:2023600007B0F0BD80330A4080130A400000E03F0000A03F000080BE000040BF0000A0BF85
:202380000000E0BF00007A44F0B587B0044602634363806AE16AFFF765FE06460F46A0657B
:2023A000E16500254B4B2A4601F0ACFC0028059701D0494B09E00025484B304639462A46E4
:2023C00001F082FC00280AD0454B304605992A46FFF74DFE06460D46A065E16500E0059DCB
:2023E00000273F4B304629463A4601F081FC00280AD10022384B3046294601F06FFC002848
:2024000002D10CCC083C05E0A765E7653A463B463E463D460696304605952946FFF727FE52
:2024200006460D462F4B3A46049301F06BFC02902D4B304629463A46039301F045FC0028B5
:2024400000D103950028384600D130460299002900D107460029069901D1039804902760F4
:20246000049D6560226963690846059E314600F01DFD0390029120646164A069E1693A46EB
:202480002B4600F013FD04900191A064E164276A656A226E636E06983146FFF7E3FD024668
:2024A0000B463846294600F001FD07460D462065616503980299049A019BFFF7D8FD3A464A
:2024C0002B46FFF7D4FDA063E163069A2266666607B0F0BD00806640006076C0008066C0C3
:2024E0000060764000408F4000408FC0F0B581B03B480078012805D03A480078012801D065
:2025000001B0F0BD38480178491CCAB20170022A20D3002404703548006802F067F80246DD
:2025200033480B4600F089FF324D22462B4601F0B2FD314A03C23148006802F057F80246B5
:202540002F480B4600F079FF22462B4601F0A3FD2C4A03C228480CC82B4802F0C9F92948CA
:202560000CC82A4802F0C4F929480025405F02F03DF8284F2A463B4600F098FC264C2A463C
:20258000234600F093FC254E2A46334600F09CFA01F0D0FD02F02AF802461B480B4600F0B3
:2025A00073F91F4A03C21F48405F02F01FF82A463B4600F07BFC2A46234600F077FC2A466E
:2025C000334600F081FA01F0B5FD02F00FF802460E480B4600F058F9134A03C201B0F0BDCB
:2025E0008006202081062020820620206C06202000022020000059400006202070062020FD
:20260000880220200806202010032020980320207406202000408F4000004E400050C440C9
:20262000200620207606202028062020F0B587B01D46164630240590047000271046194636
:202640003A463B4601F040FB0028019402D00120C00745400D9804900C9803903F4C3046E0
:2026600029463D4A234601F04DFB002809D00022304629463B4B00F027FA06460D467F1CE9
:20268000EDE70598441C0022304629460692134601F010FB002811D1002230462946304BE9
:2026A00001F012FB002809D00022304629462D4B00F0FCFB06460D467F1EE4E70398C0193A
:2026C00003903046294601F035FD214601F0E2FB02942418C019049908600398471C012F4C
:2026E0001ADB3046294601F025FD01F07FFF02460B4630462946FFF7B5FC0022194B00F0E3
:20270000D5FB06460D4601F015FD3030611C20707F1E0C46E5D100E02146481E0278352AAF
:202720000DD3891E019C0A78521CD3B20A703A2B02D30C70491EF6E7059A914204D00699A7
:202740000170029807B0F0BD0699017004990868401C08600598F5E70000C0FFFFFFDF41D3
:202760000000F03F00002440F0B5A1B0049305469068002801D50620906002900392002497
:202780003D4F2846224606913B4601F0B1FA06990028264614D10026384F284632463B46F7
:2027A00001F09CFA069900280AD1002228460592134601F07FFA069B00282E461F4622D171
:2027C0002F4D02F083F801F07FFA002809D00022304639462B4B00F069FB06460F46641EA1
:2027E000EFE7284D02F072F801F082FA002807D002F06CF800F068F906460F46641CF1E726
:2028000035463B46059407A802990091019008A82A46FFF70BFF0446079D022D0DD1059DFA
:202820006D1C204602F033F82018401E0021017028460125049E039F02E0049E039F0598C9
:20284000397B324601F0FEFBBA6820462946334601F09CFE204602F01AF8854203D13868C2
:202860000007C20F00E0012220462946334601F0EDF921B0F0BDC0460000F07F0000F0FF76
:202880000000F03F00002440F0B587B0044602634363806AE16AFFF7E5FB06460D460027A3
:2028A0003D4B3A4601F010FA06903C4B304629463A4601F027FA00283A4600D132460699F1
:2028C000002900D1324600283B4600D12B46002900D12B46A265E36503CC05920693083C9E
:2028E000FFF7C5FB06460D462D4B3A4601F00AFA04902C4B304629463A46039301F0E4F9C2
:202900000028394600D13146002800D1039504980028059A069B224D00D1039D002800D15A
:202920000F462760656020696169164600F0BEFA0490039120646164A069E1693A462B46EA
:2029400000F0B4FA02900F46A064E164256A606A0190226E636E30460699FFF783FB02468D
:202960000B462846019900F0A1FA06460D462065616504980399029A3B46FFF778FB324653
:202980002B46FFF774FBA063E163059A2266069A626607B0F0BDC0460000E03F0000E0BF63
:2029A00000408F4000408FC0F0B581B03648007836490978014364D035480178491CCAB25E
:2029C0000170012A15D9002404703348006801F08DFD01F00BFE024630480B46FFF7D4FCA6
:2029E0002F4B224601F057FB02462A480260416002E02848026841680120C3074B402948A9
:202A000001F076FF23480CC8274801F071FF27480025405F01F0EAFD254F2A463B4600F0E1
:202A200045FA244C2A46234600F040FA224E2A46334600F049F801F07DFB01F0D7FD0246E4
:202A400018480B46FFF720FF1C4A03C21C48405F01F0CCFD2A463B4600F028FA2A462346EC
:202A600000F024FA2A46334600F02EF801F062FB01F0BCFD02460C480B46FFF705FF114A0F
:202A800003C201B0F0BDC04680062020810620208406202040062020EC052020A804202013
:202AA0000000594010032020980320207406202000408F4000004E400050C440300620202E
:202AC0007606202038062020FCB40C005C40E40FE40710B41D032D0B56006D415F007F0D7B
:202AE00073D001246405254307242402FF34A74261D00B031B0B42005B414800400D64D024
:202B000001246405234307242402FF34A04252D0C01B002100273624AB4200D1B24204D333
:202B20007F414941921BAB4101E07F414941641E06D0002B01D1002A02D052005B41EBE776
:202B4000202C07D2162C0AD33900A7402026361BF1400BE0203C3900A140002706E0A140FA
:202B60002026361B3D00F5402943A74001246405214202D17F004941401E00247F1C61416D
:202B80000124A405214202D0401CA14301E06408A14303242402FF34001916DD2419A04216
:202BA00009D8CC074908000501437808204310BC2143FCBC704702BC0020C90F0902FF2164
:202BC000C900C91D0905FCBC70470021002001B0FCBC7047F0B5394A8218394BC0183A4DC3
:202BE0004C790B79002C22D0466F202B02D00524E70100E0354F2E40002B00D188273E438D
:202C00004667846F2C403C438467446B2D4E34404463846B3440846300244465846554683D
:202C20008F26F643344054609468344094600C688979202B09D006467036002B15D1641EFB
:202C40004460C46E2C40882715E0641E4460C46E2C401E4E3443C466046F2C4034430467FC
:202C60001B4D01246707064607E00527FF0164084460C46E2C403C43C46634682C403C431C
:202C80003460C46A0F4D2C40C462046B2C4004630024C4640465C46F8F25ED432C40C467DF
:202CA00014682C401460194302680A4B1340BD220A40D118891C0160F0BDC04684180000E3
:202CC000041800008888FDFF24493E0001040000FFFFFFCF4000FFCFF0B581B0384C0226C0
:202CE0002660032500950098411E0091002813D0502001F0D9FD0098411E009100280BD03C
:202D0000502001F0D1FD0098411E0091002803D0502001F0C9FDE6E7012727600095009831
:202D2000411E0091002813D0502001F0BDFD0098411E009100280BD0502001F0B5FD009847
:202D4000411E0091002803D0502001F0ADFDE6E7266100950098411E0091002813D0502091
:202D600001F0A2FD0098411E009100280BD0502001F09AFD0098411E0091002803D050204D
:202D800001F092FDE6E7276100950098411E0091002813D0502001F087FD0098411E0091C9
:202DA00000280BD0502001F07FFD0098411E0091002803D0502001F077FDE6E701B0F0BDB0
:202DC00090120A40B0B5364A80184A6842600A78222A56D8930001A4E3589F46792E00003B
:202DE000832E0000792E0000832E0000832E0000832E0000832E0000832E0000832E000055
:202E0000832E0000832E0000832E0000832E0000832E0000832E0000832E0000692E000044
:202E2000832E0000692E0000832E0000832E0000832E0000832E0000832E0000832E000024
:202E4000832E0000832E0000832E0000832E0000832E0000832E0000832E0000692E000004
:202E6000832E0000692E0000036803242407A343012464071B1903E0036803242407A3431D
:202E800003600B69C360CB68C46A064D2540064C1C402B19C362097A11430160B0BDC0465D
:202EA000041800008888FDFF77770200FCB50C005C40E40FE40710B4DD02540D2543D6027F
:202EC0005F007F0D60D00124E407254307242402FF34A74250D0CB02440D2343C202480042
:202EE000400D51D00124E407234307242402FF34A04241D0C01901B41800290001F0A0FA1D
:202F00000F0001B41800310001F09AFA03000C001000310001F094FA06001000290001F020
:202F20008FFA05007618002202BC01BC55415141A419554151418024A4005B195141FF1866
:202F4000514100D564003F19514102D47F00494100E0401C03242402FF34001B14DD2419D8
:202F6000A04209D80305F80A4C0520434900090B194310BC2143FCBD0020FF21C900C91D3F
:202F8000090510BC2143FCBD0021002001B0FCBDF0B584B03049314A0125AC0316682B0242
:202FA00003939E4316600E68264205D10E68264202D10E682642F6D06C02467E9769AF43F7
:202FC0002E40BD1995612025455DD6690327BE433D407519D561224D2E6807273740052650
:202FE0002E60466A33681362736853622F60C3695B065B0CD5697F263602B543EB18D36126
:20300000E8C8009707680197476802971B071B0B2D03ADB2ED1833071B0D007A009E35434C
:203020001D43019B1D43029B1D43054390690D4B03400D482840C01890611068039B184364
:2030400010600868204205D10868204202D108682042F6D004B0F0BD04020B4008010B4015
:20306000001340408D00F0FF72FF0F00F8B515462A4E0A0D771C3A40294B9A4213D00C4698
:20308000002A18D10122D2079443044344D00022244BFFF70BFF0C4623498D4208DC234A80
:2030A000234B214636E002460B46FEF7E0FFF8BD220D3A40363A5119B1420ADD01F010FCA9
:2030C000222101600120C00704401D4821180020F8BD012904DB174A144009052143F8BDC8
:2030E0003522D24391420CDC01F0FAFB2221016012488542E6DA0120C0070440002021468B
:20310000F8BD0C4A144009051B225205891821430022094BFFF7CAFEF8BDC046FE070000B5
:20312000FF07000000005043AF3CFFFF59F3F8C21F6EA501FFFF0F800000903C51C3000067
:203140000000F07FFCB40127FF07794002E0FCB40127FF070C024D002D0E03D1002C52D1F0
:20316000FCBC70473C43FF2D50D0A408002900D56442020243001B0E04D1002A43D108003A
:20318000FCBC70473A43FF2B41D09208002800D552425E1B04D5170022003C0076422B0033
:2031A000192E06D527003741D2191C27F71B7F42BC40002A27D002D55242012700E0002796
:2031C000013B5200FCD51500802635400FD01500202635402C43803208D2150040263540C6
:2031E0002C4304D101263602B24300E05B1C5200023308DDFF2B0BD2500ADB051843FF07D2
:203200003843FCBC70470020FCBC70470800C70FFF07FF20C0053843FCBC7047F0B5264A6E
:20322000852414650120830224490B60244B5C61244C2546813D0D6082259D61224DDD616A
:203240005565224E1E6481255D645C60204F1F60D767966756679C60DC601C619C62DF62C5
:203260001F635F639F63DF639F64DF641F65156055600B46303B0F2214031C600B46403B86
:2032800003251D60E31C0B6021214904114B1960196311490B680D24E4061C430C600B6918
:2032A00003430B610D48016A520311430162016811430160F0BDC04604804240D0120A408D
:2032C00084804240810001008200040081000E0081000D00A0320A4090330A4028300A4078
:2032E00070B584B02B4C02252561032601960198411E0191002813D0502001F0D5FA019833
:20330000411E019100280BD0502001F0CDFA0198411E0191002803D0502001F0C5FAE6E71F
:203320000120206002960298411E0291002813D0502001F0B9FA0298411E029100280BD01A
:20334000502001F0B1FA0298411E0291002803D0502001F0A9FAE6E7256003960398411EF1
:203360000391002813D0502001F09EFA0398411E039100280BD0502001F096FA0398411E39
:203380000391002803D0502001F08EFAE6E704B070BDC04690120A40F0B58B4200D182420E
:2033A00004D90B0002000021002040E0002B00D1002A0CD10B00020000210020002B00D175
:2033C000002A01D0C943C04300F039FA2FE01C0015000B0002000CB4002126002F00FF1925
:2033E000764102D2491C4029F9D100201E001700FF19764102D2401C4028F9D10E1A2100DB
:203400002800320001F068F90C0005000CBC00200021A34200D1AA4201D3521BA34140419E
:2034200049416D08E7073D436408761EF1D5059F002F01D03A607B60F0BDF0B587B004466D
:2034400002634363806AE16AFEF70CFE0591A065E1650CCC06460690083CFEF708FE074606
:203460000D4603C4A268E3683046059E3146083CFFF71CFD0490039120646164A269E36932
:2034800038462946FFF712FD07460291A064E164256A606A0190226E636E06983146FEF7BC
:2034A000E1FD02460B4628460199FFF7FFFC05460E4620656165049803993A46029BFEF768
:2034C000D6FD2A463346FEF7D2FDA063E163069A2266059A626607B0F0BD002A49D0844625
:2034E0008B071CD1830722D1102A08D370B4103A78C978C0103AFBD270BC103238D0042A19
:203500002CD3082A05D30C2A01D308C908C008C908C008C908C092072AD0920F22E00B7814
:203520000370491C401C521E22D08B07F7D1C30714D18307D8D0121F12D308C903801B0C29
:203540004380001D121FF8D20AE008C903701B0A43701B0A83701B0AC370001D121FF4D206
:20356000121D05D00B780370491C401C521EF9D160467047F0B581B001F038F806460D4663
:20358000204CA065E1652069616932462B46FFF78DFC2064616403CC32462B46083CFEF77F
:2035A00066FD03C40022184B083C00F074FD03C422696369083CFFF779FC00900D46A06403
:2035C000E164266A676A234658330FCBFEF74AFD02460B4630463946FFF768FC06460F46B2
:2035E00020656165226C636C00982946FEF73FFD02460B4630463946FEF739FDA063E163EB
:2036000001B0F0BD300520200058AB4010B51E491E4C204601F002F91D49204600F0B0FD43
:203620001C4801680322D2039143016001691A4B0B4001210A029B181B1D036143691B240C
:203640001C4324239C43446143680B4044688C43E3184360114B1C680C431C608C021C6379
:2036600003684C041C430460C36820241C4350239C43C460C3680F242402A3439A18C2604A
:2036800002680A43026010BDA55000000080104084500000009110400000FFFF28901040C4
:2036A000F0B581B01C491D4C204601F033F81C492046FFF78FFA1B4801681B4A0A400260BD
:2036C00000250095204629462A462B4601F04CF8204629462A4601F00FF87D20860120467E
:2036E00031462A4601F0ACF801270097204629462A462B4601F038F8204629463A4600F073
:20370000FBFF204631463A4601F09AF8074887600321016001B0F0BD01500000002086407F
:2037200098500000043886407F00FFFF00318640FCB40127FF0706004E4001D4002600E0DE
:203740003E00020243001B0E30D03A43FF2B30D00C024D002D0E29D03C43FF2D29D05B196D
:203760004240504042404C4061404C4000B500F067FE20BCAE464240504042404C40614061
:203780004C4025001400002C01D46400013B803401D3013364087E3B08DDFF2B09D2BC43F9
:2037A000200ADB0518433043FCBC70470020FCBC7047FF20C0053043FCBC7047FCB4012795
:2037C000FF0706004E40F60FF607020243001B0E2DD03A43FF2B2DD00C024D002D0E26D0B0
:2037E0003C43FF2D26D05B1B0020202164085208A2424041A24200D3121B013904D0002A0A
:2038000001D05200F4D18840384201D14000013B803001D3013300E040007F3307DDFF2B98
:2038200008D2400ADB0518433043FCBC70470020FCBC7047FF20C0053043FCBC704770473B
:2038400070B51B491B4801220346103B1C68E40308D514040D68184D2E78761C2E70056848
:20386000254305601C68240408D5D4030D68134D2E78761C2E700568254305601C6864044A
:2038800008D594030D680C4D2E78761C2E700568254305601B689B0408D5520309680749C1
:2038A0000B785B1C0B7001681143016070BDC04680330A4048300A40780620207906202006
:2038C000F8B5451C00780023082B32D02F78C2070CD16A780F241440E41C122C0BD1022414
:2038E0002E57F4B2002E08D4EE1C0EE06D1C4A1C0F7011461AE0AE1C08E02E1DED780095E5
:203900007F252C40009DED012C1912343D0112095219094DAA420ED0D243002C05D08D5C9E
:203920004F1C0D70641E3946F7E7354640085B1CCAE72846C5E7F8BDFF0F0000F0B589B01A
:203940001F46164618990891199907911699069117990591159902911499019112990491C6
:20396000139903910EAD3CCD00210160416006614761064618363CC68162C1620163416367
:20398000024680328023019CC450029B53608165C16501664166049981660399C166069989
:2039A000016705994167089981670799C16709B0F0BD0000FEB502930F46194D0024E14357
:2039C000184E00973740019043422B46BB4101D20C4623E0084602990E405342B54101D233
:2039E00004461BE0134601990B433E431E43029D009E13D02B46334004D401998B1A3346CB
:203A0000AB4103E00199531A2B46B341044605DB51406E400E43701E864134462046FEBDC1
:203A20000000F07FFFFFFF7F80B500F0A9FE80BD0CB41B4B4A00D21A1BD2000D0A031043DC
:203A400001221202801802D3400812038918400A002902D50122D20710434900490D382232
:203A60001201891A0CD4FF290DD2C90508430CBC7047DB431A40024305D0D8430CBC7047E5
:203A800000200CBC7047C90FC907FF20C00508430CBC7047C046C046C046C046C046C0460D
:203AA0000000E0FF10B51549154C204600F0B6FE1449204600F064FB134801680322D203C9
:203AC000914301600169114A0A401532026141692D220A4312218A434261416801221140F2
:203AE000436893435918416009490B6894021C430C6001681143016010BDC046A350000029
:203B0000000010407A500000001110400000FFFF28101040F0B581B00C460746B020074315
:203B2000FFF7DAF878252846FDF7CCFE00263046FDF7C8FE3846FDF7C5FEFFF7D1FB270977
:203B40001037FFF7C9F82846FDF7BCFE3046FDF7B9FE3846FDF7B6FEFFF7C2FBFFF7BCF8A7
:203B60002846FDF7AFFE3046FDF7ACFE0F202040FDF7A8FEFFF7B4FB01B0F0BDF8B50446FF
:203B8000164F174D0E462E400120009464423C46B4411AD31D405442AF4116D31046009C1D
:203BA00020433543054311D00020C0431C460C400ED4009CA41A0C469C4106DB00985040BC
:203BC00059400143481E81410846F8BD0020F8BD009C141B1C468C41F0DAF6E70000F07FF8
:203BE000FFFFFF7FF0B581B00C46154E374620370028394600DC31460028324600DC3A46F4
:203C000001256B030B60A9031160C1174840411A0C48002200F014FE002C00DC37460A487E
:203C2000002C00DC2030E903396069040160E0174440211A03482A4600F002FE01B0F0BD1A
:203C400080120A400020864080320A40F8B51C4617460E46054600F01AFE0021012E03DB65
:203C6000B04201DBA919491E002F04D02268531E23602E2313703246824206DD23685F1ED1
:203C8000276030271F70521EF6E7B04200DB3046012808DBA9420BD308782268531E236054
:203CA0001070491EF6E72068411E216030210170F8BD000010B5FFF761FF002801D000202D
:203CC00010BD012010BDC04610B5FFF757FF002801DB002010BD012010BDC04610B5FFF772
:203CE0004DFF002801DD002010BD012010BDC04610B5FFF75FFE002801DA002010BD012068
:203D000010BDC04610B5FFF755FE002801DC002010BD012010BD000010B500F073FB002897
:203D200001D0002010BD012010BDC04610B500F069FB002801DB002010BD012010BDC046D3
:203D400010B500F05FFB002801DD002010BD012010BDC04610B500F019FB002801DA002081
:203D600010BD012010BDC04610B500F00FFB002801DC002010BD012010BD8446830706D0B9
:203D8000002A29D001700130013A8307F8D1042A1CD30906090E0B0219430B041943082A87
:203DA00010D30B00102A09D370B40F24161B22400C000D003AC0103EFCD870BC082A01D3AE
:203DC0000AC0083A042A01D302C0043A002A03D0013A8154013AFCD260467047B0B51348A2
:203DE00000240460124D28680F210902884301214A0280182860281F02680323DB43134070
:203E0000036068688843686068680902884368600848FFF7BDF8286810210143202081436A
:203E20002960204600F0D0F9B0BDC04608030B4004010B400450000070B514460F4D0B4641
:203E40002B40002222600E4EB34215D81E46064312D01E0D07D100220A4BFFF727F80D40AA
:203E60003522D2432B461B0D9A18074BD2182260064A0A400649511870BDC046FFFFFF7FCC
:203E8000FFFFEF7F0000504302FCFFFFFFFF0F800000E03FF0B587B00191064602AD0020F2
:203EA000E874123537460A243846214600F04AF84443391BCA175140891A30312970093773
:203EC0006D1E122F0746EED8002E01D46D1C01E02D20287002A8441B2246143201982946F2
:203EE00000F002FD1334204607B0F0BDF0B5FFB086B01C4615460246A868002801D50620FF
:203F0000A8602368039304AB0090019305A80B46FEF78CFB0646049FAA683946234600F052
:203F200035FB20680399814201D0012202E028680007C20F304639462346FFF787FE7FB024
:203F400006B0F0BD1CB5002922D04C08002900D5494242105440002800D5404200230A00A3
:203F6000904201D95200FBE790425B41904200D3801A914201D25208F6E71900002C00D5BD
:203F80004042640000D549420200080011001CBD01000020FEF72FF91CBDF0B581B00646AE
:203FA0001078002821D014460D4600277919C9B2C2B23046FDF78AFD781CC1B2625C002A2B
:203FC00013D04019C1B23046FDF780FDB81CC1B2625C002A09D04019C1B23046FDF776FD9A
:203FE000FF1CF8B2205C0028E0D101B0F0BD000070B50C480C4941600C4A51600C4B5960C3
:204000000C4C61600C4D69600C4E71600C49016011601960216029603160102000F044FC9F
:2040200070BDC04600080A40030000B100280A4000288640000886400008104000881040E9
:20404000010000267CB515460C460646C01731464140081A009200210A226423FCF7C6FC03
:2040600030460930122808D8DF202040502804D02868411E296030210170002E01D42B2044
:2040800000E02D2029684A1E2A6008702868411E296004707CBDF0B583B01F4600920D46B1
:2040A0000446FFF72FFE01900120C60702977E4027462C46009D284631463A462346FFF77D
:2040C00021FE002800D126460028284600D13846019A002A029900D10546002A00D1314689
:2040E000284603B0F0BD0000F0B581B00646536894689589D0890090176950691C432C430B
:204100003C43009B1843000120430B01F318092464021851107852788900711802430448BE
:204120000B58BF24A34322409A180A5001B0F0BD101100000CB54A00520D03231B02FF3387
:20414000D21A13D31F239A1A12D98E46C9020123DB071943D1400B2A02D21532D0400143F6
:204160007346002B00D5494208000CBD00200CBD0B000120C007002B00D401380CBD00004D
:2041800070B511221302C218C4580125AC43C4500C888D7825438C882C43C558084E2E402E
:2041A000084D25407419C4508879CB790343087A184351687E23994318400818506070BDB1
:2041C000E798FDFF1867000010B50E490E4A01235C0590600868204205D10868204202D1AF
:2041E00008682042F6D010681B04034313600868C00605D40868C00602D40868C006F6D5BB
:2042000010BDC04604020B4004010B400E490A680020520316D40A68120313D40B4A1368C4
:204220009B020FD413685B020CD40B68DB0209D40B681B0206D40968C90103D41068C10D57
:20424000012088437047C04680330A4080130A4080B5FFF7CDFEFEF7E1FFFFF7BFFDFFF768
:204260001FFA00F00BF9FFF71DFCFFF7CFF9FFF7DBFB00F073F900F0CFF90348B82100223E
:2042800042540248425480BD00002020BC0020201CB50A0017D000230124E407A04200D286
:2042A0000400944201D95200FBE790425B41904200D3801A914201D25208F6E71900020071
:2042C000080011001CBD01000020FDF794FF1CBD08B443001B0E0FD0FF2B11D00721C90167
:2042E0005B18C10FC9020B43010048074902090B1B05194308BC70470021002008BC704700
:2043000001004002C90DC900C91D090508BC704710B50E4902788B185B78401CDB06F9D436
:2043200000212D2A04D02B2A02D0401E134600E00378303B092B04D80A244C431919401C32
:20434000F6E72D2A00D14942084610BD004F000006B49E22002802D404D106BC704741421A
:2043600004D400E00100013A4900FCD5803101D3013200E04900490AD2051143002802D5D1
:204380000122D2071143080006BC704740B542004B005E08164301D006004E4000D4D01AE8
:2043A00004D20120C90F06D1404204E003D90120C90F00D04042FF263606B24200D8B342A8
:2043C00001D90120404240BD70B50A480A4C84420CD00A4D0A4EB54208D02A686968501CA7
:2043E00012789200A25890470835F4E700BF00BF70BDC046BC500000B0500000D0500000DB
:20440000E050000040B542004B005E08164301D006004E4000D4D01A04D20120C90F06D162
:20442000404204E003D90120C90F00D04042FF263606B24200D8B34200D9012040BD0000D6
:20444000FCB4020C0B0CFF242402FF34204021400C00444315005D4306005E430F005743B2
:20446000320C3B0CA818C01832043B040025A1186841C9186841FCBC7047000010B5084914
:20448000084C204600F046F907492046FEF79AFC064801680122114301600548026010BDE7
:2044A000A0500000000086404450000028108640081186400A480068C0B20B280ED1094846
:2044C000C169094A117011780268D20705D00268D20702D00268D207F6D181617047C0467F
:2044E00020101040081110408506202006B54100090E7F390DD41F22511A0CD986460002FD
:204500000122D2071043C8407246002A00D5404206BD002006BD02000120C007002A00D47D
:20452000401E06BD82B0F8B5069207930291019006A9039107480090074B02A801AAFBF76A
:20454000BFFD019900220A7004B080BC02BC02B00847C04699470000D74800000848094913
:20456000416009490A68FF231B069A4303239B07D2180A6000218160072101607047C04652
:2045800010E000E0FF7C000020ED00E0F8B51C4615460646571800F07AF9711E012D0CDBB7
:2045A0003022012F02DB874200DCCA5D23685E1E26601A707F1E6D1EF0E7F8BDB0B5094B4C
:2045C000094A05689542144602DC9D421C4600DA04600868904202DC98421A4600DA0A60EF
:2045E000B0BDC046A8E4FFFF581B000004B40422002802D1002104BC704701D50832404248
:2046000012021F320100521E4900FCD30805090B1205114304BC70470748084902680A4055
:204620008A4207D002680A408A4203D002680A408A42F3D17047C04604020B40000A200008
:20464000022804D00749012804D1087805E00449087802E000200870014900220A707047C5
:204660007906202078062020084880F3088800BF00BF00F047F9002801D0FFF7A5FE00200A
:20468000FDF714FC012000F036F9C0460080202030B514004C4325001C004443641905003E
:2046A00010002900FFF7CCFE001904000D002100280030BDB0B504460020002B08D0D2B24B
:2046C0000D782570954204D0641C491C5B1EF7D1B0BD601CB0BD000018B520239B1A04D8F8
:2046E000010000205B42994004E004009140DC402143904018BD000010B592008018044A08
:2047000083580724A404A34321405918815010BD3018000010B50122120383180C789C6035
:204720004B7883508978014A815010BD0C11000004480021017004480168012291430160F1
:204740007047C0468006202004388640044800210170044801680122914301607047C0462C
:20476000810620200438864010B5029CA400001911431943014A815010BDC0465018000049
:2047800080B5034A03480021FFF7AEFC80BDC0462C50000000A04240B0B514460D46014651
:2047A000286800F0A1F82868001928602046B0BD034801210170034802680A4302607047E3
:2047C0008006202004388640034801210170034802680A430260704781062020043886404F
:2047E00080B503480068022801D1FFF729F880BD3011404040B584B002AE0096FEF7CCFD93
:20480000029A039B04B040BDC9B202788A4204D0002A01D0401CF8E70020704710B5012223
:20482000120383180C789C604978815010BD80B50B4603214258C11D184600F055F880BDEF
:2048400092008018014A81507047C0461018000001200003014908607047C046A0120A409E
:2048600000214258091D002AFBD1081F8010704780B50A4603214158104600F00FF880BD27
:204880000B4611461A4680B5FFF777FA80BD0021425C491C002AFBD1481E70470A4600218F
:2048A00080B5FFF76AFA80BD811E091F00BFFCD2704702460B4620462946FFE782B0009407
:2048C000014C019410BD00BF652000000022304639462B4670470A68531C0B601070704723
:2048E000004870475006202080B5FEF7F6FD80BD8262C362704700F001F8FEE700BF7047C5
:10490000B2E6704701207047000000000000000080
:2049100000000000000000000000000000000000000000F80000000000000033300000002C
:2049300000100C06100C0600000000000000000040C07840C0784000043F04043F04040061
:20495000007088FC08300000001820FF211E0000F008F000E018000000211C031E211E0028
:2049700000F00888700000001E2123241927211010160E000000000000000000000000000C
:20499000000000E018040200000000071820400000020418E000000000402018070000000D
:2049B000404080F0804040000202010F01020200000000F0000000000101011F01010100C9
:2049D000000000000000000080B07000000000000000000000000000000101010101010120
:2049F0000000000000000000003030000000000000000000806018040060180601000000CC
:204A100000E010080810E000000F102020100F00001010F8000000000020203F2020000041
:204A30000070080808887000003028242221300000300888884830000018202020110E00A0
:204A50000000C02010F8000000070424243F240000F80888880808000019212020110E00EF
:204A700000E0108888180000000F112020110E0000380808C83808000000003F0000000000
:204A90000070880808887000001C222121221C0000E010080810E0000000312222110F00C3
:204AB000000000C0C0000000000000303000000000000080000000000000806000000000A6
:204AD0000000804020100800000102040810200040404040404040000404040404040400B3
:204AF00000081020408000000020100804020100007048080808F000000000303601000048
:204B1000C030C828E810E0000718272423140B000000C038E0000000203C23020227382047
:204B300008F8888888700000203F202020110E00C0300808080838000718202020100800A0
:204B500008F808080810E000203F202020100F0008F88888E8081000203F20202320180055
:204B700008F88888E8081000203F200003000000C03008080838000007182020221E0200B2
:204B900008F808000008F808203F210101213F20000808F8080800000020203F202000001C
:204BB00000000808F8080800C08080807F00000008F888C028180800203F20012638200080
:204BD00008F8080000000000203F20202020300008F8F800F8F80800203F003F003F2000C1
:204BF00008F830C00008F808203F200007183F00E01008080810E0000F10202020100F003A
:204C100008F808080808F000203F210101010000E01008080810E0000F18242438504F00B3
:204C300008F8888888887000203F2000030C302000708808080838000038202121221C00D6
:204C5000180808F8080818000000203F2000000008F808000008F808001F202020201F00AF
:204C70000878880000C83808000007380E010000F80800F80008F800033C0700073C030042
:204C9000081868808068180820302C03032C30200838C800C83808000000203F2000000067
:204CB00010080808C83808002038262120201800000000FE020202000000007F404040007A
:204CD000000C30C000000000000000010638C00000020202FE000000004040407F00000086
:204CF000000004020202040000000000000000000000000000000000808080808080808096
:204D10000002020400000000000000000000000000008080808000000019242222223F2079
:204D300008F8008080000000003F112020110E000000008080800000000E112020201100A4
:204D5000000000808088F800000E112020103F200000808080800000001F2222222213003B
:204D7000008080F0888888180020203F202000000000808080808000006B9494949360002A
:204D900008F8008080800000203F210000203F2000809898000000000020203F2020000015
:204DB000000000809898000000C08080807F000008F8000080808000203F24022D302000F2
:204DD000000808F8000000000020203F202000008080808080808000203F20003F20003F5F
:204DF0008080008080800000203F210000203F200000808080800000001F202020201F0066
:204E1000808000808000000080FFA12020110E000000008080808000000E112020A0FF8085
:204E3000808080008080800020203F21200001000000808080808000003324242424190045
:204E5000008080E0808000000000001F202000008080000000808000001F202020103F2015
:204E7000808080000080808000010E300806010080800080008080800F300C030C300F003B
:204E900000808000808080000020312E0E312000808080000080808080818E701806010086
:204EB00000808080808080000021302C2221300000000000807C020200000000003F404033
:204ED00000000000FF00000000000000FF0000000002027C800000000040403F0000000005
:204EF0000006010102020404000000000000000000808080808080808080909090909080BE
:204F10008080808080808080808080808080808080180404040404040404040404040404B1
:204F3000040202020202020202020204040404040404434343434343414141414141414193
:204F5000414141414141414141414141040404040404232323232323212121212121212143
:204F7000212121212121212121212121040404048000000000000000000000000000000005
:204F9000000000000000000000000000000000000000000000000000000000000000000001
:204FB0000000000000000000000000000000000000000000000000000000000000000000E1
:204FD0000000000000000000000000000000000000000000000000000000000000000000C1
:204FF00000000000000000000000000000000000000800090100000000000000000000008F
:205010004000000000000000000000000200000004000000010000002C00C44111000000F7
:205030000000000000000000000200020000000000000300020000007C03000001000000D7
:20505000000000000000000030313233343536373839414243444546003031323334353639
:205070003738396162636465660000001800000000300000000008000000003000005961E9
:20509000773A25362E326600401F0000000100000806FF08000800000000000000000000B1
:2050B000C13800002F48000071480000000100000F8301FFF000000002000000F00500003D
:1050D000BC500000F0052020C85000000000202037
:00000001FF
