:2000000000802020AD560000E3330000E333000000000000000000000000000000000000F1
:20002000000000000000000000000000E33300000000000000000000E3330000E33300007E
:20004000E3330000A1470000E3330000E3330000E3330000E3330000E3330000E33300001E
:2000600000000000E3330000E33300000000000000000000E3330000E3330000C95200000D
:20008000E3330000E3330000E3330000451F0000E3330000E333000000000000000000008E
:2000A000E3330000E33300000000000000000000E333000000000000E3330000E3330000D2
:2000C000F0B599B0AE200024214602F0FBF92046214602F0F7F91020214602F0F3F9402669
:2000E0003046214602F0EEF981201690214602F0E9F9CF20214602F0E5F9A12015902146D5
:2001000002F0E0F9C820214602F0DCF9A6252846214602F0D7F9A820214602F0D3F93F2050
:200120000A90214602F0CEF9D3200D90214602F0C9F92046214602F0C5F9D52006902146EB
:2001400002F0C0F980273846214602F0BBF9D9200590214602F0B6F9F1200490214602F02E
:20016000B1F9DA20214602F0ADF91220214602F0A9F9DB200B90214602F0A4F90C9630460B
:20018000214602F09FF920200790214602F09AF90220214602F096F98D200390214602F008
:2001A00091F91420214602F08DF9A4200990214602F088F90E952846214602F083F9014A3A
:2001C000089701E00000202017970120119040021890101814900320C001129011181391E6
:2001E0001046E03010901046C0300F901346A0331546803517466037114640311046203076
:200200001470147214741476079E94550472047404760C9814540C720C740C766020145458
:200220003C723C743C76089814542C722C742C76A02014541C721C741C76C02014540F98FF
:20024000047204740476E020145410980472047404761198000214542126F00014541120DB
:20026000000114542325E80014540920400114542523D80014541320000114542721C80077
:2002800014540520800114542920C00014541520000114542B20C00014540B204001145492
:2002A0002D20C00014541720000114542F20C00014541298145413980472047404760D2060
:2002C000400114543520C00014541B20000114543720C00014540720800114543920C000AC
:2002E00014541D20000114543B20C00014540F20400114543D20C00014541F200001145468
:200300000A98C0001454179F403F149A00D05BE707950A930C91024B8020089602E0C046D5
:20032000000020201390FF20179082301190191812911846E13010901846C1300F901D468D
:20034000A1351F468137194661311A464132184621305C705C725C745C76089E9C550472EE
:2003600004740476412014901C5414721474147661229C540C720C740C7616981C543C72BF
:200380003C743C76159FDC552C722C742C76C1255C550F980472047404761799E1269C55E8
:2003A0001098047204740476084602301C5408460A301C54084612301C5408461A301C543D
:2003C000084622301C5408462A301C54084632301C5408463A301C54084642301C5408462F
:2003E0004A301C54084652301C5408465A301C54084662301C5408466A301C5408467230F3
:200400001C5408467A301C5411981C5412980472047404760846A2301C540846AA301C54B1
:200420000846B2301C540846BA301C540846C2301C540846CA301C540846D2301C540846FE
:20044000DA301C540846E2301C540846EA301C540846F2301C540846FA301C5418981B18CF
:200460001398403800D05DE70892024880210195029601E000002020139101994900119148
:20048000421812920146E23110910146C2310F910546A235074682370346623302464232C7
:2004A00001462231847084728474847622268455029E0C720C740C7642214454147214747C
:2004C0001476622144541C721C741C76822144543C723C743C76A22144542C722C742C7641
:2004E000C22144540F990C720C740C76E221445410990C720C740C7616994900445485225E
:200500005100445489214900445403994900445491214900445495214900445499214900BD
:2005200044549D2149004454159949004454A52359004454A92149004454AD2149004454E2
:20054000B12149004454B52149004454B92149004454BD21490044541199445412990C724C
:200560000C740C76D12149004454069949004454059949004454DD214900445471004454BF
:20058000E52569004454E92149004454ED2149004454049949004454F52149004454F921E7
:2005A00049004454FD2149004454189940181399403900D060E7029503930492014E802064
:2005C000179D01E0000020201590284684301290311813913046E33011903046C3301090BD
:2005E0003046A3300F9037468337314663313246433230462330F470F472F474F476079BDD
:20060000F454047204740476432016903454147214741476632034540C720C740C768321D2
:2006200074543C723C743C76A322B4540F98047204740476C323F4541098047204740476C8
:20064000E327F455119804720474047628460430345428460C303454284614303454284632
:200660001C30345428462430345428462C30345428463430345428463C303454284644306C
:20068000345428464C30345428465430345428465C30345428466430345428466C30345448
:2006A00028467430345428467C3034541298345413980472047404762846A4303454284681
:2006C000AC3034542846B43034542846BC3034542846C43034542846CC3034542846D430AC
:2006E00034542846DC3034542846E43034542846EC3034542846F43034542846FC30345418
:20070000189836181598403800D05DE70597069307920F910148802102E0C0460000202022
:200720001591089989001291421813920146E43111910146C43110910546A4350746843740
:200740000346643302464432014624310471047304750477242684550C720C740C76442177
:200760004454147214741476642144541C721C741C76842144543C723C743C7609994454F5
:200780002C722C742C76C421445410990C720C740C76E421445411990C720C740C7614995F
:2007A000890044541699890044544523990044544722910044544921890044544B2189009D
:2007C00044544D21890044544F2189004454512189004454532189004454552189004454A2
:2007E0005721890044545921890044545B21890044545D21890044545F218900445412993D
:20080000445413990C720C740C766921890044546B21890044546D21890044546F218900F4
:2008200044547121890044547321890044547521890044547721890044547921890044548D
:200840007B21890044547D21890044547F2189004454189940181599403900D060E7099279
:20086000F8488021179A11930A9F169186321492811815910146E53113910146C531129174
:200880000646A536054685350346653302464532014625314471447344754477C4550C7278
:2008A0000C740C7611994454147214741476652144541C721C741C76049944542C722C741B
:2008C0002C7603994454347234743476179AC521445412990C720C740C7602994454139911
:2008E0000C720C740C7611460631445411460E31445411461631445411461E314454114659
:200900002631445411462E31445411463631445411463E31445411464631445411464E31AA
:20092000445411465631445411465E31445411466631445411466E31445411467631445481
:2009400011467E3144541499445415990C720C740C761146A63144541146AE31445411469B
:20096000B63144541146BE3144541146C63144541146CE3144541146D63144541146DE31EA
:2009800044541146E63144541146EE3144541146F63144541146FE314454189940181699BF
:2009A000403900D061E7A74880211691069949001491421815920146E63113910146C631A1
:2009C00012910646A6360746863705466635024646320146263184718473847584772623D5
:2009E000C4540C720C740C7646214454147214741476662144542C722C742C76862144548A
:200A00003C723C743C760E994454347234743476179AC621445412990C720C740C76E6212D
:200A2000445413990C720C740C760F99490044548723590044548B21490044548F21490048
:200A400044549321490044549721490044549B21490044549F214900445407994900445411
:200A6000A72569004454AB2149004454AF2149004454B32149004454B72149004454BB2101
:200A800049004454BF21490044541499445415990C720C740C760D9949004454D721490079
:200AA00044540B9949004454DF2149004454059949004454E72671004454EB2149004454B6
:200AC000EF2149004454F32149004454F72149004454FB2149004454510044541899401848
:200AE0001699403900D060E7564880210A9308950496169111468831149143181593103203
:200B00001292811813910146E73111910146C73110910746A73705468735034667330246B6
:200B2000473201462731C471C473C475C4770C9E84550C720C740C76099944541472147472
:200B40001476672144541C721C741C760A9BC4542C722C742C76089D44553C723C743C7650
:200B6000C721445410990C720C740C76049E179A845511990C720C740C761146083144544E
:200B80001299445413990C72114620314454114628314454114630314454114638314454B8
:200BA0001146403144541146483144541146503144541146583144541146603144541146AE
:200BC000683144541146703144541146783144541146803144541499445415990C720C742B
:200BE0000C761146A83144541146B03144541146B83144541146C03144541146C83144543B
:200C00001146D03144541146D83144541146E03144541146E83144541146F031445411467D
:200C2000F831445408494454189940181699403900D05EE701F010FEAF20002101F042FCA6
:200C400019B0F0BD00002020FF010000F0B593B0014C80200A9001E000002020119001208C
:200C60000D9040021290201810900320C0010E9021180F912046E0300C902046C0300B90BD
:200C80002546A03527468037264660362246403220462030002121702172217421762023AA
:200CA000E15401720174017640202154117211741176602021543172317431760A98215441
:200CC000397239743976A0202154297229742976C02021540B98017201740176E020215435
:200CE0000C980172017401760D98000221542126F00021541120000121542325E8002154DD
:200D00000920400121542523D80021541320000121542722D00021540520800121542920C4
:200D2000C00021541520000121542B20C00021540B20400121542D20C000215417200001B8
:200D400021542F20C00021540E9821540F980172017401760D20400121543520C00021540C
:200D60001B20000121543720C00021540720800121543920C00021541D20000121543B207D
:200D8000C00021540F20400121543D20C00021541F20000121543F20C0002154119840383D
:200DA000109C00D05AE7069508930992014C80200A9601E0000020201190FF273846823000
:200DC0000D9022180E922046E1300C902046C1300F902046A1300B902646813622466132A3
:200DE000234641332046213061706172617461760A9D6155017201740176412010902154DD
:200E00001972197419766123E1541172117411768122A154317231743176A126A1550B98FC
:200E2000017201740176C12561550F98017201740176E1200F9021540C9801720174017699
:200E400038460230215438460A30215438461230215438461A30215438462230215438460B
:200E60002A30215438463230215438463A30215438464230215438464A302154384652301F
:200E8000215438465A30215438466230215438466A30215438467230215438467A3021541C
:200EA0000D9821540E980172017401763846A23021543846AA3021543846B230215438462E
:200EC000BA3021543846C23021543846CA3021543846D23021543846DA3021543846E2305F
:200EE00021543846EA3021543846F23021543846FA302154129824181198403800D05BE725
:200F0000079311970495024D80200392059601E0000020200E90049840000C902A180D92BF
:200F20002846E2300B902846C2300A902A46A2322E4682362C4662342B464233284622307E
:200F4000A970A972A974A9762227E9550172017401764220295419721974197662202954B6
:200F600021722174217682202954317231743176059EA2202954117211741176C2202954D4
:200F80000A98017201740176E22029540B9801720174017603984000295485225000295403
:200FA0008920400029548D20400029549120400029549520400029549920400029549D204E
:200FC0004000295470002954A52358002954A92040002954AD2040002954B120400029542C
:200FE000B52040002954B92040002954BD20400029540C9829540D98017201740176D12019
:2010000040002954D52040002954D92040002954DD20400029540F9840002954E524600024
:201020002954E92040002954ED2040002954F12040002954F52040002954F920400029542D
:20104000FD204000295412982D180E98403800D060E700940193029201488022119B01E05E
:20106000000020200E9284330C93C2180D920246E3320B920246C3320A920546A33506467F
:201080008336044663340346433302462332C170C172C174C176069FC15511721174117640
:2010A00043220F92815419721974197663228154217221742176119B8324015531723174A4
:2010C0003176A3268155297229742976C32541550A9A117211741176E327C1550B9A1172FA
:2010E000117411761A46043281541A460C3281541A46143281541A461C3281541A46243252
:2011000081541A462C3281541A46343281541A463C3281541A46443281541A464C328154CB
:201120001A46543281541A465C3281541A46643281541A466C3281541A46743281541A4658
:201140007C3281540C9A81540D9A1172117411761A46A43281541A46AC3281541A46B432F7
:2011600081541A46BC3281541A46C43281541A46CC3281541A46D43281541A46DC3281549B
:201180001A46E43281541A46EC3281541A46F43281541A46FC328154129A80180E9A403A8D
:2011A00000D05FE70397049505960694014E802002E0C046000020200E90079880000C9041
:2011C00032180D923046E4300B903046C4300A903746A43734468434324664323346443375
:2011E000304624303171317331753177242571550172017401764420315419721974197693
:201200006420315411721174117684203154217221742176A4203154397239743976C4201A
:2012200031540A98017201740176E42031540B980172017401761098800031540F988000C9
:2012400031544523980031544722900031544920800031544B20800031544D2080003154B6
:201260004F208000315451208000315453208000315455208000315457208000315459209D
:20128000800031545B20800031545D20800031545F20800031540C9831540D98017201740D
:2012A00001766920800031546B20800031546D20800031546F2080003154712080003154DD
:2012C0007320800031547520800031547720800031547920800031547B20800031547D2065
:2012E000800031547F2080003154129836180E98403800D060E70792F64A80200B93119B55
:20130000089F109086330E93D0180F901046E5300D901046C5300C901646A536154685356A
:201320001446653413464533104625305171517351755177D1550172017401760B9811549D
:2013400019721974197665201154217221742176119B0298115429722974297601981154BD
:20136000317231743176C52011540C98017201740176009811540D980172017401761846D2
:201380000630115418460E30115418461630115418461E30115418462630115418462E30C2
:2013A000115418463630115418463E30115418464630115418464E301154184656301154AB
:2013C00018465E30115418466630115418466E30115418467630115418467E3011540E9882
:2013E00011540F980172017401761846A63011541846AE3011541846B63011541846BE3053
:2014000011541846C63011541846CE3011541846D63011541846DE3011541846E63011547A
:201420001846EE3011541846F63011541846FE301154129812181098403800D061E7A54DF3
:2014400080201090049840000E902A180F922846E6300D902846C6300C902E46A6362F4609
:2014600086372C4666342B46463328462630A971A973A975A9772622A954017201740176DD
:201480004620295419721974197666202954217221742176119A862029543972397439762B
:2014A000A6202954317231743176C62029540C98017201740176E62029540D980172017484
:2014C00001760698400029548723580029548B20400029548F204000295493204000295477
:2014E0009720400029549B20400029549F2040002954059840002954A72460002954AB20B7
:2015000040002954AF2040002954B32040002954B72040002954BB2040002954BF204000A7
:2015200029540E9829540F98017201740176D32040002954D72040002954DB2040002954E9
:20154000DF2040002954039840002954E72670002954EB2040002954EF2040002954F320D6
:2015600040002954F72040002954FB20400029545000295412982D181098403800D060E70F
:20158000544D80200893029401961090104688300E902B180F9310320C92A8180D90284666
:2015A000E7300B902846C7300A902F46A7372C4687342B4667332A46473228462730E971E7
:2015C000E973E975E977099EA95501720174017607982954117211741176672029541972B3
:2015E00019741976089BE954217221742176029C119A2955397239743976C72029540A985C
:20160000017201740176019EA9550B980172017401761046083029540C9829540D98017288
:20162000104620302954104628302954104630302954104638302954104640302954104655
:20164000483029541046503029541046583029541046603029541046683029541046703023
:2016600029541046783029541046803029540E9829540F980172017401761046A83029541B
:201680001046B03029541046B83029541046C03029541046C83029541046D0302954104625
:2016A000D83029541046E03029541046E83029541046F03029541046F8302954064829541E
:2016C00012982D181098403800D05EE701F0C4F813B0F0BD00002020FF010000F0B5FFB035
:2016E0008EB0049306920646929802900025E84305908C913468204603F0ABFF21188B957B
:2017000003918C4200D3B5E00020879087A908738890059889902F46049D2078002800D1A8
:20172000A9E0252805D0641C34600699A8477F1CF3E78B97601C306087AC2046314600F0B9
:20174000A1F88CAA2046314600F0B9F831680A781346683B0120C341092B2BD87B441B7976
:201760005B009F4404130A272727162727194B78879A682B19D1430204E04B78879A6C2B13
:2017800010D103021A438792891C12E0879AC30204E0879A430301E0879A030313438793AD
:2017A000491C06E0491C402301E0491C20231A4387920A784C1C346087A90A73732A1ED061
:2017C0006E2A28D187992E4A1140202947D040293BD04203914238D0420291423AD0C202B6
:2017E000914205D0020391422FD0000281422CD1F8178C9904C98C911760506033E087A821
:201800000078400619D4009587A88CAA8BAB069900F015F927E007AD87A98CAA284600F0D1
:2018200065F9024628460699029B9847411C059D00D0C5198B95039917E0009587A88CAA1F
:201840008BAB069900F097F80DE08C9802C88C900F6008E08C9802C88C900F7003E08C9856
:2018600002C88C900F8003998B9D681C00D048E7059F00E02F4638467FB00EB0F0BDC04695
:20188000603F000010B50A681378302B0FD0232B07D02B2B09D02D2B05D0202B0ED10423DB
:2018A00006E0082304E0012302E0022300E0102304681C430460521C0A60E5E710BDFEB5A2
:2018C00016460D460446086802782A2A10D13068011D316000686060002805D5404260603D
:2018E00020680121014321602868471C2F6017E00021303A092A08D84218531C2B60435C6F
:201900006F467B545278491CF3E76A460023535412784718002A03D0684603F0E3FB60609B
:2019200038782E2826D1781C286079782A2908D13068011D31600068A0602868401C28604E
:20194000FEBD00203039092908D839188A1C2A604A786B461A548978401CF3E76A460021C7
:2019600011541078002804D0684603F0BBFBA060FEBDA160FEBDF0B587B01E460C9F13684A
:201980001C1D14601D68002D3BD0049106908468002C04D4284603F045FE844203D3284614
:2019A00003F040FE044606984068A042039000DC2046014630680191401802963060059425
:2019C0000398A0420EDD06980078C0070AD1059801990E1A0024B44204DA20200499B847B4
:2019E000641CF8E70026049C069805998E420BDA2868010A19D12D1DC0B22146B847761C98
:201A0000F2E70020B84718E00599039A8A4214DD0078C00711D00198451A0024AC420CDACE
:201A200020200499B847641CF8E70020C0430299086003F02BFE5821016007B0F0BDF0B546
:201A400085B00C4606460A9D1068011D116000680490002844D00393B768002F04D4049875
:201A600003F0F7FD874203D3049803F0F2FD074602967268BA42114600DC3946039B1868D7
:201A80000091401818600192BA420FDD02980078C0070BD10098C01B039000260398864226
:201AA00004DA20202146A847761CF7E70026BE4205DA0498805D2146A847761CF7E7019865
:201AC000B84210DD02980078C0070CD00098C61B0027B74207DA20202146A8477F1CF8E7E0
:201AE00000202146A84705B0F0BDC046F0B589B005920E4604467F20800027184868039054
:201B000000250795FF210491FE3120222046019203F098FD3046089702977D70367B31469A
:201B20006339152906903DD801228A40604B1A42069822D007A908AA059B00F0BDF8069857
:201B40000025067B012731466F390929059504D801228A4057490A423FD1582E3DD001680B
:201B600002230B40079A002A27D008994A1E08922D220A705F425F412FE0002912D1059BCB
:201B80001A68111D19601268D1B24D424D410499FC316118089102990A70026802218A43B7
:201BA0000260CEE7252E02D0582EC3D0CAE70020607025202070012078E0002B07D149078E
:201BC0000BD5089A511E08910199117005E0089A511E08912B21117000270399039765182A
:201BE000089B0178C907264608D10299491CC91A42689142264601DC691A4E1C591C04980D
:201C00004300002730463A4603F04AFC08900599002903D0411C0891077000E00146A9427A
:201C200006D8481E691A491C202203F00BFD2F7006980078C00606D4311B2022204603F0FF
:201C400001FD059D2EE0A642059D2BD0311B302720463A4603F0F6FC069B0798414241419E
:201C600003980140012905D11878400702D43046214604E03078611C2070701C37701A7B9D
:201C8000412A0CD0582A05D0612A08D0782A01D0702A07D11B781B0701D4612A02D14278BC
:201CA0004A704770204603F0D4FC401909B0F0BD4230240043020000F8B514460F46054649
:201CC0008068002804D4286810218843286001E00120A860287B1026582808D0782806D057
:201CE000702804D06F2801D1082600E00A262846194600F055F8AA68002A09D102460A431C
:201D000006D12878000749D52B7B0020024612E02B7B642B03D1642300290BD504E0692B16
:201D200008D1002906D5692301223A60002240428A4100E00A4600941146324600F0B0F8E3
:201D4000A968884206DA401C21684A1E226030220A70F5E7287B582803D0782801D0702852
:201D60000FD1297809070CD5702800D1782021684A1E226008702068411E216030210170DB
:201D8000287B6F280AD12878000707D520684178302903D0411E216030210170F8BDC046E1
:201DA00010B5037B702B05D10868021D0A60006800226FE00068384A024001204403A24225
:201DC00022D0402A20D00402A24230D04402A24246D0C402A2422AD00403A24214D0202AD0
:201DE00012D100221C46643C142C06D8A0402B4C204204D1212420423ED1582B49D108686D
:201E0000031D0B60008845E000221C46643C142C06D8A040214C204204D1212420422BD121
:201E2000582B36D10868031D0B60006832E01A46643A142A06D89040184A104206D12122EB
:201E4000104203D10020582B024623D10868C21D072082431046083008601068526819E021
:201E600000221C46643C142C0CD8A0400B4C20420AD12124204205D00868021D0A600068C9
:201E8000C21707E0582B04D10868031D0B60007800E01046114610BD603F000000081200A4
:201EA000FEB501920D460646582B01D0174800E015480090089802903046284305D1029A38
:201EC0001068411E116030210170019C3046284313D030462946224600F01AF807460D46A8
:201EE000224603F0CBFA301A0099085C029B19684A1E1A6008703E46E8E70298006803F0BB
:201F0000A8FB401EFEBDC046087200001972000080B5102A06D0082A09D1C0084A078018F8
:201F2000C90880BD00090A078018090980BD002904D1114603F096F8002180BD002303F048
:201F400039FB80BDF0B587B0F2480068C0B2012800D0DDE10120069003F036FBEE4C2080B4
:201F600003F03CFBED49088000210591615EEC4B1A685118196000B2EA4B1A6815181D6055
:201F80004120C7000846394602F0F0FE03F024FAE54AE64B01F0CEFF04460E46E44804600F
:201FA00041602846394602F0E1FE03F015FADE4ADE4B01F0BFFFDF4A03C2DF4D28780128DD
:201FC00064D1DE4903C90322930700273A46049301F043F902460B462046314602F0C0FD8A
:201FE000002804D102F0F8FF002800D1B4E1D448012101702F70D3480770D3480770D348E0
:202000000178D3480078421E504250410129069900D00146012939D101F05EFB01F0E2F907
:20202000400002F0D3F902F069FFCA490860002809D1BB4B1968BB4C22685118CA0F8918D0
:2020400049101960216003F0C7F904460D46FA4804604160F94903C922462B4601F0F8F8CE
:2020600002F04CFFF64E3060F64903C922462B4601F0F3F802F042FFF44C206030462146BF
:2020800003F092F93068216802F01AFDEE4F3878012858D1AD480178AD480078421E50428C
:2020A00050410129069900D0014601292FD101F013FBEE48006802F0F5FF0246F9480B4628
:2020C00000F0A2FE02F05CFCF34990C902F0EAFF05460E4620463946F14F2A46334601F018
:2020E000BCF802F00BFFE44C2060EC4903C92A46334601F0ADF802F001FFE14D28602046F2
:20210000294603F051F92068296802F0D9FCD14860C8D14903C90024E34B224601F09DF8CC
:2021200002460B462846314602F01AFD00280AD03C70CB48047003F0FFF803F077F9D3487B
:202140000168491C0160D9480078012847D1D0480178D0480078421E504250410129069909
:2021600000D0014601293AD101F0B6FACA4903C902F0C4FEC04C2060C84903C902F0BEFEC8
:20218000BF4D28602046294603F00EF92068296802F096FCC64830C8C64AC74B2046294642
:2021A00001F05BF8AB4AC0CA32463B4602F0C4FC002807D13046394622462B4602F0DAFC1B
:2021C00000280CD003F0B8F803F030F90599B7480170A3480170AD480168491C0160AA48BC
:2021E000007801289A4F00D092E003F0CBF903F0D5F9A7480178A7480078421E5042504149
:20220000012900D00690069801287FD101F09AFB984903C902F072FE974C2060974903C973
:2022200002F06CFE964D28602046294603F0BCF82068296802F044FC8A48856AC46A0022FF
:2022400028462146134602F095FC002820D08748006802F027FF074606910026984B28460B
:202260002146324600F0F9FF3A46794F069B02F06DFC00284AD003F05FF803F0D7F882483B
:2022800006707748067081480168491C01603DE0002228462146134602F04EFC002835D0C5
:2022A0007248006802F0FEFE07460E4601208307002206922846214600F0CFFF05973A4659
:2022C0000496334602F04CFC0746032083072846069D21462A4600F0C0FF002F5C4F15D061
:2022E000059A049B02F032FC00280FD0734C2068411C2160092809DB03F01EF803F096F8B5
:2023000061480570564805702560BCE70120B86207B0F0BD203086404C0B20204E0B20207F
:20232000440B2020480B2020624A24D1CB282E40E00A2020E80A2020520B2020C00A202076
:20234000550B2020540B2020590B2020560B2020570B2020380B202040480078012867D173
:20236000404F0024404B38462246039403F096F93E48006802F0C4FF03F02EF8024638469E
:202380000B4601F0F7F83A4B224602F01AFD394903C902F0B3FD384C2060384903C902F0E3
:2023A000ADFD374E30602046314602F0FDFF2068316802F085FB2D48006802F073FE054675
:2023C0000C46B86A0290FE6A01218B073146039F3A4600F042FF01952A463D46009423468B
:2023E00002F0BEFB0746029831462A46049B00F034FF002F00D102E6019A009B02F0A6FBF1
:20240000002800D1FBE51F4C2068411C2160092800DAF4E502F090FF03F008F81A480570E3
:202420000F480570256019480168491C0160E6E50B4801210170E0E5C80A2020F00A2020F9
:202440003C0B2020F80A2020510B2020400B202020308640E00A2020C00A2020550B2020A2
:20246000540B202060092020007066403C05202000005940000B20203C0B2020080B2020BF
:20248000400B2020300B2020500B2020340B2020560B2020570B2020F00A2020F80A20205D
:2024A000510B2020B0082020000014C0530B2020180B20209A9999999999B9BF2C0B20202D
:2024C000000028C0F0B583B000910290E14F103F02253D6001243C600A26304602F022FE5D
:2024E000DC480560304602F01DFEDA480460304602F018FED7480560304602F013FE3C6033
:20250000304602F00FFED34804603D60304602F009FE3C60304602F005FECE4804603D609D
:20252000304602F0FFFD3C60304602F0FBFDC94804603D60304602F0F5FD3C60304602F0CB
:20254000F1FDC44804603D60304602F0EBFD3C60304602F0E7FDBF4804600560304602F010
:20256000E1FD3C60304602F0DDFDBA4804600560304602F0D7FD3C60304602F0D3FDB548C7
:2025800004600560304602F0CDFD3C60304602F0C9FDB048046001953D60304602F0C2FDC0
:2025A0003C60304602F0BEFDAA480460304602F0B9FD0098002853D0A648019E06600A25E3
:2025C000284602F0AFFD3C60284602F0ABFDA14804603E60284602F0A5FD3C60284602F062
:2025E000A1FD9C4804600660284602F09BFD3C60284602F097FD974804600660284602F0FE
:2026000091FD3C60284602F08DFD924804600660284602F087FD3C60284602F083FD8D48CD
:2026200004600660284602F07DFD3C60284602F079FD884804600660284602F073FD3C607E
:20264000284602F06FFD834804600660284602F069FD3C60284602F065FD7E4804605CE08F
:202660007C49019808600A25284602F05BFD794E103E3460284602F055FD76490C6001988E
:202680000860284602F04EFD3460284602F04AFD70490C6001980860284602F043FD346092
:2026A000284602F03FFD6B490C6001980860284602F038FD3460284602F034FD65490C6089
:2026C00001980860284602F02DFD3460284602F029FD60490C6001980860284602F022FDC0
:2026E0003460284602F01EFD5A490C6001980860284602F017FD3460284602F013FD5548A6
:20270000046001990160284602F00CFD3460284602F008FD4F480460019E3E600A25284623
:2027200002F000FD3C60284602F0FCFC49480460284602F0F7FC029840B20028454800DA53
:2027400038460660284602F0EDFC3C60284602F0E9FC40490C6002984006084600D53846F5
:202760000660284602F0DEFC3C60284602F0DAFC38490C6002988006084600D538460660D3
:20278000284602F0CFFC3C60284602F0CBFC31490C600298C006084600D538460660284690
:2027A00002F0C0FC3C60284602F0BCFC29490C6002980007084600D538460660284602F0D1
:2027C000B1FC3C60284602F0ADFC22490C6002984007084600D538460660284602F0A2FCEA
:2027E0003C60284602F09EFC1A490C6002988007084600D538460660284602F093FC3C60C1
:20280000284602F08FFC13490C600298C007084600D038460660284602F084FC3C602846B8
:2028200002F080FC0B4804603E60284602F07AFC3C60284602F076FC06480460284602F07F
:2028400071FC044806603C60284602F06BFC3E6003B0F0BDA0120A40F0B589B00021CC48E9
:20286000CC4F10E0089E3E603D46103D079828600A2002F057FC2E600099491C0198401C22
:20288000082900D182E10190B02000910843C0B200242146FFF716FE20462146FFF712FEBC
:2028A000102002942146FFF70DFE3E46103E022008903060012434600A25284602F032FC58
:2028C00008983860284602F02DFC3C60284602F029FC08983860284602F024FC346028465C
:2028E00002F020FC3C6008983060284602F01AFC3460284602F016FC3C6008983060284648
:2029000002F010FC3460284602F00CFC3C6008983060284602F006FC3460284602F002FC9D
:202920003C6008983060284602F0FCFB3460284602F0F8FB3C6008983860284602F0F2FB6C
:202940003460284602F0EEFB3C6008983860284602F0E8FB3460284602F0E4FB3C60089874
:202960003860284602F0DEFB3460284602F0DAFB3C6008983060284602F0D4FB34602846C0
:2029800002F0D0FB3C60284602F0CCFB08983860284602F0C7FB3460284602F0C3FB3C600F
:2029A00008983060284602F0BDFB3460284602F0B9FB3C6008983860284602F0B3FB3460B1
:2029C000284602F0AFFB3C6008983860284602F0A9FB3460284602F0A5FB3C6008983860AD
:2029E000284602F09FFB3460284602F09BFB3C6008983860284602F095FB3460284602F09B
:202A000091FB3C6008983860284602F08BFB3460284602F087FB3C6008983860284602F0C6
:202A200081FB3460284602F07DFB3C6008983060284602F077FB03963460284602F072FB16
:202A400007943C60284602F06DFB8020019E1FE0089E0660284602F065FB079F27602846D2
:202A600002F060FB4B4807602660284602F05AFB2760284602F056FB4648076007462846EC
:202A800002F050FB059E08360698401E00D1E9E606903846029905967756002F00DA0398C1
:202AA000089901600A25284602F03CFB039C079E2660284602F036FB36490E60780608463A
:202AC00000D5204608990160284602F02BFB079E2660284602F026FB2E490E60B806084696
:202AE00000D5204608990160284602F01BFB079E2660284602F016FB26490E60F80608465E
:202B000000D5204608990160284602F00BFB079E2660284602F006FB1E490E603807084624
:202B200000D5204608990160284602F0FBFA079E2660284602F0F6FA16490E6078070846EE
:202B400000D5204608990160284602F0EBFA079E2660284602F0E6FA0E490E600497B80769
:202B6000084600D5204608990160284602F0DAFA079F2760284602F0D5FA064E37600498B3
:202B8000C007304600D163E7204661E709B0F0BD00002020A0120A40F0B58CB00A91019080
:202BA000082B01D1062408E0D808590700D0401C5C084443200600D119E1119D203AD1B22B
:202BC000580800902420029148438A4909180020E2B203922C46019E05460493089409E0EE
:202BE00006460799069D6D1CE8B2491C039A904200D3FCE0082B0791069504D10621029AA2
:202C000051437F4A0FE0182B00D1EEE0102B07D00C2B00D0EBE00C21029A5143774A02E0A2
:202C200002990901744A511808180B900596F1B20A9AD0B2C60807200240012709979740D3
:202C4000C900704A5518A95D0A46BA430F43002C394600D0114600240B9B1C570B94089B8E
:202C6000002B00D03A460B9CE40700D01146A9550A994A1CD1B2CE08024009999140AC5D02
:202C800022468A432143089C002C0F4600D01746002C00D00A460B99890700D51746AF5593
:202CA0000A998A1CD1B2CE08024009999140AC5D22468A432143089C002C0F4600D01746C9
:202CC000002C00D00A460B99490700D51746AF550A99CA1CD1B2CE08024009999140AC5DDE
:202CE00022468A432143089C002C0F4600D01746002C00D00A460B99090700D51746AF55B3
:202D00000A990A1DD1B2CE08024009999140AC5D22468A432143089C002C0F4600D01746E7
:202D2000002C00D00A460B99C90600D51746AF550A994A1DD1B2CE08024009999140AC5D7D
:202D400022468A432143089C002C0F4600D01746002C00D00A460B99890600D51746AF55D3
:202D60000A998A1DD1B2CE08024009999140AC5D22468A432143089C002C0F4600D0174607
:202D8000002C049B00D00A460B99490600D51746AF550A99C91DCAB2D6080840099A82408F
:202DA000A95D084690430A43002C1746114600D00146002C00D038460B9A002A00D408463D
:202DC000A8550598401C082B00D109E7C1B2019A891A009DA942164600D00646A94200D09D
:202DE000FFE60A9808300A90FBE60B911EE70CB0F0BDC046C05600001C6400000C6A00007D
:202E0000806E000000002020F0B587B0014602634363806A0691C96A00F01AFA05460E46FF
:202E20000022814B01F0A6FE00282DD07E4C0027284631463A467D4B00F00FFA05460E4634
:202E40003A46234601F096FE00281DD00027284631463A46754B00F000FA05460E463A469A
:202E6000234601F087FE00280ED00027284631463A466E4B00F0F1F905460E463A462346C6
:202E800001F078FE0028D2D106988565C6650024674B28463146224601F04EFE002805942C
:202EA00031D0634C0027284631463A46614B00F0D4F905460E463A46234601F03DFE002891
:202EC0001DD00027284631463A465A4B00F0C5F905460E463A46234601F02EFE00280ED07B
:202EE0000027284631463A46524B00F0B6F905460E463A46234601F01FFE0028D2D106980B
:202F00008565C665059C0120C007314681434A4B2846224601F010FE00282746204625D07E
:202F200006980CC82846314600F097F904900C460027424B3A4601F01DFE0390404A0498DB
:202F40000294214614463A46234601F0F5FD0028394600D10499002800D1029C039A002ADB
:202F6000364800D12046002A00D10F460290069C27606060226963692846314600F0DAFFCC
:202F80000490039120646164A269E3693846029900F0D0FF02900191A064E164276A606AC9
:202FA0000090226E636E2846314600F051F902460B463846009900F0BDFF00900F4620653B
:202FC000616504980399029A019B00F046F9009A3B4600F042F9044603911A4B059F3A46DF
:202FE00001F0C8FD0490184B02942046039C21463A461F4601F0A0FD002800D12746002821
:203000000598024600D1029A049B002B0D4900D11046002B00D13946069A9063D16315665A
:20302000566607B0F0BDC04600806640008076C0008066C0008076400000244000004940C5
:20304000000049C000409F4000409FC09AB002F087F86448016801273943016002F092FA56
:2030600002F09CFA0024089409940A940B940794069405940494039402945B4E01960094C7
:203080005A485B4D22462B4601F0C6FB089409940A940B940094019602940394049405945C
:2030A00006940794534822462B4601F0B5FB089409940A940B940094019402940394049462
:2030C0000594069407944C484C4D4D4E2A46334601F0A2FB089409940A940B940094019444
:2030E00002940394049405940694079445482A46334601F091FB089409940A940B94009440
:2031000001940294039404940594069407943E483E4B2A4601F080FB089409940A940B9426
:2031200007940694059404943948039039480290394801903948009039483A4A3A4B01F064
:203140006BFB089409940A940B94009401940294039404940594069407943448344B224674
:2031600001F05AFB01F056FEFCF7AAFF02F07EFAF904304A1160FB0313600C97BC0314608F
:203180000220106010602C4A116013601460106010602A48014601F093FCFDF757FD0C9D55
:2031A000274802680DAE3046264902F0E1F80095002410272046214632463B4601F0E4F947
:2031C000FFF74AFB204802683046204902F0D0F800952046394632463B4601F0D5F9FFF721
:2031E0003BFBDDE70458084000002140500720200000184000082020F00520203333333398
:203200003333D33FA0062020600920203333F33FF3FDC43FCBA145B67493683FFA7E6ABC69
:20322000400520209A99999999993F40B00820200020724080E200E000E100E0B80B000063
:20324000440B20202A720000480B202036720000FCB40124E407634002E0FCB40124E40703
:2032600008B41D03ED08D60D354356025F007F0D06D12C00344300D0AEE001B0FCBC7047E7
:20328000A408254307242402FF34A74205D10020190D090501B0FCBC7047002B03D500243C
:2032A000A61BAC4125000B03DB08C20D134342024800400D07D11C00144300D08CE00EBCFB
:2032C0001000F0BC704701246407234307242402FF34A04205D10020090D090501B0FCBC9C
:2032E0007047002903D50024A21A9C412300C11B08D51C002B002500140032002600002481
:20330000611A3800362925D502B4393949420C00203C03D22F008F40374301E03700A7403A
:20332000002F01D040210E4302BC20290BD500290ED04C42203420B4A5402C0020BC0D41FC
:20334000CE40361904E000292E000D4120390E4192196B411C0014433ED00024002B04D5DF
:20336000012400218A1A99410B00401E52005B41FBD50121890215000D400CD052180027E6
:203380007B4101D3401C0BE00721C90115000D4001D189008A43072109028A4352005B41EC
:2033A000801C19DD07210902FF31884209D30EBC0020C90F0902FF31C900C91D0905F0BC0C
:2033C0007047190B00050143E40721431805120B104301B0FCBC70470021002001B0FCBC23
:2033E0007047FEE7F0B587B059490868C005C00F0A685201D50F0A689201D20F0092554AEF
:203400001368DB05DB0F01930B681B03DB0F02930B685B03DB0F039309684906C90F049145
:2034200011688905C90F059101F0B8FE06464A4901F0F0F80021069100F061FE04462846F9
:2034400001F0ACFE0746454901F0E4F8214600F056FE05463046394600F051FE064600981B
:2034600001F09CFE0746FD208105384601F0D2F8294600F044FE05463046394600F03FFE8A
:203480000646019801F08AFE07467D20C105384601F0C0F8294600F032FE05463046394628
:2034A00000F02DFE0646029801F078FE04462C4901F0B0F8294600F022FE054630462146A5
:2034C00000F01DFE0646039801F068FE0446254901F0A0F8294600F012FE054630462146CB
:2034E00000F00DFE0646049801F058FE04461E4901F090F8294600F002FE054630462146F1
:2035000000F0FDFD0646059801F048FE0446174901F080F8294600F0F2FD07463046214616
:20352000069C00F0ECFD05463846294601F0B8F80F4901F06FF801F0E3FE06462846214694
:2035400001F022FB002800D13446204607B0F0BD80330A4080130A400000E03F0000A03F48
:20356000000080BE000040BF0000A0BF0000E0BF00007A44F0B587B0044602634363806A37
:20358000E16AFFF765FE06460F46A065E16500254B4B2A4601F0EEFA0028059701D0494B6E
:2035A00009E00025484B304639462A4601F0C4FA00280AD0454B304605992A46FFF74DFEFF
:2035C00006460D46A065E16500E0059D00273F4B304629463A4601F0C3FA00280AD1002296
:2035E000384B3046294601F0B1FA002802D10CCC083C05E0A765E7653A463B463E463D466B
:203600000696304605952946FFF727FE06460D462F4B3A46049301F0ADFA02902D4B30462C
:2036200029463A46039301F087FA002800D103950028384600D130460299002900D1074633
:203640000029069901D1039804902760049D6560226963690846059E314600F06BFC03900B
:20366000029120646164A069E1693A462B4600F061FC04900191A064E164276A656A226E7E
:20368000636E06983146FFF7E3FD02460B463846294600F04FFC07460D4620656165039827
:2036A0000299049A019BFFF7D8FD3A462B46FFF7D4FDA063E163069A2266666607B0F0BD13
:2036C00000806640006076C0008066C00060764000408F4000408FC0F0B581B03B48007803
:2036E000012805D03A480078012801D001B0F0BD38480178491CCAB20170022A20D30024EC
:2037000004703548006801F067FE024633480B4600F0B0FA324D22462B4601F052FB314A3B
:2037200003C23148006801F057FE02462F480B4600F0A0FA22462B4601F043FB2C4A03C2C0
:2037400028480CC82B4801F0A9FF29480CC82A4801F0A4FF29480025405F01F03DFE284FF6
:203760002A463B4600F0E6FB264C2A46234600F0E1FB254E2A46334600F074F901F0BEFB0D
:2037800001F02AFE02461B480B4600F045F81F4A03C21F48405F01F01FFE2A463B4600F0C4
:2037A000C9FB2A46234600F0C5FB2A46334600F059F901F0A3FB01F00FFE02460E480B4615
:2037C00000F02AF8134A03C201B0F0BD560B2020570B2020580B2020440B2020F0052020AD
:2037E00000005940D00A2020480B2020A0062020D80A202050072020000820204C0B202005
:2038000000408F4000004E400050C440F00A20204E0B2020F80A2020F0B587B0044601F08B
:2038200047FB20636163A26AE36A204600F0CEFC226B636BFFF70CFD06460D4600273D4BDE
:203840003A4601F079F906903B4B304629463A4601F090F900283A4600D1324606990029D1
:2038600000D1324600283B4600D12B46002900D12B46A265E36503CC05920693083CFFF721
:20388000ECFC06460D462D4B3A4601F073F904902B4B304629463A46039301F04DF90028E8
:2038A000394600D13146002800D1039504980028059A069B214D00D1039D002800D10F467F
:2038C0002760656020696169164600F033FB0490039120646164A069E1693A462B4600F02A
:2038E00029FB02900F46A064E164256A606A0190226E636E30460699FFF7AAFC02460B46DF
:203900002846019900F016FB06460D462065616504980399029A3B46FFF79FFC32462B46E5
:20392000FFF79BFCA063E163059A2266069A626607B0F0BD0000E03F0000E0BF00408F40F3
:2039400000408FC0F0B581B03648007836490978014364D035480178491CCAB20170012A21
:2039600015D9002404703348006801F0C9FC01F033FD024630480B46FFF7FCFD2F4B224625
:2039800001F01FFA02462A480260416002E02848026841680120C3074B40294801F07EFEA7
:2039A00023480CC8274801F079FE27480025405F01F012FD254F2A463B4600F0BBFA244C44
:2039C0002A46234600F0B6FA224E2A46334600F049F801F093FA01F0FFFC024618480B4681
:2039E000FFF71AFF1C4A03C21C48405F01F0F4FC2A463B4600F09EFA2A46234600F09AFAD3
:203A00002A46334600F02EF801F078FA01F0E4FC02460C480B46FFF7FFFE114A03C201B0C2
:203A2000F0BDC046560B2020570B20205A0B2020100B20203C0520206009202000005940CD
:203A400050072020000820204C0B202000408F4000004E400050C440000B20204E0B20201B
:203A6000080B2020FCB40C005C40E40FE40710B41D032D0B56006D415F007F0D73D001244A
:203A80006405254307242402FF34A74261D00B031B0B42005B414800400D64D0012464054E
:203AA000234307242402FF34A04252D0C01B002100273624AB4200D1B24204D37F414941C8
:203AC000921BAB4101E07F414941641E06D0002B01D1002A02D052005B41EBE7202C07D2EC
:203AE000162C0AD33900A7402026361BF1400BE0203C3900A140002706E0A1402026361BD9
:203B00003D00F5402943A74001246405214202D17F004941401E00247F1C61410124A40586
:203B2000214202D0401CA14301E06408A14303242402FF34001916DD2419A04209D8CC0780
:203B40004908000501437808204310BC2143FCBC704702BC0020C90F0902FF21C900C91DB9
:203B60000905FCBC70470021002001B0FCBC7047F0B5394A8218394BC0183A4D4C790B7979
:203B8000002C22D0466F202B02D00524E70100E0354F2E40002B00D188273E434667846F86
:203BA0002C403C438467446B2D4E34404463846B3440846300244465846554688F26F64340
:203BC000344054609468344094600C688979202B09D006467036002B15D1641E4460C46E64
:203BE0002C40882715E0641E4460C46E2C401E4E3443C466046F2C40344304671B4D012496
:203C00006707064607E00527FF0164084460C46E2C403C43C46634682C403C433460C46A37
:203C20000F4D2C40C462046B2C4004630024C4640465C46F8F25ED432C40C46714682C4009
:203C40001460194302680A4B1340BD220A40D118891C0160F0BDC0468418000004180000FF
:203C60008888FDFF24493E0001040000FFFFFFCF4000FFCFF0B587B0194615460446026369
:203C80004363826AC36A284601F040F8226B636BFFF7DEFA0591A065E1650CCC0746069009
:203CA000083CFFF7DAFA05460E4603C4A268E3683846059F3946083C00F03CF90490039109
:203CC00020646164A269E3692846314600F032F906460291A064E164256A606A0190226EA2
:203CE000636E06983946FFF7B3FA02460B462846019900F01FF907460D4620656165049803
:203D000003993246029BFFF7A8FA3A462B46FFF7A4FA2546903590220492A25803926E68F8
:203D20000D4A0E4B00F006F9074602910C4B03983146094A00F0FEF83A46029BFFF78DFAC8
:203D4000A063E163049AA0506960069A2266059A626607B0F0BDC0469A9999999999C93F2D
:203D60009999E93FB0B5364A80184A6842600A78222A56D8930001A4E3589F46193E00006D
:203D8000233E0000193E0000233E0000233E0000233E0000233E0000233E0000233E000025
:203DA000233E0000233E0000233E0000233E0000233E0000233E0000233E0000093E000015
:203DC000233E0000093E0000233E0000233E0000233E0000233E0000233E0000233E0000F5
:203DE000233E0000233E0000233E0000233E0000233E0000233E0000233E0000093E0000D5
:203E0000233E0000093E0000036803242407A343012464071B1903E0036803242407A3430D
:203E200003600B69C360CB68C46A064D2540064C1C402B19C362097A11430160B0BDC046AD
:203E4000041800008888FDFF77770200F0B52C4B84201860012001032A4A116085215960A9
:203E600041031160284C822525652849616519655D619961264EDE6381251D64254F676262
:203E8000254FA76067669E63E6631D619D605D63DD602766DF659F65A764DF629F62A765EA
:203EA000E764256065601346303B1C4C1C601346403B03251D60E31C1360194A13680406F2
:203EC0001C431460174A136A0407234313621368234313608205144B1A601A63134A136842
:203EE000891E19431160116940020143116110490A6A02430A620A6802430A60F0BDC0468A
:203F000088804240D0120A40048042408200040081000E008100010081000D0020C041009F
:203F2000A0130A4028100A40A0320A4090330A4028300A40FCB50C005C40E40FE40710B43C
:203F4000DD02540D2543D6025F007F0D60D00124E407254307242402FF34A74250D0CB02F4
:203F6000440D2343C2024800400D51D00124E407234307242402FF34A04241D0C01901B495
:203F80001800290001F082F90F0001B41800310001F07CF903000C001000310001F076F951
:203FA00006001000290001F071F905007618002202BC01BC55415141A41955415141802486
:203FC000A4005B195141FF18514100D564003F19514102D47F00494100E0401C0324240203
:203FE000FF34001B14DD2419A04209D80305F80A4C0520434900090B194310BC2143FCBD22
:204000000020FF21C900C91D090510BC2143FCBD0021002001B0FCBDF0B584B03049314A42
:204020000125AC0316682B0203939E4316600E68264205D10E68264202D10E682642F6D00A
:204040006C02467E9769AF432E40BD1995612025455DD6690327BE433D407519D561224D01
:204060002E680727374005262E60466A33681362736853622F60C3695B065B0CD5697F2696
:204080003602B543EB18D361E8C8009707680197476802971B071B0B2D03ADB2ED1833070D
:2040A0001B0D007A009E35431D43019B1D43029B1D43054390690D4B03400D482840C0187E
:2040C00090611068039B184310600868204205D10868204202D108682042F6D004B0F0BDC8
:2040E00004020B4008010B40001340408D00F0FF72FF0F00FCB40127FF07794002E0FCB463
:204100000127FF070C024D002D0E03D1002C52D1FCBC70473C43FF2D50D0A408002900D5D4
:204120006442020243001B0E04D1002A43D10800FCBC70473A43FF2B41D09208002800D590
:2041400052425E1B04D5170022003C0076422B00192E06D527003741D2191C27F71B7F425F
:20416000BC40002A27D002D55242012700E00027013B5200FCD51500802635400FD0150005
:20418000202635402C43803208D21500402635402C4304D101263602B24300E05B1C520038
:2041A000023308DDFF2B0BD2500ADB051843FF073843FCBC70470020FCBC70470800C70FEC
:2041C000FF07FF20C0053843FCBC7047F0B585B0194604468834076B436B0392104604912C
:2041E0003A460293FFF734F80125EA079143244A244B00F0A1FC00260028304607D1384619
:2042000002AB0ECB00F098FC0028284606D0206201F0E2F802900191AF0706E00026F043C2
:204220002062194F194801900296A268E3680398049904920393FFF70BF805460120C00725
:2042400000918143284632463B4600F093FC394607463046029A019BFFF76CFE02460B46B0
:20426000002F00D12A46002F00D1009B04980399FEF7F3FF03C42060616005B0F0BDC046A4
:20428000FCA9F1D24D62503F000008400000F0BFF0B58B4200D1824204D90B00020000216F
:2042A000002040E0002B00D1002A0CD10B00020000210020002B00D1002A01D0C943C04367
:2042C00000F0E5FA2FE01C0015000B0002000CB4002126002F00FF19764102D2491C40291B
:2042E000F9D100201E001700FF19764102D2401C4028F9D10E1A21002800320001F0F2F8F0
:204300000C0005000CBC00200021A34200D1AA4201D3521BA341404149416D08E7073D43CE
:204320006408761EF1D5059F002F01D03A607B60F0BD002A49D084468B071CD1830722D1E8
:20434000102A08D370B4103A78C978C0103AFBD270BC103238D0042A2CD3082A05D30C2A67
:2043600001D308C908C008C908C008C908C092072AD0920F22E00B780370491C401C521E41
:2043800022D08B07F7D1C30714D18307D8D0121F12D308C903801B0C4380001D121FF8D284
:2043A0000AE008C903701B0A43701B0A83701B0AC370001D121FF4D2121D05D00B78037079
:2043C000491C401C521EF9D160467047F0B581B001F002F806460D46204CA065E1652069E5
:2043E000616932462B46FFF7A5FD2064616403CC32462B46083CFEF730FF03C40022184BBD
:20440000083C00F0DEFC03C422696369083CFFF791FD00900D46A064E164266A676A2346B2
:2044200058330FCBFEF714FF02460B4630463946FFF780FD06460F4620656165226C636CC5
:2044400000982946FEF709FF02460B4630463946FEF703FFA063E16301B0F0BD100A2020D4
:204460000058AB4010B51E491E4C204601F0C0F81D49204600F068FD1C4801680322D2036C
:204480009143016001691A4B0B4001210A029B181B1D036143691B241C4324239C4344613B
:2044A00043680B4044688C43E3184360114B1C680C431C608C021C6303684C041C430460B7
:2044C000C36820241C4350239C43C460C3680F242402A3439A18C26002680A43026010BD74
:2044E000677200000020104056720000003110400000FFFF28301040F0B581B01C491D4CE0
:20450000204601F00DF81C492046FFF731FB1B4801681B4A0A4002600025009520462946E6
:204520002A462B4601F00AF8204629462A4600F0E9FF7D208601204631462A4601F06AF8C6
:2045400001270097204629462A462B4600F0F6FF204629463A4600F0D5FF204631463A468B
:2045600001F058F8074887600321016001B0F0BDB171000000400840A8700000045808407B
:204580007F00FFFF00510840F0B585B00646177838462038C0B25E283AD8082B01D058080C
:2045A00000E0062002900A980490D41C0391029D04980090F0B2FAB203991F46FEF7ECFAB4
:2045C000A01E027810462038C0B25E2820D80298361804980090F0B203993B46FEF7DCFA67
:2045E000601E027810462038C0B25E2810D8761904980090F0B203993B46FEF7CDFA3B467E
:204600007619277838462038C0B2E41C5F28CFD305B0F0BDFCB40127FF0706004E4001D452
:20462000002600E03E00020243001B0E30D03A43FF2B30D00C024D002D0E29D03C43FF2DE5
:2046400029D05B194240504042404C4061404C4000B500F01BFE20BCAE464240504042407E
:204660004C4061404C4025001400002C01D46400013B803401D3013364087E3B08DDFF2BB7
:2046800009D2BC43200ADB0518433043FCBC70470020FCBC7047FF20C0053043FCBC7047A4
:2046A000FCB40127FF0706004E40F60FF607020243001B0E2DD03A43FF2B2DD00C024D001A
:2046C0002D0E26D03C43FF2D26D05B1B0020202164085208A2424041A24200D3121B0139E8
:2046E00004D0002A01D05200F4D18840384201D14000013B803001D3013300E040007F33BA
:2047000007DDFF2B08D2400ADB0518433043FCBC70470020FCBC7047FF20C0053043FCBCAC
:2047200070477047F8B5451C00780023082B32D02F78C2070CD16A780F241440E41C122C39
:204740000BD102242E57F4B2002E08D4EE1C0EE06D1C4A1C0F7011461AE0AE1C08E02E1D6E
:20476000ED7800957F252C40009DED012C1912343D0112095219094DAA420ED0D243002CF4
:2047800005D08D5C4F1C0D70641E3946F7E7354640085B1CCAE72846C5E7F8BDFF0F0000CC
:2047A000F0B517480068022828D10020C0431549154A1346103B1B68DB000CD50124230758
:2047C0000F68124D2E68FF0200D50446A4192C6014681C4314600E4A1346103B1B689B0596
:2047E0000CD5012463020E680A490D68360700D5044660190860106818431060F0BDC046DD
:204800003011404080330A4048100A40240B202048300A40280B2020F0B589B01F461646F5
:20482000189908911999079116990691179905911599029114990191129904911399039158
:204840000EAD3CCD00210160416006614761064618363CC68162C1620163416302468032BE
:204860008023019CC450029B53608165C16501664166049981660399C1660699016705998E
:204880004167089981670799C16709B0F0BD704710B51649164C204600F0AAFE15492046BA
:2048A00000F052FB144802680321CB039A4302600269124B1340412292009A1802614269F4
:2048C0001B231343242293434361426801231A4044689C43A2184260094A146889022143B7
:2048E000116001681943016010BDC046637200000080104042720000009110400000FFFF16
:2049000028901040FEB502930F46194D0024E143184E00973740019043422B46BB4101D27A
:204920000C4623E0084602990E405342B54101D204461BE0134601990B433E431E43029D86
:20494000009E13D02B46334004D401998B1A3346AB4103E00199531A2B46B341044605DBFD
:2049600051406E400E43701E864134462046FEBD0000F07FFFFFFF7F80B500F0EBFD80BD82
:204980000CB41B4B4A00D21A1BD2000D0A03104301221202801802D3400812038918400A75
:2049A000002902D50122D20710434900490D38221201891A0CD4FF290DD2C90508430CBC31
:2049C0007047DB431A40024305D0D8430CBC704700200CBC7047C90FC907FF20C00508437E
:2049E0000CBC7047C046C046C046C046C046C0460000E0FFF8B50446164F174D0E462E40B3
:204A00000120009464423C46B4411AD31D405442AF4116D31046009C20433543054311D015
:204A20000020C0431C460C400ED4009CA41A0C469C4106DB0098504059400143481E81412C
:204A40000846F8BD0020F8BD009C141B1C468C41F0DAF6E70000F07FFFFFFF7F70B5154870
:204A600000240460144D28680F21090288430126710240182860281F01680322D2430A4009
:204A800002606868B043686068683102884368600A48FFF7C1FA2868102101432020814387
:204AA00029602868310301432960204600F0B8FA70BDC04608030B4004010B40B4710000D6
:204AC000F0B581B00C46154E374610370028394600DC31460028324600DC3A4601252B043C
:204AE0000B60A9031160C1174840411A0C48002200F090FD002C384600DC3046002C00DC7C
:204B00003E46A9050160E8033060E0174440211A03482A4600F07EFD01B0F0BD90120A4061
:204B20000040084010B5FFF765FF002801D0002010BD012010BDC04610B5FFF75BFF0028B7
:204B400001DB002010BD012010BDC04610B5FFF751FF002801DD002010BD012010BDC046A6
:204B600010B5FFF7CFFE002801DA002010BD012010BDC04610B5FFF7C5FE002801DC002026
:204B800010BD012010BD000010B500F061FB002801D0002010BD012010BDC04610B500F0BA
:204BA00057FB002801DB002010BD012010BDC04610B500F04DFB002801DD002010BD0120AD
:204BC00010BDC04610B500F007FB002801DA002010BD012010BDC04610B500F0FDFA002893
:204BE00001DC002010BD012010BD8446830706D0002A29D001700130013A8307F8D1042A52
:204C00001CD30906090E0B0219430B041943082A10D30B00102A09D370B40F24161B22408B
:204C20000C000D003AC0103EFCD870BC082A01D30AC0083A042A01D302C0043A002A03D002
:204C4000013A8154013AFCD26046704710B51249124C204600F0CCFC1149204600F074F925
:204C6000104801680322D2039143016001690E4A0A40911C016141690B220A4334218A43E3
:204C80004261416801221140436893435918416001681143016010BD6572000000001040AF
:204CA0004C720000001110400000FFFFF0B581B00D480E4941600E4A51600E4B59600E4C3F
:204CC00061600E4D69600E4E71600E4F79600E490160116019602160296031603960102086
:204CE00000F0CAFC01B0F0BD00080A40030000B100280A40004808400028864000881040D2
:204D0000002810400008104001000026F0B581B01E4617460B460546104631462A46009399
:204D2000FEF796FA0122D207914300220D4C2346FFF720FF002811D0384631462A46009E19
:204D40003346FFF717FF002800D1074C002021462A463346FEF781FA07460E46384631460C
:204D600001B0F0BD00003440000034C01CB5002922D04C08002900D5494242105440002896
:204D800000D5404200230A00904201D95200FBE790425B41904200D3801A914201D2520802
:204DA000F6E71900002C00D54042640000D549420200080011001CBD01000020FFF7B1FCFE
:204DC0001CBDF0B583B01F4600920D460446FFF7D1FE01900120C60702977E4027462C4614
:204DE000009D284631463A462346FFF7C3FE002800D126460028284600D13846019A002A82
:204E0000029900D10546002A00D13146284603B0F0BD000080B58CB00020089009900A903F
:204E20000B900790069005900490074803900748029007480190074800900748074A084B0C
:204E4000FFF7EAFC0CB080BDF3FDC43FCBA145B67493683FFA7E6ABC100A20209A99999918
:204E600099993F40F0B581B00646536894689589D0890090176950691C432C433C43009B80
:204E80001843000120430B01F3180924640218511078527889007118024304480B58BF2405
:204EA000A34322409A180A5001B0F0BD10110000F0B583B002930192064604469834A068B5
:204EC000E1680B4A0B4BFFF735F807460D460A4B01980299064AFFF72DF83A462B46FEF741
:204EE000BCF99822B0506160A060E16003B0F0BD9A9999999999E93F9999C93F0CB54A00DD
:204F0000520D03231B02FF33D21A13D31F239A1A12D98E46C9020123DB071943D1400B2AC3
:204F200002D21532D04001437346002B00D5494208000CBD00200CBD0B000120C007002BE6
:204F400000D401380CBD000070B511221302C218C4580125AC43C4500C888D7825438C88DA
:204F60002C43C558084E2E40084D25407419C4508879CB790343087A184351687E239943E8
:204F800018400818506070BDE798FDFF1867000010B50B490B4C204600F0C2FA0A49204687
:204FA000FEF7E0FE0948016801221143016008480168FF231B06994301600648026010BDD6
:204FC0006072000000208640F47100002830864010E400E008318640B0B50F490A68002074
:204FE000D20518D40A68520115D40A68920112D401221402094B1D6825420CD10C68240364
:2050000009D40C68640306D40968490603D41868400A82431046B0BD80330A4080130A403B
:2050200010B50E490E4A01235C0590600868204205D10868204202D108682042F6D010682A
:205040001B04034313600868C00605D40868C00602D40868C006F6D510BDC04604020B4038
:2050600004010B401CB50A0017D000230124E407A04200D20400944201D95200FBE790427D
:205080005B41904200D3801A914201D25208F6E719000200080011001CBD01000020FFF734
:2050A00040FB1CBD08B443001B0E0FD0FF2B11D00721C9015B18C10FC9020B43010048072C
:2050C0004902090B1B05194308BC70470021002008BC704701004002C90DC900C91D0905E8
:2050E00008BC704710B50E4902788B185B78401CDB06F9D400212D2A04D02B2A02D0401E4E
:20510000134600E00378303B092B04D80A244C431919401CF6E72D2A00D14942084610BD6A
:20512000B070000080B582B001900198411E0191002813D0502000F09FFA0198411E01913F
:2051400000280BD0502000F097FA0198411E0191002803D0502000F08FFAE6E702B080BD31
:2051600080B5FFF7A3FDFEF771FEFFF777FCFFF7C3F9FFF70DFFFFF78BFBFFF773F9FFF70F
:2051800065FDFFF7F9FB00F09DF900F03BF90248B8210022425480BD8004202006B49E22C3
:2051A000002802D404D106BC7047414204D400E00100013A4900FCD5803101D3013200E07A
:2051C0004900490AD2051143002802D50122D2071143080006BC704740B542004B005E0850
:2051E000164301D006004E4000D4D01A04D20120C90F06D1404204E003D90120C90F00D082
:205200004042FF263606B24200D8B34201D90120404240BD70B50A480A4C84420CD00A4DAA
:205220000A4EB54208D02A686968501C12789200A25890470835F4E700BF00BF70BDC046C2
:205240007C7200007072000090720000A072000040B542004B005E08164301D006004E40C4
:2052600000D4D01A04D20120C90F06D1404204E003D90120C90F00D04042FF263606B242E8
:2052800000D8B34200D9012040BD0000FCB4020C0B0CFF242402FF34204021400C004443A5
:2052A00015005D4306005E430F005743320C3B0CA818C01832043B040025A1186841C918EF
:2052C0006841FCBC704700000A480068C0B20B280ED10948C169094A117011780268D2075D
:2052E00005D00268D20702D00268D207F6D181617047C04620901040089110405B0B20208C
:2053000006B54100090E7F390DD41F22511A0CD9864600020122D2071043C8407246002A49
:2053200000D5404206BD002006BD02000120C007002A00D4401E06BD80B50948002101704F
:2053400008480078002804D107480168012291430160064800210A4600F05CF980BDC04631
:20536000560B2020570B2020045808400040084082B0F8B5069207930291019006A9039146
:2053800007480090074B02A801AAFCF7A7F9019900220A7004B080BC02BC02B00847C04609
:2053A0006D55000083560000B0B5094B094A05689542144602DC9D421C4600DA04600868DB
:2053C000904202DC98421A4600DA0A60B0BDC046A8E4FFFF581B000004B40422002802D156
:2053E000002104BC704701D50832404212021F320100521E4900FCD30805090B1205114309
:2054000004BC70470748084902680A408A4207D002680A408A4203D002680A408A42F3D187
:205420007047C04604020B40000A200080B5064800210170054803680122934303600448BF
:2054400000F0E8F880BDC046570B20200458084000400840084880F3088800BF00BF00F0AA
:2054600027F9002801D0FFF7D5FE0020FDF7EEFD012000F016F9C0460080202030B514006C
:205480004C4325001C0044436419050010002900FFF7FCFE001904000D002100280030BDAA
:2054A000B0B504460020002B08D0D2B20D782570954204D0641C491C5B1EF7D1B0BD601CC2
:2054C000B0BD00000548042101600549416000218160016805220A430260704710E000E0D5
:2054E000FF69180018B520239B1A04D8010000205B42994004E004009140DC4021439040EB
:2055000018BD000010B592008018044A83580724A404A34321405918815010BD301800002D
:2055200010B50122120383180C789C604B7883508978014A815010BD0C11000010B5029C53
:20554000A400001911431943014A815010BDC0465018000080B5034A03480021FFF782FC25
:2055600080BDC046DC71000000A04240B0B514460D460146286800F08DF8286800192860EA
:205580002046B0BD034801210170034802680A4302607047560B202004580840034801218D
:2055A0000170034802680A4302607047570B20200458084040B584B002AE0096FEF768FE4F
:2055C000029A039B04B040BD72B60349086800220A6062B67047C046240B202072B60349B8
:2055E000086800220A6062B67047C046280B202010B50122120383180C789C6049788150BD
:2056000010BD80B50B4603214258C11D184600F041F880BD92008018014A81507047C046D4
:205620001018000000214258091D002AFBD1081F8010704780B50A4603214158104600F075
:205640000FF880BD0B4611461A4680B5FFF7CDFA80BD0021425C491C002AFBD1481E704798
:205660000A46002180B5FFF7C0FA80BD0148202101607047A0120A40811E091F00BFFCD2A5
:2056800070470A68531C0B601070704700487047200B202080B5FEF74CFE80BD8262C362AC
:2056A000704700F001F8FEE700BF7047D2E6704701207047000000000000000000000000A8
:2056C0000000000000000000000000000000000000000000000000000000000000000000CA
:2056E000000000000000000000F0F0F0000000000000000000017F01000000000000000059
:20570000001C1C1C0000000000008060301C8C60301C0C00000000000000000000000000C5
:20572000000000000000000000000000000000E00000000000E000000086E69F8686868686
:20574000E69F860000011F01010101011F010100000080C06020F820E0C000000000030776
:205760000C18FF70E18100000000070F10107F100F0700008060206080000000E020000079
:205780000F3020309F70DC371030C0000000100E03000718101807000000C02020E0C00049
:2057A0000000000080E01F38E88703C43C040000070F1810100B070D1010080000808C4CCF
:2057C000380000000000000000000000000000000000000000000000000000000000000091
:2057E00000000000000080E0300804000000000000FEFF0100000000000000000000030FFD
:205800001820400000040830E0800000000000000000000001FFFE000000000000402018FE
:205820000F03000000000000000000000000C00000000000004266663C18FF183C666642D3
:20584000000000000000030000000000000000000000800000000000001010101010FF1066
:205860001010101000000000000003000000000000000000000000000000000000000000E5
:20588000000000000000000000808C4C380000000000000000000000000000000000000078
:2058A000001010101010101010101000000000000000000000000000000000000000000048
:2058C0000000000000000000000000000000000000001C1C1C000000000000000000000074
:2058E00000000000E0380C000000000080701C03000000000060380E0100000000000000CE
:20590000000080C060202060C080000000FEFF010000000001FFFE000001070E18101018A5
:205920000E0701000000808080C0E000000000000000000000FFFF00000000000000101013
:20594000101F1F10101000000080402020202060C080000000030300804020381F070000A5
:20596000001C1A1918181818181F00000080C020202060C080000000000303001010182F94
:20598000E780000000070F10101010180F070000000000000000C0E0F000000000C0B08894
:2059A000868180FFFF808000000000000010101F1F1010000000E060606060606060000064
:2059C00000003F1008080818F0E0000000070B101010101C0F030000000080C04020202018
:2059E000E0C0000000FCFF211008080818F0E0000001070C18101010080F03000000C0E0C5
:205A00006060606060E06000000003000000E0180700000000000000001F1F000000000026
:205A20000080C0602020202060C080000087EF2C1818303068CF830000070F08101010105C
:205A4000180F07000000C0C020202020C0800000001F3F604040402010FFFE0000000C1C05
:205A6000101010080F03000000000000000000000000000000000000000E0E0E00000000B2
:205A800000000000001C1C1C0000000000000000000000000000000000000000000C0C009A
:205AA00000000000000000000058380000000000000000000000008040201000000010282E
:205AC0004482010000000000000000000000010204081000000000000000000000000000E0
:205AE00000848484848484848484840000000000000000000000000000001020408000008E
:205B00000000000000000000000001824428100000001008040201000000000000C0202067
:205B20001010101030E0C0000003030000F010080C070300000000001C1C1C0000000000DD
:205B4000000000C0406020202040C00000FCFF01F00E03C1FE03807F0001070E0811111077
:205B6000110904020000000080E0E000000000000000807C4340477FF880000010181F10B1
:205B800000000000131F1C1020E0E02020202060C080000000FFFF10101010182FE78000BB
:205BA000101F1F1010101010180F0700000080C0402020202060E00000FCFF0100000000DD
:205BC000000001000001070E181010100804030020E0E02020202040C080000000FFFF0079
:205BE0000000000001FFFE00101F1F10101018080E07010020E0E020202020202060800073
:205C000000FFFF101010107C00000000101F1F10101010101018060020E0E020202020207E
:205C20006060800000FFFF101010107C00000100101F1F100000000000000000000080C0CB
:205C40006020202040E0000000FCFF0100004040C0C140400001070E181010100F0F00006B
:205C600020E0E0200000000020E0E02000FFFF101010101010FFFF00101F1F10000000006A
:205C8000101F1F100000202020E0E020202000000000000000FFFF00000000000000101008
:205CA000101F1F101010000000000000202020E0E020202000000000000000FFFF000000E8
:205CC0000060E0808080C07F3F00000020E0E020000020A06020200000FFFF30187CE3C0C1
:205CE00000000000101F1F10000001131F1C181020E0E020000000000000000000FFFF00D1
:205D00000000000000000000101F1F10101010101018060020E0E0E000000000E0E0E02037
:205D200000FF013FFEC0E01E01FFFF00101F1000031F0300101F1F1020E0E0C00000000007
:205D40000020E02000FF0003071C78E08000FF00101F100000000000030F1F00000080C077
:205D600060202060C080000000FEFF010000000000FFFE000001070E181010180C0701006E
:205D800020E0E0202020202060C0800000FFFF2020202020301F0F00101F1F100000000089
:205DA00000000000000080C060202060C080000000FEFF010000000000FFFE000001070E52
:205DC0001111133C7C67210020E0E0202020202060C0800000FFFF101030F0D0080F070002
:205DE000101F1F10000000030F1C10100080C060202020204040E00000070F0C18183030C5
:205E000060E08100001F0C0810101010180F07008060202020E0E0202020608001000000DF
:205E200000FFFF000000000100000000101F1F100000000020E0E020000000000020E020E5
:205E400000FFFF00000000000000FF0000070F1810101010100807002060E0E02000000058
:205E600020E060200000077FF88000807C03000000000000071F1C070000000020E0E0205C
:205E800000E0E0200020E0200007FFF8E01FFFFCE01F00000000031F0300011F03000000C3
:205EA000002060E0A0000020E0602000000000038F7CF8C6010000000010181E1300011724
:205EC0001F1810002060E0E02000000020E06020000001073EF8E01807000000000000104E
:205EE000101F1F101000000000806020202020A0E0E0200000000000C0F03E0F0300000054
:205F000000101C1F17101010101806000000000000FC0404040404000000000000FF0000B2
:205F20000000000000000000007F404040404000000010E0000000000000000000000000B2
:205F4000031C60800000000000000000000000030C70800000000404040404FC0000000033
:205F600000000000000000FF00000000000040404040407F0000000000000010080C040C2F
:205F80000810000000000000000000000000000000000000000000000000000000000000E9
:205FA0000000000000000000000000000000000000000000808080808080808080808080E1
:205FC0000000000404080800000000000000000000000000000000000000000000000000A9
:205FE00000000000000000000000000000000000000098D844642424FCF80000000F1F1807
:20600000101010081F1F10180020E0F000000000000000000000FFFF180804040CF8F000D8
:2060200000001F0F18101010180F030000000000000000000000000000E0F8180404043C88
:206040003800000000030F0C10101010080600000000000000000020E0F0000000E0F81CB8
:2060600004040408FFFF000000030F18101010081F0F080000000000000000000000000076
:206080000000E0F8484444444C7870000000030F0C181010100804000000000080C06020AE
:2060A00020E0C00000040404FFFF040404040000000010101F1F1010100000000000000078
:2060C0000000000000000000000070F88C04048CF874040C007076CF8D8D8D89C878700027
:2060E0000020E0F000000000000000000000FFFF08040404FCF8000000101F1F100000103C
:206100001F1F10000000000000606000000000000000040404FCFC0000000000000010104D
:20612000101F1F101010000000000000000000606000000000000000040404FCFC0000001D
:206140000000C0C08080C07F3F0000000020E0F000000000000000000000FFFF80C0F41C03
:206160000404000000101F1F1100031F1C1010000000202020E0F00000000000000000002A
:2061800000FFFF000000000000001010101F1F101010000000000000000000000000000063
:2061A00004FCFC0804FCFC0804FCFC00101F1F10001F1F10001F1F100000000000000000E1
:2061C000000000000004FCFC08080404FCF8000000101F1F100000101F1F100000000000FB
:2061E000000000000000000000E0F0180C04040C18F0E00000030F0C101010100C0F030033
:206200000000000000000000000000000004FCFC080404040CF8F0000080FFFF88901010C4
:206220001C0F030000000000000000000000000000E0F81C04040408F8FC000000030F180A
:2062400010109088FFFF8000000000000000000000000000040404FCFC100804040C0C004C
:206260001010101F1F1010100000000000000000000000000000000000003078CCC4848440
:20628000840C1C0000001E1810101011190F06000000000000C000000000000000040404E1
:2062A000FFFF040404000000000000000F1F1010100C00000000000000000000000000006A
:2062C0000004FCFE00000004FCFE000000000F1F181010081F0F080000000000000000001E
:2062E0000000000000040C3CFCC40000C43C0C0400000000010F1E0E010000000000000045
:206300000000000000000000043CFCC400E47CFC84807C040000071F070000071F07000043
:206320000000000000000000000000000004041C7CE4C0341C0404000010101C1601131F3C
:206340001C18100000000000000000000000000000040C3CFCC400C43C0404000000C080A5
:20636000C1370E010000000000000000000000000000000000001C0404C4F47C1C0400009E
:206380000000101C1F17111010180E0000000000000000F80C04000000000000001028EF15
:2063A00000000000000000000000003F60400000000000000000FF000000000000000000FF
:2063C0000000FF0000000000000000000000FF00000000000000040CF800000000000000B7
:2063E00000000000EF28100000000000000040603F00000000000000001806020204081059
:20640000202030080000000000000000000000000000000000000000000000000000000004
:20642000000000000000000000000000000000F800000000000000333000000000100C06DF
:20644000100C0600000000000000000040C07840C0784000043F04043F040400007088FC64
:2064600008300000001820FF211E0000F008F000E018000000211C031E211E0000F0088871
:20648000700000001E2123241927211010160E00000000000000000000000000000000E081
:2064A00018040200000000071820400000020418E00000000040201807000000404080F0D2
:2064C000804040000202010F01020200000000F0000000000101011F01010100000000008E
:2064E0000000000080B07000000000000000000000000000000101010101010100000000F5
:206500000000000000303000000000000000000080601804006018060100000000E01008A8
:206520000810E000000F102020100F00001010F8000000000020203F20200000007008088E
:2065400008887000003028242221300000300888884830000018202020110E000000C02015
:2065600010F8000000070424243F240000F80888880808000019212020110E0000E010882C
:2065800088180000000F112020110E0000380808C83808000000003F00000000007088084D
:2065A00008887000001C222121221C0000E010080810E0000000312222110F00000000C0D8
:2065C000C0000000000000303000000000000080000000000000806000000000000080407B
:2065E000201008000001020408102000404040404040400004040404040404000008102010
:20660000408000000020100804020100007048080808F0000000003036010000C030C82874
:20662000E810E0000718272423140B000000C038E0000000203C23020227382008F88888EC
:2066400088700000203F202020110E00C030080808083800071820202010080008F8080875
:206660000810E000203F202020100F0008F88888E8081000203F20202320180008F888882A
:20668000E8081000203F200003000000C03008080838000007182020221E020008F808008F
:2066A0000008F808203F210101213F20000808F8080800000020203F2020000000000808E9
:2066C000F8080800C08080807F00000008F888C028180800203F20012638200008F808005D
:2066E00000000000203F20202020300008F8F800F8F80800203F003F003F200008F830C0AE
:206700000008F808203F200007183F00E01008080810E0000F10202020100F0008F80808EE
:206720000808F000203F210101010000E01008080810E0000F18242438504F0008F8888888
:2067400088887000203F2000030C302000708808080838000038202121221C00180808F89B
:20676000080818000000203F2000000008F808000008F808001F202020201F00087888009C
:2067800000C83808000007380E010000F80800F80008F800033C0700073C03000818688017
:2067A0008068180820302C03032C30200838C800C83808000000203F20000000100808081C
:2067C000C83808002038262120201800000000FE020202000000007F40404000000C30C07B
:2067E00000000000000000010638C00000020202FE000000004040407F0000000000040251
:20680000020204000000000000000000000000000000000080808080808080800002020468
:2068200000000000000000000000000000008080808000000019242222223F2008F80080D6
:2068400080000000003F112020110E000000008080800000000E1120202011000000008079
:206860008088F800000E112020103F200000808080800000001F222222221300008080F0A0
:20688000888888180020203F202000000000808080808000006B94949493600008F800806F
:2068A00080800000203F210000203F2000809898000000000020203F2020000000000080EA
:2068C0009898000000C08080807F000008F8000080808000203F24022D302000000808F83F
:2068E000000000000020203F202000008080808080808000203F20003F20003F80800080BC
:2069000080800000203F210000203F200000808080800000001F202020201F00808000803A
:206920008000000080FFA12020110E000000008080808000000E112020A0FF80808080005A
