:2000000000802020055600004F3100004F31000000000000000000000000000000000000C5
:200020000000000000000000000000004F31000000000000000000004F3100004F31000040
:200040004F310000694500004F3100004F3100004F3100004F3100004F3100004F31000072
:20006000000000004F3100004F31000000000000000000004F3100004F31000075520000B9
:200080004F3100004F3100004F310000DD1600004F3100004F3100000000000000000000ED
:2000A0004F3100004F31000000000000000000004F310000000000004F3100004F310000C0
:2000C000F0B599B0AE200024214601F099FD2046214601F095FD1020214601F091FD402686
:2000E0003046214601F08CFD81201690214601F087FDCF20214601F083FDA12015902146F2
:2001000001F07EFDC820214601F07AFDA6252846214601F075FDA820214601F071FD3F20CC
:200120000A90214601F06CFDD3200D90214601F067FD2046214601F063FDD5200690214608
:2001400001F05EFD80273846214601F059FDD9200590214601F054FDF1200490214601F04C
:200160004FFDDA20214601F04BFD1220214601F047FDDB200B90214601F042FD0C96304686
:20018000214601F03DFD20200790214601F038FD0220214601F034FD8D200390214601F026
:2001A0002FFD1420214601F02BFDA4200990214601F026FD0E952846214601F021FD014AB5
:2001C000089701E00000202017970120119040021890101814900320C001129011181391E6
:2001E0001046E03010901046C0300F901346A0331546803517466037114640311046203076
:200200001470147214741476079E94550472047404760C9814540C720C740C766020145458
:200220003C723C743C76089814542C722C742C76A02014541C721C741C76C02014540F98FF
:20024000047204740476E020145410980472047404761198000214542126F00014541120DB
:20026000000114542325E80014540920400114542523D80014541320000114542721C80077
:2002800014540520800114542920C00014541520000114542B20C00014540B204001145492
:2002A0002D20C00014541720000114542F20C00014541298145413980472047404760D2060
:2002C000400114543520C00014541B20000114543720C00014540720800114543920C000AC
:2002E00014541D20000114543B20C00014540F20400114543D20C00014541F200001145468
:200300000A98C0001454179F403F149A00D05BE707950A930C91024B8020089602E0C046D5
:20032000000020201390FF20179082301190191812911846E13010901846C1300F901D468D
:20034000A1351F468137194661311A464132184621305C705C725C745C76089E9C550472EE
:2003600004740476412014901C5414721474147661229C540C720C740C7616981C543C72BF
:200380003C743C76159FDC552C722C742C76C1255C550F980472047404761799E1269C55E8
:2003A0001098047204740476084602301C5408460A301C54084612301C5408461A301C543D
:2003C000084622301C5408462A301C54084632301C5408463A301C54084642301C5408462F
:2003E0004A301C54084652301C5408465A301C54084662301C5408466A301C5408467230F3
:200400001C5408467A301C5411981C5412980472047404760846A2301C540846AA301C54B1
:200420000846B2301C540846BA301C540846C2301C540846CA301C540846D2301C540846FE
:20044000DA301C540846E2301C540846EA301C540846F2301C540846FA301C5418981B18CF
:200460001398403800D05DE70892024880210195029601E000002020139101994900119148
:20048000421812920146E23110910146C2310F910546A235074682370346623302464232C7
:2004A00001462231847084728474847622268455029E0C720C740C7642214454147214747C
:2004C0001476622144541C721C741C76822144543C723C743C76A22144542C722C742C7641
:2004E000C22144540F990C720C740C76E221445410990C720C740C7616994900445485225E
:200500005100445489214900445403994900445491214900445495214900445499214900BD
:2005200044549D2149004454159949004454A52359004454A92149004454AD2149004454E2
:20054000B12149004454B52149004454B92149004454BD21490044541199445412990C724C
:200560000C740C76D12149004454069949004454059949004454DD214900445471004454BF
:20058000E52569004454E92149004454ED2149004454049949004454F52149004454F921E7
:2005A00049004454FD2149004454189940181399403900D060E7029503930492014E802064
:2005C000179D01E0000020201590284684301290311813913046E33011903046C3301090BD
:2005E0003046A3300F9037468337314663313246433230462330F470F472F474F476079BDD
:20060000F454047204740476432016903454147214741476632034540C720C740C768321D2
:2006200074543C723C743C76A322B4540F98047204740476C323F4541098047204740476C8
:20064000E327F455119804720474047628460430345428460C303454284614303454284632
:200660001C30345428462430345428462C30345428463430345428463C303454284644306C
:20068000345428464C30345428465430345428465C30345428466430345428466C30345448
:2006A00028467430345428467C3034541298345413980472047404762846A4303454284681
:2006C000AC3034542846B43034542846BC3034542846C43034542846CC3034542846D430AC
:2006E00034542846DC3034542846E43034542846EC3034542846F43034542846FC30345418
:20070000189836181598403800D05DE70597069307920F910148802102E0C0460000202022
:200720001591089989001291421813920146E43111910146C43110910546A4350746843740
:200740000346643302464432014624310471047304750477242684550C720C740C76442177
:200760004454147214741476642144541C721C741C76842144543C723C743C7609994454F5
:200780002C722C742C76C421445410990C720C740C76E421445411990C720C740C7614995F
:2007A000890044541699890044544523990044544722910044544921890044544B2189009D
:2007C00044544D21890044544F2189004454512189004454532189004454552189004454A2
:2007E0005721890044545921890044545B21890044545D21890044545F218900445412993D
:20080000445413990C720C740C766921890044546B21890044546D21890044546F218900F4
:2008200044547121890044547321890044547521890044547721890044547921890044548D
:200840007B21890044547D21890044547F2189004454189940181599403900D060E7099279
:20086000F8488021179A11930A9F169186321492811815910146E53113910146C531129174
:200880000646A536054685350346653302464532014625314471447344754477C4550C7278
:2008A0000C740C7611994454147214741476652144541C721C741C76049944542C722C741B
:2008C0002C7603994454347234743476179AC521445412990C720C740C7602994454139911
:2008E0000C720C740C7611460631445411460E31445411461631445411461E314454114659
:200900002631445411462E31445411463631445411463E31445411464631445411464E31AA
:20092000445411465631445411465E31445411466631445411466E31445411467631445481
:2009400011467E3144541499445415990C720C740C761146A63144541146AE31445411469B
:20096000B63144541146BE3144541146C63144541146CE3144541146D63144541146DE31EA
:2009800044541146E63144541146EE3144541146F63144541146FE314454189940181699BF
:2009A000403900D061E7A74880211691069949001491421815920146E63113910146C631A1
:2009C00012910646A6360746863705466635024646320146263184718473847584772623D5
:2009E000C4540C720C740C7646214454147214741476662144542C722C742C76862144548A
:200A00003C723C743C760E994454347234743476179AC621445412990C720C740C76E6212D
:200A2000445413990C720C740C760F99490044548723590044548B21490044548F21490048
:200A400044549321490044549721490044549B21490044549F214900445407994900445411
:200A6000A72569004454AB2149004454AF2149004454B32149004454B72149004454BB2101
:200A800049004454BF21490044541499445415990C720C740C760D9949004454D721490079
:200AA00044540B9949004454DF2149004454059949004454E72671004454EB2149004454B6
:200AC000EF2149004454F32149004454F72149004454FB2149004454510044541899401848
:200AE0001699403900D060E7564880210A9308950496169111468831149143181593103203
:200B00001292811813910146E73111910146C73110910746A73705468735034667330246B6
:200B2000473201462731C471C473C475C4770C9E84550C720C740C76099944541472147472
:200B40001476672144541C721C741C760A9BC4542C722C742C76089D44553C723C743C7650
:200B6000C721445410990C720C740C76049E179A845511990C720C740C761146083144544E
:200B80001299445413990C72114620314454114628314454114630314454114638314454B8
:200BA0001146403144541146483144541146503144541146583144541146603144541146AE
:200BC000683144541146703144541146783144541146803144541499445415990C720C742B
:200BE0000C761146A83144541146B03144541146B83144541146C03144541146C83144543B
:200C00001146D03144541146D83144541146E03144541146E83144541146F031445411467D
:200C2000F831445408494454189940181699403900D05EE701F05EFBAF20002100F0E0FFBB
:200C400019B0F0BD00002020FF010000F0B593B0014C80200A9001E000002020119001208C
:200C60000D9040021290201810900320C0010E9021180F912046E0300C902046C0300B90BD
:200C80002546A03527468037264660362246403220462030002121702172217421762023AA
:200CA000E15401720174017640202154117211741176602021543172317431760A98215441
:200CC000397239743976A0202154297229742976C02021540B98017201740176E020215435
:200CE0000C980172017401760D98000221542126F00021541120000121542325E8002154DD
:200D00000920400121542523D80021541320000121542722D00021540520800121542920C4
:200D2000C00021541520000121542B20C00021540B20400121542D20C000215417200001B8
:200D400021542F20C00021540E9821540F980172017401760D20400121543520C00021540C
:200D60001B20000121543720C00021540720800121543920C00021541D20000121543B207D
:200D8000C00021540F20400121543D20C00021541F20000121543F20C0002154119840383D
:200DA000109C00D05AE7069508930992014C80200A9601E0000020201190FF273846823000
:200DC0000D9022180E922046E1300C902046C1300F902046A1300B902646813622466132A3
:200DE000234641332046213061706172617461760A9D6155017201740176412010902154DD
:200E00001972197419766123E1541172117411768122A154317231743176A126A1550B98FC
:200E2000017201740176C12561550F98017201740176E1200F9021540C9801720174017699
:200E400038460230215438460A30215438461230215438461A30215438462230215438460B
:200E60002A30215438463230215438463A30215438464230215438464A302154384652301F
:200E8000215438465A30215438466230215438466A30215438467230215438467A3021541C
:200EA0000D9821540E980172017401763846A23021543846AA3021543846B230215438462E
:200EC000BA3021543846C23021543846CA3021543846D23021543846DA3021543846E2305F
:200EE00021543846EA3021543846F23021543846FA302154129824181198403800D05BE725
:200F0000079311970495024D80200392059601E0000020200E90049840000C902A180D92BF
:200F20002846E2300B902846C2300A902A46A2322E4682362C4662342B464233284622307E
:200F4000A970A972A974A9762227E9550172017401764220295419721974197662202954B6
:200F600021722174217682202954317231743176059EA2202954117211741176C2202954D4
:200F80000A98017201740176E22029540B9801720174017603984000295485225000295403
:200FA0008920400029548D20400029549120400029549520400029549920400029549D204E
:200FC0004000295470002954A52358002954A92040002954AD2040002954B120400029542C
:200FE000B52040002954B92040002954BD20400029540C9829540D98017201740176D12019
:2010000040002954D52040002954D92040002954DD20400029540F9840002954E524600024
:201020002954E92040002954ED2040002954F12040002954F52040002954F920400029542D
:20104000FD204000295412982D180E98403800D060E700940193029201488022119B01E05E
:20106000000020200E9284330C93C2180D920246E3320B920246C3320A920546A33506467F
:201080008336044663340346433302462332C170C172C174C176069FC15511721174117640
:2010A00043220F92815419721974197663228154217221742176119B8324015531723174A4
:2010C0003176A3268155297229742976C32541550A9A117211741176E327C1550B9A1172FA
:2010E000117411761A46043281541A460C3281541A46143281541A461C3281541A46243252
:2011000081541A462C3281541A46343281541A463C3281541A46443281541A464C328154CB
:201120001A46543281541A465C3281541A46643281541A466C3281541A46743281541A4658
:201140007C3281540C9A81540D9A1172117411761A46A43281541A46AC3281541A46B432F7
:2011600081541A46BC3281541A46C43281541A46CC3281541A46D43281541A46DC3281549B
:201180001A46E43281541A46EC3281541A46F43281541A46FC328154129A80180E9A403A8D
:2011A00000D05FE70397049505960694014E802002E0C046000020200E90079880000C9041
:2011C00032180D923046E4300B903046C4300A903746A43734468434324664323346443375
:2011E000304624303171317331753177242571550172017401764420315419721974197693
:201200006420315411721174117684203154217221742176A4203154397239743976C4201A
:2012200031540A98017201740176E42031540B980172017401761098800031540F988000C9
:2012400031544523980031544722900031544920800031544B20800031544D2080003154B6
:201260004F208000315451208000315453208000315455208000315457208000315459209D
:20128000800031545B20800031545D20800031545F20800031540C9831540D98017201740D
:2012A00001766920800031546B20800031546D20800031546F2080003154712080003154DD
:2012C0007320800031547520800031547720800031547920800031547B20800031547D2065
:2012E000800031547F2080003154129836180E98403800D060E70792F64A80200B93119B55
:20130000089F109086330E93D0180F901046E5300D901046C5300C901646A536154685356A
:201320001446653413464533104625305171517351755177D1550172017401760B9811549D
:2013400019721974197665201154217221742176119B0298115429722974297601981154BD
:20136000317231743176C52011540C98017201740176009811540D980172017401761846D2
:201380000630115418460E30115418461630115418461E30115418462630115418462E30C2
:2013A000115418463630115418463E30115418464630115418464E301154184656301154AB
:2013C00018465E30115418466630115418466E30115418467630115418467E3011540E9882
:2013E00011540F980172017401761846A63011541846AE3011541846B63011541846BE3053
:2014000011541846C63011541846CE3011541846D63011541846DE3011541846E63011547A
:201420001846EE3011541846F63011541846FE301154129812181098403800D061E7A54DF3
:2014400080201090049840000E902A180F922846E6300D902846C6300C902E46A6362F4609
:2014600086372C4666342B46463328462630A971A973A975A9772622A954017201740176DD
:201480004620295419721974197666202954217221742176119A862029543972397439762B
:2014A000A6202954317231743176C62029540C98017201740176E62029540D980172017484
:2014C00001760698400029548723580029548B20400029548F204000295493204000295477
:2014E0009720400029549B20400029549F2040002954059840002954A72460002954AB20B7
:2015000040002954AF2040002954B32040002954B72040002954BB2040002954BF204000A7
:2015200029540E9829540F98017201740176D32040002954D72040002954DB2040002954E9
:20154000DF2040002954039840002954E72670002954EB2040002954EF2040002954F320D6
:2015600040002954F72040002954FB20400029545000295412982D181098403800D060E70F
:20158000544D80200893029401961090104688300E902B180F9310320C92A8180D90284666
:2015A000E7300B902846C7300A902F46A7372C4687342B4667332A46473228462730E971E7
:2015C000E973E975E977099EA95501720174017607982954117211741176672029541972B3
:2015E00019741976089BE954217221742176029C119A2955397239743976C72029540A985C
:20160000017201740176019EA9550B980172017401761046083029540C9829540D98017288
:20162000104620302954104628302954104630302954104638302954104640302954104655
:20164000483029541046503029541046583029541046603029541046683029541046703023
:2016600029541046783029541046803029540E9829540F980172017401761046A83029541B
:201680001046B03029541046B83029541046C03029541046C83029541046D0302954104625
:2016A000D83029541046E03029541046E83029541046F03029541046F8302954064829541E
:2016C00012982D181098403800D05EE700F012FE13B0F0BD00002020FF010000F0B585B05C
:2016E000FA480068C0B2012800D049E20120049003F022FF4042F64C208003F027FF4042E2
:20170000F449088000210391615EF34B1A6856181E6000B2F14A11680C18146041208700FE
:201720003046394603F036FB03F046FEEC4DED4B2A4602F0D5FBEC4A03C202942046394640
:2017400003F028FB03F038FE2A46E64B02F0C8FBE64A03C2E64F3878012800D083E0304648
:2017600003F02AFE04460D46E24E3540E249886AC96A3140E14B039A01F025FC02460B46D7
:201780002046294603F004FA002816D0029803F013FE04460D463540D949886AC96A31400D
:2017A0000022FE4B01F00FFC02460B462046294603F0EEF9411E8841039003F0FDFBC0B262
:2017C000411E884103990029049900D1014601290FD100203870F2490870F2490870F249F4
:2017E000087003F07FFD03F011FEF0480168491C0160EF480178EF480078421E50425041B7
:201800000129049900D0014601292CD101F068FD01F09EFC01F0CAFE03F060FBE649086044
:2018200003F0CAFD04460D46E44804604160E44903C922462B4601F0C6FB03F04FFBE14E30
:201840003060E14903C922462B4601F0B7FB03F045FBDE4C20603046214603F095FD3068AF
:20186000216803F045F9DA4F387801283ED1D0480178D0480078421E504250410129049932
:2018800000D00146012915D101F02AFDCC4903C903F024FBCB4C2060CB4903C903F01EFB93
:2018A000CA4D28602046294603F06EFD2068296803F01EF9B64860C8C64903C90024C64BFD
:2018C000224601F080FB02460B462846314603F05FF900280AD03C70B148047003F002FD5E
:2018E00003F094FDB1480168491C0160BB480078012800D091E0AE480178AE480078421E1A
:20190000504250410129049900D00146012900D083E001F0E5FCAA4903C903F0DFFAA94C17
:201920002060A94903C903F0D9FAA84D28602046294603F029FD2068296803F0D9F896487D
:20194000876AC56A934805408F480668304603F033FD01900C468F48044000228F4B0397D5
:20196000384602952946154601F02DFB02460F460198214614463B4603F00AF900281AD0EF
:201980008248006803F018FD0122D207914322463B4603F0FDF800280DD003F0A3FC03F0E2
:2019A00035FD8E4805707E48057080480168491C016075480668F0174640301A03F0FCFC8B
:2019C00007460E460022864B03980299039201F0FAFA04460D463A46334603F0C5F8002855
:2019E0007E4E0ED169480068C1174840401A03F0E3FC02460B462046294603F0B5F8002861
:201A00000BD003F06FFC03F001FD039931706448017066480168491C01607248007801280A
:201A200000D0ADE003F070FD03F07AFD6048017860480078421E50425041012900D004902D
:201A40000498012800D098E001F0DCFE664903C903F044FA5B4C2060644903C903F03EFA37
:201A60005A4D28602046294603F08EFC2068296803F03EF85E48856AC46A002228462146E9
:201A8000134603F08FF800283CD05A48006803F01DFB074604910026584B28462146324632
:201AA00001F091FA3A464F4C049B03F067F8002863D003F017FC03F0A9FC26703848067019
:201AC0003A480168491C016057E0C04620308640E40A2020E60A2020D80A2020DC0A20205C
:201AE0004694F6065FD82D40780A2020800A2020EA0A2020FFFFFF7FF0052020000024C017
:201B0000A0062020002228462146134603F02CF8002832D03748006803F0D8FA07460491C0
:201B200001208307002628462146324601F04BFA03973A46049B03F02BF807460320830788
:201B400028462146324601F03EFA002F254D14D0039A049B03F012F800280ED0264C206851
:201B6000411C2160092808DB03F0BCFB03F04EFC2E700B4806702660A2E7012001498862C1
:201B800005B0F0BD20308640D80A2020DC0A2020780A2020FFFFFF7FF0052020000024C02E
:201BA000ED0A2020EE0A2020F20A2020C80A2020EF0A2020F00A2020CC0A2020600A202035
:201BC000880A2020D00A2020900A2020D40A2020E90A2020580A2020000014C0EB0A202043
:201BE00000004940E80A2020980A2020A00A2020600920203C052020C40A2020000028C03E
:201C0000F0B583B000910290E14F103F02253D6001243C600A26304603F078FADC48056031
:201C2000304603F073FADA480460304603F06EFAD7480560304603F069FA3C60304603F022
:201C400065FAD34804603D60304603F05FFA3C60304603F05BFACE4804603D60304603F06D
:201C600055FA3C60304603F051FAC94804603D60304603F04BFA3C60304603F047FAC448B3
:201C800004603D60304603F041FA3C60304603F03DFABF4804600560304603F037FA3C605D
:201CA000304603F033FABA4804600560304603F02DFA3C60304603F029FAB5480460056045
:201CC000304603F023FA3C60304603F01FFAB048046001953D60304603F018FA3C60304644
:201CE00003F014FAAA480460304603F00FFA0098002853D0A648019E06600A25284603F0B5
:201D000005FA3C60284603F001FAA14804603E60284603F0FBF93C60284603F0F7F99C48BB
:201D200004600660284603F0F1F93C60284603F0EDF9974804600660284603F0E7F93C6025
:201D4000284603F0E3F9924804600660284603F0DDF93C60284603F0D9F98D4804600660FD
:201D6000284603F0D3F93C60284603F0CFF9884804600660284603F0C9F93C60284603F0B7
:201D8000C5F9834804600660284603F0BFF93C60284603F0BBF97E4804605CE07C49019862
:201DA00008600A25284603F0B1F9794E103E3460284603F0ABF976490C6001980860284639
:201DC00003F0A4F93460284603F0A0F970490C6001980860284603F099F93460284603F0D7
:201DE00095F96B490C6001980860284603F08EF93460284603F08AF965490C6001980860B9
:201E0000284603F083F93460284603F07FF960490C6001980860284603F078F9346028468E
:201E200003F074F95A490C6001980860284603F06DF93460284603F069F955480460019979
:201E40000160284603F062F93460284603F05EF94F480460019E3E600A25284603F056F902
:201E60003C60284603F052F949480460284603F04DF9029840B20028454800DA384606607F
:201E8000284603F043F93C60284603F03FF940490C6002984006084600D538460660284626
:201EA00003F034F93C60284603F030F938490C6002988006084600D538460660284603F067
:201EC00025F93C60284603F021F931490C600298C006084600D538460660284603F016F910
:201EE0003C60284603F012F929490C6002980007084600D538460660284603F007F93C6057
:201F0000284603F003F922490C6002984007084600D538460660284603F0F8F83C6028464A
:201F200003F0F4F81A490C6002988007084600D538460660284603F0E9F83C60284603F08C
:201F4000E5F813490C600298C007084600D038460660284603F0DAF83C60284603F0D6F87B
:201F60000B4804603E60284603F0D0F83C60284603F0CCF806480460284603F0C7F8044804
:201F800006603C60284603F0C1F83E6003B0F0BDA0120A40F0B585B00746FEF757FE012495
:201FA0000094C24A0025082628462946334600F041FB0094122029463A46334602F01EFA74
:201FC0000094BB4A1E202946334600F033FB0094B84A28463146334600F02CFB00F08AF9A6
:201FE000B5480560B5480560B5490D70B5490D6002954D6005460397012F00DA32E1039856
:20200000800004902CE0FEF721FE2868C117890F411803229143401A421C0094002708259A
:20202000384639462B4601F0FDFD009438462946AA4A2B46A14D00F0FDFA00F05BF9A04860
:202040000470384601F0BEFF2868401C28600499884200DB06E128680499884200DB01E18F
:202060009748017894480068002927D1002825D1FEF7ECFD2868C117890F40188010421C61
:2020800000960194002738463946039B00F0C0FE009438463146934A334600F0CBFA00F021
:2020A00029F987480470692002F008FA28680028D1D18D4903C9834A03C2CCE7002901D102
:2020C0000128A0D0002918D1022816D1FEF7BEFD2868C117890F40188010421C0096019423
:2020E000002528462946039B00F092FE00942846724D31467B4A33463BE0002919D10328F1
:2021000017D1FEF7A3FD2868C117890F411803229143401A421C6F486F4903F0FFF800944B
:2021200000271025384639466A4A2B4600F082FA7BE7002927D1042825D1FEF787FD286807
:20214000C117890F40188010421C62486449039B03F0E4F8009400251027284629465D4A91
:202160003B4600F067FA00942846544D39465D4A3B4600F05FFA00F0BDF8514804706920BF
:2021800002F09CF967E7002901D10528B9D0002901D10628D1D0002933D1072831D1FEF79C
:2021A00055FD2868C117890F411803229143401A421C484F3846484903F0B0F800940020CE
:2021C000102501463A4607462B4600F033FA009438462946414A2B46384D00F02BFA00F021
:2021E00089F837480470384601F0ECFE2868401C28600499884235DA2F480760304807705B
:2022000029E7002900D026E7082800D023E7FEF71DFD00942C4A00261025304631462B46CC
:2022200000F008FA0094294A304629462B46234D00F000FA00F05EF82148047021480CC895
:202240002349304600F0BAFE074604913246334602F0A8FC002805D03846049902F03EFE45
:2022600002F02CF9FEF7F2FC0094204A08262F46029D28462946334600F0DCF900941C4A0F
:2022800028463146334600F0D5F9009410212846039A334601F076FF00F02CF806480560AC
:2022A0003D600748057005B0F0BDC0465359000028590000CD580000C80A2020E00A2020C7
:2022C000ED0A2020500A2020B35800000E59000000405A40100A202004590000C058000012
:2022E000A6580000E4580000780A202030590000D9580000F0B589B00021CC48CC4F10E00A
:20230000089E3E603D46103D079828600A2002F0FDFE2E600099491C0198401C082900D1E8
:2023200082E10190B02000910843C0B200242146FFF766FC20462146FFF762FC10200294C1
:202340002146FFF75DFC3E46103E022008903060012434600A25284602F0D8FE0898386055
:20236000284602F0D3FE3C60284602F0CFFE08983860284602F0CAFE3460284602F0C6FE4B
:202380003C6008983060284602F0C0FE3460284602F0BCFE3C6008983060284602F0B6FEC5
:2023A0003460284602F0B2FE3C6008983060284602F0ACFE3460284602F0A8FE3C600898CD
:2023C0003060284602F0A2FE3460284602F09EFE3C6008983860284602F098FE3460284611
:2023E00002F094FE3C6008983860284602F08EFE3460284602F08AFE3C60089838602846DB
:2024000002F084FE3460284602F080FE3C6008983060284602F07AFE3460284602F076FECA
:202420003C60284602F072FE08983860284602F06DFE3460284602F069FE3C600898306006
:20244000284602F063FE3460284602F05FFE3C6008983860284602F059FE3460284602F0EB
:2024600055FE3C6008983860284602F04FFE3460284602F04BFE3C6008983860284602F017
:2024800045FE3460284602F041FE3C6008983860284602F03BFE3460284602F037FE3C6094
:2024A00008983860284602F031FE3460284602F02DFE3C6008983860284602F027FE346049
:2024C000284602F023FE3C6008983060284602F01DFE03963460284602F018FE07943C605A
:2024E000284602F013FE8020019E1FE0089E0660284602F00BFE079F2760284602F006FE27
:202500004B4807602660284602F000FE2760284602F0FCFD464807600746284602F0F6FD68
:20252000059E08360698401E00D1E9E606903846029905967756002F00DA03980899016061
:202540000A25284602F0E2FD039C079E2660284602F0DCFD36490E607806084600D5204616
:2025600008990160284602F0D1FD079E2660284602F0CCFD2E490E60B806084600D52046AB
:2025800008990160284602F0C1FD079E2660284602F0BCFD26490E60F806084600D5204673
:2025A00008990160284602F0B1FD079E2660284602F0ACFD1E490E603807084600D520463A
:2025C00008990160284602F0A1FD079E2660284602F09CFD16490E607807084600D5204602
:2025E00008990160284602F091FD079E2660284602F08CFD0E490E600497B807084600D595
:20260000204608990160284602F080FD079F2760284602F07BFD064E37600498C0073046AC
:2026200000D163E7204661E709B0F0BD00002020A0120A40F0B59DB00C4603901078014689
:202640002039C9B25E2900D945E1082B01D0590800E006210091229DE1081C9107261496F7
:2026600021463140012726463C468C401294E14311911596711CCCB2E4081B94149C2140D2
:202680003C468C401094E1430F91B11CCCB2E4081A94149C21403C468C400E94E1430D91DC
:2026A000F11CCCB2E4081994149C21403C468C400C94E1430B91311DCCB2E4081894149C23
:2026C00021403C468C400A94E1430991711DCCB2E4081794149C21403C468C400894E1432D
:2026E0000791B11DCCB2E4081694149E31403C468C400694E14305911599C91DCCB2E4089D
:20270000159431408F401397F943049101930EE003980099401803900298411C40780246BD
:20272000203AD2B25F2A0A46019B00D3D3E00292082BEDD12038C0B20621414367484018BF
:2027400014900023039805E015995754401C5B1C062BDDD0C1B2C900614A52181C99575C6F
:202760003946119C2140129C2743002D3E4600D00E46149CE456002D00D03946E70700D0BB
:202780000E461C9956541B99565C37460F990F4010990E43002D31466AD1002D6BD1A607BD
:2027A00000D539461B9E91551A99565C37460D990F400E990E43002D314660D1002D61D123
:2027C000660700D539461A9E91551999565C37460B990F400C990E43002D314656D1002DD8
:2027E00057D1260700D53946199E91551899565C374609990F400A990E43002D31464CD10D
:20280000002D4DD1E60600D53946189E91551799565C374607990F4008990E43002D31462D
:2028200042D1002D43D1A60600D53946179E91551699565C374605990F4006990E43002DC1
:20284000314638D1002D39D1660600D53946169E91551599515C0F46049E3740139E314379
:20286000002D0E462ED1002D2FD1002C31D56BE73946002D93D03746A60792D492E7394690
:20288000002D9DD0374666079CD49CE73946002DA7D037462607A6D4A6E73946002DB1D0C0
:2028A0003746E606B0D4B0E73946002DBBD03746A606BAD4BAE73946002DC5D037466606DB
:2028C000C4D4C4E73E46002DCFD00F46002C00D53AE7374638E71DB0F0BDC046105600006C
:2028E0000000202092B002F035FD8C48016801242143016002F008FE02F012FE02F080FBA4
:20290000FDF7DEFB0025089509950A950B95079506950595049503950295814E01960095B7
:202920008048814F2A463B4601F0CCFF089509950A950B950095019602950395049505954A
:202940000695079579482A463B4601F0BBFF089509950A950B950795069505950495039567
:202960000295734E0196734F00977348734B2A4601F0A8FF089509950A950B9500970196E6
:202980000295039504950595069507956C482A466A4B01F097FF089509950A950B9500952F
:2029A00001950295039504950595069507956548654A664B01F086FF089509950A950B95EB
:2029C000079506950595049561480390A0070290604801900720400700905F485F4B2A4620
:2029E00001F070FF089509950A950B95009501950295039504950595069507955848594BF5
:202A00002A4601F05FFF5848046002F0DFFDE004564908600D94E2030A6002230B600B604F
:202A2000534908600A600B600B60FEF70FF90320FFF7B0FA0D9F0097002011900826014619
:202A40004C4A3346FFF7F6FD324908680F9032480268109202680E9204680D680B680A689E
:202A60005206D20F01685803C00F2D03ED0FE405E40F0E9B9B01DB0F8905C90F00930194C5
:202A800002950390049205A8C2C00F98C005C20F10984001C30F1E20119C214602F04EF9C4
:202AA000FFF728FC009720463146334A3346FFF7C1FD3248026800971825284631463346C8
:202AC00001F09CFCFFF716FC00971024119821462B4A3346FFF7AEFD1749886AC96A02F084
:202AE000FDF90246009728462146334601F086FC009711982946234A3346FFF79BFD2248B3
:202B00000268009728462946334601F077FCFFF7F1FB90E780330A4080130A400458084023
:202B20000000F83F5007202000002E40000820209999A93F9A999999F00520200000144009
:202B4000A006202060092020333333333333F33F3333C33F51B89E3F40052020000010405F
:202B6000B008202000207240C00A202080E200E000E100E0385900004E590000CC0A202030
:202B80004459000049590000D80A2020F0B5FFB08CB0049315460646909800908A91346897
:202BA000204602F006FD2018002189910290844244D20022859285A803920273641C0F4694
:202BC000601E0078002834D0252806D034602946049A90477F1C641CF2E70398C043019015
:202BE0008997601C03903060207885A90873732809D18AA989AA2846049B00F021F88999C2
:202C0000039C019A11E005AC85A98AAA204600F035F8024620462946009B9847411C019A64
:202C2000114600D0C1198991039C481C0298BED100E03A4610467FB00CB0F0BD0A46F9E7CF
:202C4000F8B504460868051D0D600668002E11D0009414461D46304602F0ABFC07462068CC
:202C6000C01920600024BC4207DA305D0099A847641CF8E7002021469847F8BDF0B585B08F
:202C800001920E4604467F208000251800270397FF210291FE312022204602F083FC049552
:202CA0006F70307B252852D06B1C782813D0642811D06F280FD0632820D1019A1068011D81
:202CC00011600168C8B247424741029A1046FC302018297014E01D4603A904AA3046019BDD
:202CE00000F03BF803980499002803D0481E2D220A7000E00846029A2B4601E02846029A29
:202D0000191A0029254601DC611A4D1C411C530000262846324602F0A1FB002F02D0411C83
:202D2000067000E00146A14206D8481E611A491C202202F037FC2670291B2022204602F014
:202D400031FC204602F035FCC01905B0F0BD00206070252020700120F7E7F8B514460D4664
:202D60000646077B194600F014F8317B642904D1002802D50121296040426F2F01D00A2156
:202D800000E00821782F00D11021224600F012F8F8BD007B642805D06F2803D0782801D0B3
:202DA000702804D10868021D0A600068704700207047C046F8B514460D460646002804D10E
:202DC0002068411E2160302101700A4F002E0DD03046294600F010F801466943711A795C35
:202DE0002268531E236011700646EFE7206802F0E0FBF8BD8858000080B5102903D0082956
:202E000003D1C00880BD000980BD02F03FF980BDF0B58BB0049314460F4605461198109E64
:202E200005900090634A28463346FFF703FC06952A350295002C039620D00197E0172146A8
:202E400041400D1A00260A272846394602F01EF94743E91B30220A43711C07AB9A55092DEC
:202E600005460E46EFD8002C0CD407A8002242540129019F039E2FD0491E0BE007A83021BD
:202E8000018029E007A842182D23435400205070019F039E891E002007AA135C5418A57827
:202EA0001554A370421C4B1C9A4215DA07AA13185C78521855785D705470821C8A420BDA3F
:202EC00007AA13189C78555C9D705454C01CCA1E491E88421146DFDB059C00940298C0B255
:202EE00007AA39463346FFF7A5FB069830300094C0B2314A39463346FFF79CFB04990029C9
:202F00001ED0C81741400C1A00260A252046294602F0BCF84543611B30220A43711C07AB8B
:202F20009A55092C04460E46EFD8049800280BD407A8002242540129039E2ED0491E0AE0E4
:202F400007A83021018028E007A842182D23435400205070039E891E002007AA135C541824
:202F6000A5781554A370421C4B1C9A4215DA07AA13185C78521855785D705470821C8A4246
:202F80000BDA07AA13189C78555C9D705454C01CCA1E491E88421146DFDB0698363005994E
:202FA0000091C0B207AA39463346FFF743FB0BB0F0BDC0462059000062590000FCB40124BA
:202FC000E407634002E0FCB40124E40708B41D03ED08D60D354356025F007F0D06D12C004F
:202FE000344300D0AEE001B0FCBC7047A408254307242402FF34A74205D10020190D090531
:2030000001B0FCBC7047002B03D50024A61BAC4125000B03DB08C20D134342024800400DA7
:2030200007D11C00144300D08CE00EBC1000F0BC704701246407234307242402FF34A04270
:2030400005D10020090D090501B0FCBC7047002903D50024A21A9C412300C11B08D51C0080
:203060002B0025001400320026000024611A3800362925D502B4393949420C00203C03D274
:203080002F008F40374301E03700A740002F01D040210E4302BC20290BD500290ED04C428B
:2030A000203420B4A5402C0020BC0D41CE40361904E000292E000D4120390E4192196B41C8
:2030C0001C0014433ED00024002B04D5012400218A1A99410B00401E52005B41FBD501213A
:2030E000890215000D400CD0521800277B4101D3401C0BE00721C90115000D4001D18900F0
:203100008A43072109028A4352005B41801C19DD07210902FF31884209D30EBC0020C90F97
:203120000902FF31C900C91D0905F0BC7047190B00050143E40721431805120B104301B03A
:20314000FCBC70470021002001B0FCBC7047FEE7F0B587B059490868C005C00F584A13681B
:203160005B01DD0F13689B01DB0F00931368DB05DB0F01930B681B03DB0F02930B685B03B9
:20318000DB0F039309684906C90F049111688905C90F059101F0D8FF06464A4901F0CCFAAF
:2031A0000021069101F061F80446284601F0CCFF0746454901F0C0FA214601F056F8054622
:2031C0003046394601F051F80646009801F0BCFF04463E4901F0B0FA294601F046F80546DB
:2031E0003046214601F041F80646019801F0ACFF0446374901F0A0FA294601F036F8054619
:203200003046214601F031F80646029801F09CFF07467D20C105384601F08EFA294601F03E
:2032200024F805463046394601F01FF80646039801F08AFF0746FD208105384601F07CFAF4
:20324000294601F012F805463046394601F00DF80646049801F078FF04461E4901F06CFA76
:20326000294601F002F805463046214600F0FDFF0646059801F068FF0446174901F05CFAAE
:20328000294600F0F2FF074630462146069C00F0ECFF05463846294601F094FA0F4901F037
:2032A0004BFA02F003F806462846214601F084FC002800D13446204607B0F0BD80330A4010
:2032C00080130A400000E0BF0000A0BF000040BF000080BE0000A03F0000E03F00803B44D9
:2032E000F0B581B044480078012805D043480078012801D001B0F0BD41480178491CCAB2B8
:203300000170022A20D3002404703E48006802F053F802463C480B4600F00CFC3B4D224655
:203320002B4601F08DFD3A4A03C23A48006802F043F8024638480B4600F0FCFB22462B4668
:2033400001F07EFD354A03C231480CC8344F384602F050F931480CC8324802F04BF93248BD
:203360000024005F02F028F8304B224600F0B8FD2F4D22462B4600F0B3FD2E4E22463346DE
:2033800000F0D0FA01F0AAFD02F016F8024638460B4600F0A1F9284F03C72848005F083FE3
:2033A00002F00AF82246214B00F09AFD22462B4600F096FD2246334600F0B4FA01F08EFD67
:2033C00001F0FAFF024617480B4600F085F91C4E03C603CF1B4D22462B46083F083E01F0D9
:2033E0002FFD03C703CE22462B46083E01F028FD03C601B0F0BDC046EF0A2020F00A202031
:20340000F10A2020D80A2020F00520200058AB40680A2020DC0A2020A0062020700A20205F
:203420005007202000082020E40A202000408F4000004E400050B440880A2020E60A20209C
:20344000900A2020004CBD40F0B587B0044602634363806AE16AFFF7B1FD06460F46A06599
:20346000E16500254B4B2A4601F09CFB0028059701D0494B09E00025484B304639462A4624
:2034800001F072FB00280AD0454B304605992A46FFF799FD06460D46A065E16500E0059DC0
:2034A00000273F4B304629463A4601F071FB00280AD10022384B3046294601F05FFB002899
:2034C00002D10CCC083C05E0A765E7653A463B463E463D460696304605952946FFF773FD37
:2034E00006460D462F4B3A46049301F05BFB02902D4B304629463A46039301F035FB002807
:2035000000D103950028384600D130460299002900D107460029069901D103980490276023
:20352000049D6560226963690846059E314600F0D7FC0390029120646164A069E1693A4661
:203540002B4600F0CDFC04900191A064E164276A656A226E636E06983146FFF72FFD024692
:203560000B463846294600F0BBFC07460D462065616503980299049A019BFFF724FD3A4674
:203580002B46FFF720FDA063E163069A2266666607B0F0BD00806640006076C0008066C0A6
:2035A0000060764000408F4000408FC0F0B587B001F002FF04460D46424EB065F165306958
:2035C000716922462B4600F08BFC039030640291716403CE0694224605952B46083EFFF718
:2035E000F2FC05460C460027374B3A4601F0DAFA0490364B284621463A46019301F0B4FAB5
:203600000028394600D12946002800D10194049800282D4B00D1019B0028049700D10F46A3
:2036200037607360B069F1693A4600F059FC01900D46B064F164376A746A326E736E0698FD
:203640000599FFF7BBFC02460B463846214600F047FC07460C463065716503980299019A93
:203660002B46FFF7B0FC3A462346FFF7ACFC05460C46174F049E32463B4601F093FA039001
:20368000144B2846214632461E4601F06DFA002800D1264600280499084600D12846039B6D
:2036A000002B084A00D10146002B00D137469163D76306981066059850660846394607B0E3
:2036C000F0BDC046400520200058AB400058ABC000C0924000C092C0F0B587B0044601F0F1
:2036E000D7FB20636163A26AE36A204600F024FE226B636BFFF762FC06460D4600273D4BE3
:203700003A4601F031FA06903B4B304629463A4601F048FA00283A4600D1324606990029A0
:2037200000D1324600283B4600D12B46002900D12B46A265E36503CC05920693083CFFF762
:2037400042FC06460D462D4B3A4601F02BFA04902B4B304629463A46039301F005FA002861
:20376000394600D13146002800D1039504980028059A069B214D00D1039D002800D10F46C0
:203780002760656020696169164600F0A9FB0490039120646164A069E1693A462B4600F0F5
:2037A0009FFB02900F46A064E164256A606A0190226E636E30460699FFF700FC02460B4654
:2037C0002846019900F08CFB06460D462065616504980399029A3B46FFF7F5FB32462B465C
:2037E000FFF7F1FBA063E163059A2266069A626607B0F0BD0000E03F0000E0BF00408F40E0
:2038000000408FC0F0B581B03648007836490978014364D035480178491CCAB20170012A62
:2038200015D9002404703348006801F03FFD01F0C3FD024630480B46FFF706FE2F4B224654
:2038400001F0FEFA02462A480260416002E02848026841680120C3074B40294801F0CAFEBD
:2038600023480CC8274801F0C5FE27480025405F01F0A2FD254F2A463B4600F031FB244C32
:203880002A46234600F02CFB224E2A46334600F049F801F023FB01F08FFD024618480B4629
:2038A000FFF71AFF1C4A03C21C48405F01F084FD2A463B4600F014FB2A46234600F010FB95
:2038C0002A46334600F02EF801F008FB01F074FD02460C480B46FFF7FFFE114A03C201B0E2
:2038E000F0BDC046EF0A2020F00A2020F30A2020A80A20203C052020600920200058AB4006
:203900005007202000082020E40A202000408F4000004E400050B440980A2020E60A2020A7
:20392000A00A2020FCB40C005C40E40FE40710B41D032D0B56006D415F007F0D73D00124F4
:203940006405254307242402FF34A74261D00B031B0B42005B414800400D64D0012464058F
:20396000234307242402FF34A04252D0C01B002100273624AB4200D1B24204D37F41494109
:20398000921BAB4101E07F414941641E06D0002B01D1002A02D052005B41EBE7202C07D22D
:2039A000162C0AD33900A7402026361BF1400BE0203C3900A140002706E0A1402026361B1A
:2039C0003D00F5402943A74001246405214202D17F004941401E00247F1C61410124A405C8
:2039E000214202D0401CA14301E06408A14303242402FF34001916DD2419A04209D8CC07C2
:203A00004908000501437808204310BC2143FCBC704702BC0020C90F0902FF21C900C91DFA
:203A20000905FCBC70470021002001B0FCBC7047F0B5394A8218394BC0183A4D4C790B79BA
:203A4000002C22D0466F202B02D00524E70100E0354F2E40002B00D188273E434667846FC7
:203A60002C403C438467446B2D4E34404463846B3440846300244465846554688F26F64381
:203A8000344054609468344094600C688979202B09D006467036002B15D1641E4460C46EA5
:203AA0002C40882715E0641E4460C46E2C401E4E3443C466046F2C40344304671B4D0124D7
:203AC0006707064607E00527FF0164084460C46E2C403C43C46634682C403C433460C46A79
:203AE0000F4D2C40C462046B2C4004630024C4640465C46F8F25ED432C40C46714682C404B
:203B00001460194302680A4B1340BD220A40D118891C0160F0BDC046841800000418000040
:203B20008888FDFF24493E0001040000FFFFFFCF4000FFCFF0B587B01946154604460263AA
:203B40004363826AC36A284601F0C8F8226B636BFFF734FA0591A065E1650CCC074606906C
:203B6000083CFFF730FA05460E4603C4A268E3683846059F3946083C00F0B2F9049003917E
:203B800020646164A269E3692846314600F0A8F906460291A064E164256A606A0190226E6D
:203BA000636E06983946FFF709FA02460B462846019900F095F907460D4620656165049878
:203BC00003993246029BFFF7FEF93A462B46FFF7FAF92546903590220492A25803926E6890
:203BE0000D4A0E4B00F07CF9074602910C4B03983146094A00F074F93A46029BFFF7E3F9C8
:203C0000A063E163049AA0506960069A2266059A626607B0F0BDC0469A9999999999C93F6E
:203C20009999E93FF0B589B01E4617460E9A02920092354A03900491FEF7FCFC002F1FD00B
:203C40000196F817394641400C1A00260A252046294601F01BFA4543611B30220A43711C38
:203C600005AB9A55092C04460E46EFD8002F0BD405A8002242540129019E2ED0491E0AE080
:203C800005A83021018028E005A842182D23435400205070019E891E002005AA135C5418DF
:203CA000A5781554A370421C4B1C9A4215DA05AA13185C78521855785D705470821C8A42FB
:203CC0000BDA05AA13189C78555C9D705454C01CCA1E491E88421146DFDB039D28461E3049
:203CE000029F0097C0B205AA049C21463346FEF7A1FC24350097E8B2044A21463346FEF7AC
:203D000099FC09B0F0BDC0463E5900005D590000B0B5364A80184A6842600A78222A56D888
:203D2000930001A4E3589F46C53D0000CF3D0000C53D0000CF3D0000CF3D0000CF3D0000F7
:203D4000CF3D0000CF3D0000CF3D0000CF3D0000CF3D0000CF3D0000CF3D0000CF3D000003
:203D6000CF3D0000CF3D0000B53D0000CF3D0000B53D0000CF3D0000CF3D0000CF3D000017
:203D8000CF3D0000CF3D0000CF3D0000CF3D0000CF3D0000CF3D0000CF3D0000CF3D0000C3
:203DA000CF3D0000CF3D0000B53D0000CF3D0000B53D0000036803242407A34301246407C8
:203DC0001B1903E0036803242407A34303600B69C360CB68C46A064D2540064C1C402B1924
:203DE000C362097A11430160B0BDC046041800008888FDFF77770200F0B52C4B84201860A3
:203E0000012001032A4A11608521596041031160284C82252565284961655D61996181254A
:203E20001D64264E6662264EA6606666254F9F63E7631D619D605D63DD60A761E765266667
:203E40005E665E65A664DE629E62A665E664256065601346303B1C4C1C601346403B03254E
:203E60001D60E31C1360194A136804061C431460174A136A04072343136213682343136080
:203E80008205144B1A601A63134A1368891E19431160116940020143116110490A6A024375
:203EA0000A620A6802430A60F0BDC04688804240D0120A40048042408200040081000100FE
:203EC00081000D0081000E0020C04100A0130A4028100A40A0320A4090330A4028300A405A
:203EE000FCB50C005C40E40FE40710B4DD02540D2543D6025F007F0D60D00124E4072543B4
:203F000007242402FF34A74250D0CB02440D2343C2024800400D51D00124E4072343072475
:203F20002402FF34A04241D0C01901B41800290001F082F90F0001B41800310001F07CF987
:203F400003000C001000310001F076F906001000290001F071F905007618002202BC01BCE7
:203F600055415141A419554151418024A4005B195141FF18514100D564003F19514102D444
:203F80007F00494100E0401C03242402FF34001B14DD2419A04209D80305F80A4C05204392
:203FA0004900090B194310BC2143FCBD0020FF21C900C91D090510BC2143FCBD0021002038
:203FC00001B0FCBDF0B581B0244900220A7024490A70244901270F7023490A7023490A60E1
:203FE0004A6023490A604A6022490A6022490A6022490A604A600A664A66214C226062609D
:20400000226662661F4B1A605A601A665A661E4B1A605A601A665A661C4A1D4B1D4D1560E8
:204020005360012803D01D4D022803D003E01A4D022800D11A4D1B4E084632462B4601F02D
:20404000D9FAFB076B402046324601F0D3FA01F05BFA01F065FA01B0F0BDC046EA0A202016
:20406000E90A2020EB0A2020EC0A2020780A2020800A2020D80A2020DC0A2020F005202099
:20408000A00620205007202000082020B00A202062762640BC5CC477187568C018756840E6
:2040A000187578C09D4F1AF9F0B584B03049314A0125AC0316682B0203939E4316600E688C
:2040C000264205D10E68264202D10E682642F6D06C02467E9769AF432E40BD1995612025AA
:2040E000455DD6690327BE433D407519D561224D2E680727374005262E60466A3368136250
:20410000736853622F60C3695B065B0CD5697F263602B543EB18D361E8C8009707680197F4
:20412000476802971B071B0B2D03ADB2ED1833071B0D007A009E35431D43019B1D43029B70
:204140001D43054390690D4B03400D482840C01890611068039B184310600868204205D114
:204160000868204202D108682042F6D004B0F0BD04020B4008010B40001340408D00F0FFED
:2041800072FF0F00F0B589B01E46049103900E980290002A20D017460196D0171146414030
:2041A0000C1A00260A252046294600F06FFF4543611B30220A43711C05AB9A55092C044603
:2041C0000E46EFD8002F0BD405A8002242540129019E2ED0491E0AE005A83021018028E0B2
:2041E00005A842182D23435400205070019E891E002005AA135C5418A5781554A370421C0A
:204200004B1C9A4215DA05AA13185C78521855785D705470821C8A420BDA05AA13189C78B9
:20422000555C9D705454C01CCA1E491E88421146DFDB029F009705AA039D2846049C214616
:204240003346FEF7F7F90C350097E8B2034A21463346FEF7EFF909B0F0BDC0469958000027
:20426000FCB40127FF07794002E0FCB40127FF070C024D002D0E03D1002C52D1FCBC7047BF
:204280003C43FF2D50D0A408002900D56442020243001B0E04D1002A43D10800FCBC704709
:2042A0003A43FF2B41D09208002800D552425E1B04D5170022003C0076422B00192E06D54F
:2042C00027003741D2191C27F71B7F42BC40002A27D002D55242012700E00027013B5200F9
:2042E000FCD51500802635400FD01500202635402C43803208D21500402635402C4304D1DF
:2043000001263602B24300E05B1C5200023308DDFF2B0BD2500ADB051843FF073843FCBCB1
:2043200070470020FCBC70470800C70FFF07FF20C0053843FCBC7047F0B585B01946044602
:204340008834076B436B0392104604913A460293FEF734FE0125EA079143244A244B00F00D
:2043600003FC00260028304607D1384602AB0ECB00F0FAFB0028284606D0206201F01CF8C6
:2043800002900191AF0706E00026F0432062194F194801900296A268E3680398049904926D
:2043A0000393FEF70BFE05460120C00700918143284632463B4600F0F5FB39460746304658
:2043C000029A019BFFF78CFD02460B46002F00D12A46002F00D1009B04980399FEF7F3FD65
:2043E00003C42060616005B0F0BDC046FCA9F1D24D62503F000008400000F0BFF0B589B0D2
:2044000014460E9A0392002C049321D002900191E017214641400D1A00270A2628463146EB
:2044200000F034FE4643A91B30230B437A1C05A9CB55092D05461746EFD8002C0CD405A8AA
:2044400000218154012A019902982FD0521E0BE005AA3024148029E005A881182D238354A0
:204460000020487001990298941E002205ADAB5C2F19BE78AE54BB70531C651CAB4215DA2C
:2044800005AB9D186E781B195F786F705E70931CA3420BDA05AB9D18AE781F5DAF701E5507
:2044A000D21CE31E641EA2421C46DFDB039A009205AA049BFEF7BEF809B0F0BDB0B51B4934
:2044C00001220A701A4900240C701A490C701A490C701A490C604C6019490C604C60194927
:2044E0000C6019490C6019490C604C600C664C6600F062FF164A03C2164A174BFFF712FAAA
:20450000164B2246FFF7ECFC04460D46144822460B4601F06FF8134822462B4601F06AF863
:2045200000F0F2FF00F0FCFFB0BDC046EA0A2020EB0A2020EC0A2020E90A2020780A2020A8
:20454000800A2020D80A2020DC0A202040052020580A20204694F6065FD82D4000407040B8
:20456000F0052020A0062020F0B5234801225102224B1B68012B16D0022B3BD1204B1C4692
:20458000103C2468E40023D514071E4D2F681E4D2E68FF0201D50022D24392192A601A6884
:2045A00022431A6014E0164A1346103B1B68DB000ED501242307134D2F68134D2E68FF02A6
:2045C00001D50024E443A4192C6014681C43146002680A420ED00B4A14680C4A13682407C1
:2045E00002D50024E44300E00124E318136002690A430261F0BDC04638300A4030114040E5
:2046000048100A4080330A40B80A2020BC0A2020002A49D084468B071CD1830722D1102AB0
:2046200008D370B4103A78C978C0103AFBD270BC103238D0042A2CD3082A05D30C2A01D3EA
:2046400008C908C008C908C008C908C092072AD0920F22E00B780370491C401C521E22D040
:204660008B07F7D1C30714D18307D8D0121F12D308C903801B0C4380001D121FF8D20AE0A9
:2046800008C903701B0A43701B0A83701B0AC370001D121FF4D2121D05D00B780370491C1B
:2046A000401C521EF9D160467047704770B582B01B491C4C204600F001FF1B492046FFF717
:2046C000B7F91A4801681A4A0A40026000250095204629462A462B4600F0FEFE204629461E
:2046E0002A4600F0DDFE204629462A4600F04AFF01260096204629462A462B4600F0ECFEB4
:2047000020462946324600F0CBFE20462946324600F038FF074886600321016002B070BD86
:20472000575900000040084018590000045808407F00FFFF00510840FCB40127FF07060032
:204740004E4001D4002600E03E00020243001B0E30D03A43FF2B30D00C024D002D0E29D00C
:204760003C43FF2D29D05B194240504042404C4061404C4000B500F05FFD20BCAE46424081
:20478000504042404C4061404C4025001400002C01D46400013B803401D3013364087E3B93
:2047A00008DDFF2B09D2BC43200ADB0518433043FCBC70470020FCBC7047FF20C0053043E3
:2047C000FCBC7047FCB40127FF0706004E40F60FF607020243001B0E2DD03A43FF2B2DD0E5
:2047E0000C024D002D0E26D03C43FF2D26D05B1B0020202164085208A2424041A24200D3D3
:20480000121B013904D0002A01D05200F4D18840384201D14000013B803001D3013300E023
:2048200040007F3307DDFF2B08D2400ADB0518433043FCBC70470020FCBC7047FF20C005C4
:204840003043FCBC70470000F8B5451C00780023082B32D02F78C2070CD16A780F241440E2
:20486000E41C122C0BD102242E57F4B2002E08D4EE1C0EE06D1C4A1C0F7011461AE0AE1C42
:2048800008E02E1DED7800957F252C40009DED012C1912343D0112095219094DAA420ED0E1
:2048A000D243002C05D08D5C4F1C0D70641E3946F7E7354640085B1CCAE72846C5E7F8BD78
:2048C000FF0F0000F0B589B01F4616461899089119990791169906911799059115990291CA
:2048E0001499019112990491139903910EAD3CCD00210160416006614761064618363CC667
:204900008162C16201634163024680328023019CC450029B53608165C16501664166049934
:2049200081660399C1660699016705994167089981670799C16709B0F0BD000010B51649A5
:20494000164C204600F00CFE1549204600F0ECFA144802680321CB039A4302600269124B3C
:204960001340412292009A18026142691B231343242293434361426801231A4044689C4328
:20498000A2184260094A146889022143116001681943016010BDC04660590000008010400A
:2049A000FA580000009110400000FFFF28901040FEB502930F46194D0024E143184E009776
:2049C0003740019043422B46BB4101D20C4623E0084602990E405342B54101D204461BE0DB
:2049E000134601990B433E431E43029D009E13D02B46334004D401998B1A3346AB4103E031
:204A00000199531A2B46B341044605DB51406E400E43701E864134462046FEBD0000F07F11
:204A2000FFFFFF7FF8B50446164F174D0E462E400120009464423C46B4411AD31D405442C6
:204A4000AF4116D31046009C20433543054311D00020C0431C460C400ED4009CA41A0C4628
:204A60009C4106DB0098504059400143481E81410846F8BD0020F8BD009C141B1C468C4179
:204A8000F0DAF6E70000F07FFFFFFF7F70B5154800240460144D28680F210902884301265C
:204AA000710240182860281F01680322D2430A4002606868B04368606868310288436860EC
:204AC0000A48FFF7F1FA2868102101432020814329602868310301432960204600F0B4FA7C
:204AE00070BDC04608030B4004010B404C580000F0B581B00C46154E374610370028394643
:204B000000DC31460028324600DC3A4601252B040B60A9031160C1174840411A0C48002238
:204B200000F030FD002C384600DC3046002C00DC3E46A9050160E8033060E0174440211A90
:204B400003482A4600F01EFD01B0F0BD90120A400040084010B5FFF765FF002801D0002085
:204B600010BD012010BDC04610B5FFF75BFF002801DB002010BD012010BDC04610B5FFF7BF
:204B800051FF002801DD002010BD012010BDC04610B5FFF70DFF002801DA002010BD012006
:204BA00010BDC04610B5FFF703FF002801DC002010BD012010BD000010B500F01FFB00288E
:204BC00001D0002010BD012010BDC04610B500F015FB002801DB002010BD012010BDC04679
:204BE00010B500F00BFB002801DD002010BD012010BDC04610B500F0C5FA002801DA00207C
:204C000010BD012010BDC04610B500F0BBFA002801DC002010BD012010BD8446830706D05F
:204C2000002A29D001700130013A8307F8D1042A1CD30906090E0B0219430B041943082AD8
:204C400010D30B00102A09D370B40F24161B22400C000D003AC0103EFCD870BC082A01D3FF
:204C60000AC0083A042A01D302C0043A002A03D0013A8154013AFCD26046704710B5124993
:204C8000124C204600F06CFC1149204600F04CF9104801680322D2039143016001690E4A51
:204CA0000A40911C016141690B220A4334218A434261416801221140436893435918416002
:204CC00001681143016010BD4A58000000001040F0580000001110400000FFFFF0B581B07A
:204CE0001E4617460B460546104631462A460093FEF764F90122D207914300220D4C234681
:204D0000FFF750FF002811D0384631462A46009E3346FFF747FF002800D1074C00202146BA
:204D20002A463346FEF74FF907460E463846314601B0F0BD00003440000034C0F0B589B013
:204D40001C461546059103901498049015980290139801900EAFCBCF303506AA157030345D
:204D60005470303090703031D17030331371303656713037977101983030D071002010720E
:204D80000298009003980599049BFDF753FC09B0F0BD00001CB5002922D04C08002900D52A
:204DA000494242105440002800D5404200230A00904201D95200FBE790425B41904200D3E3
:204DC000801A914201D25208F6E71900002C00D54042640000D549420200080011001CBD08
:204DE00001000020FFF761FC1CBD000070B50C480C4941600C4A51600C4B59600C4C6160C7
:204E00000C4D69600C4E71600C49016011601960216029603160102000F0DEFB70BDC046DE
:204E200000080A40030000B100280A40004808400028864000881040000810400100002625
:204E4000F0B583B01F4600920D460446FFF7AAFE01900120C60702977E4027462C46009DF6
:204E6000284631463A462346FFF79CFE002800D126460028284600D13846019A002A02992A
:204E800000D10546002A00D13146284603B0F0BDF0B583B002930192064604469834A0684C
:204EA000E1680B4A0B4BFFF71BF807460D460A4B01980299064AFFF713F83A462B46FEF795
:204EC00082F89822B0506160A060E16003B0F0BD9A9999999999E93F9999C93F0CB54A0038
:204EE000520D03231B02FF33D21A13D31F239A1A12D98E46C9020123DB071943D1400B2AE4
:204F000002D21532D04001437346002B00D5494208000CBD00200CBD0B000120C007002B06
:204F200000D401380CBD000070B511221302C218C4580125AC43C4500C888D7825438C88FA
:204F40002C43C558084E2E40084D25407419C4508879CB790343087A184351687E23994308
:204F600018400818506070BDE798FDFF1867000010B50B490B4C204600F0A0FA0A492046C9
:204F8000FEF7C6FE0948016801221143016008480168FF231B06994301600648026010BD10
:204FA0005A59000000208640745800002830864010E400E008318640B0B50F490A6800204C
:204FC000D20518D40D4A13685B0114D413689B0111D401231C02156825420CD10C6824035E
:204FE00009D40C68640306D40968490603D41068400A83431846B0BD80330A4080130A405B
:2050000080B58CB00022089209920A920B920792069205920492084803900848019001204C
:20502000800702900720400700900548054BFFF749FC0CB080BDC0463333C33F51B89E3F34
:20504000400520200000104010B50E490E4A01235C0590600868204205D10868204202D145
:2050600008682042F6D010681B04034313600868C00605D40868C00602D40868C006F6D52C
:2050800010BDC04604020B4004010B401CB50A0017D000230124E407A04200D20400944219
:2050A00001D95200FBE790425B41904200D3801A914201D25208F6E7190002000800110024
:2050C0001CBD01000020FFF7F0FA1CBD08B443001B0E0FD0FF2B11D00721C9015B18C10FD6
:2050E000C9020B43010048074902090B1B05194308BC70470021002008BC704701004002F2
:20510000C90DC900C91D090508BC704780B582B001900198411E0191002813D0502000F094
:205120005BFA0198411E019100280BD0502000F053FA0198411E0191002803D0502000F0FB
:205140004BFAE6E702B080BD06B49E22002802D404D106BC7047414204D400E00100013A11
:205160004900FCD5803101D3013200E04900490AD2051143002802D50122D207114308005F
:2051800006BC704740B542004B005E08164301D006004E4000D4D01A04D20120C90F06D18C
:2051A000404204E003D90120C90F00D04042FF263606B24200D8B34201D90120404240BDC6
:2051C00070B50A480A4C84420CD00A4D0A4EB54208D02A686968501C12789200A258904726
:2051E0000835F4E700BF00BF70BDC0467459000068590000885900009859000040B542004F
:205200004B005E08164301D006004E4000D4D01A04D20120C90F06D1404204E003D9012058
:20522000C90F00D04042FF263606B24200D8B34200D9012040BD0000FCB4020C0B0CFF2433
:205240002402FF34204021400C00444315005D4306005E430F005743320C3B0CA818C0187F
:2052600032043B040025A1186841C9186841FCBC704700000A480068C0B20B280ED10948AA
:20528000C169094A117011780268D20705D00268D20702D00268D207F6D181617047C046B1
:2052A0002090104008911040F40A202006B54100090E7F390DD41F22511A0CD986460002BC
:2052C0000122D2071043C8407246002A00D5404206BD002006BD02000120C007002A00D4B0
:2052E000401E06BD80B509480021017008480078002804D107480168012291430160064852
:2053000000210A4600F03EF980BDC046EF0A2020F00A2020045808400040084082B0F8B534
:20532000069207930291019006A9039107480090074B02A801AAFDF729FC019900220A70FF
:2053400004B080BC02BC02B00847C046F1540000E355000080B5FFF749FDFEF74DFDFFF775
:2053600095FBFFF7A3F9FFF703FEFFF7E7FAFFF785FC00F085F800F035F80248B8210022F7
:20538000425480BD80042020B0B5094B094A05689542144602DC9D421C4600DA04600868FF
:2053A000904202DC98421A4600DA0A60B0BDC046B4E2FFFF4C1D000004B40422002802D176
:2053C000002104BC704701D50832404212021F320100521E4900FCD30805090B1205114329
:2053E00004BC70470748084902680A408A4207D002680A408A4203D002680A408A42F3D1A8
:205400007047C04604020B40000A200080B5064800210170054803680122934303600448DF
:2054200000F0B0F880BDC046F00A20200458084000400840084880F3088800BF00BF00F06A
:20544000E3F8002801D0FFF7BBFE0020FDF74AFA012000F0D2F8C04600802020B0B5044621
:205460000020002B08D0D2B20D782570954204D0641C491C5B1EF7D1B0BD601CB0BD000044
:205480000548042101600549416000218160016805220A430260704710E000E0FF69180002
:2054A00010B592008018044A83580724A404A34321405918815010BD3018000010B501227B
:2054C000120383180C789C604B7883508978014A815010BD0C11000010B5029CA4000019DF
:2054E00011431943014A815010BDC04650180000B0B514460D460146286800F077F82868CD
:20550000001928602046B0BD034801210170034802680A4302607047EF0A20200458084041
:20552000034801210170034802680A4302607047F00A20200458084072B60349086800228E
:205540000A6062B67047C046B80A202072B60349086800220A6062B67047C046BC0A2020BF
:2055600010B50122120383180C789C604978815010BD80B50B4603214258C11D184600F044
:2055800035F880BD92008018014A81507047C0461018000080B50A4603214158104600F0EE
:2055A0000FF880BD0B4611461A4680B5FFF735FB80BD0021425C491C002AFBD1481E7047D0
:2055C0000A46002180B5FFF728FB80BD0148202101607047A0120A40811E091F00BFFCD2DD
:2055E00070470A68531C0B601070704780B5FFF70FF880BD8262C362704700F001F8FEE774
:1056000000BF704716E77047012070470000000098
:2056100000000000000000005F000000000700070000147F147F1400242A7F2A1200231394
:2056300008646200364955225000000503000000001C224100000041221C0000082A1C2AC8
:20565000080008083E0808000050300000000808080808000060600000002010080402002E
:205670003E5149453E0000427F4000004261514946002141454B31001814127F10002745DF
:20569000454539003C4A49493000017109050300364949493600064949291E0000363600DA
:2056B000000000563600000000081422410014141414140041221408000002015109060089
:2056D000324979413E007E1111117E007F49494936003E41414122007F4141221C007F495E
:2056F000494941007F09090101003E41415132007F0808087F0000417F4100002040413FFA
:2057100001007F08142241007F40404040007F0204027F007F0408107F003E4141413E009C
:205730007F09090906003E4151215E007F091929460046494949310001017F0101003F4006
:2057500040403F001F2040201F007F2018207F0063140814630003047804030061514945AA
:20577000430000007F41410002040810200041417F00000004020102040040404040400049
:205790000001020400002054545478007F4844443800384444442000384444487F003854A0
:2057B00054541800087E09010200081454543C007F080404780000447D4000002040443D9E
:2057D0000000007F1028440000417F4000007C04180478007C08040478003844444438006A
:2057F0007C1414140800081414187C007C0804040800485454542000043F444020003C40BA
:2058100040207C001C2040201C003C4030403C004428102844000C5050503C004464544C54
:20583000440000083641000000007F00000000413608000008082A1C080004000100000034
:205850000000000000000000400000000000000000000000020000000400000001000000F1
:205870002C00C441020000007C0300000100000000000000000000003031323334353637C9
:20589000383961626364656600436972636C657320446F6E6500436972636C653A25642F83
:2058B00025640052657475726E696E672E2E2E004C656674205475726E2E2E2E0053746101
:2058D0007274696E672E2E2E00436F6D706C657465642100466F72776172642E2E2E0000ED
:2058F00000001800000000300000000018000000003000005475726E3A25642F3400546F76
:205910002053746172740000401F000020010100436972636C653A00436972636C65730077
:205930005461736B205131006C696E653A005475726E3A007467743A006163743A0065728B
:18595000723A0051313A000800090806FF2F340008002F00000000001F
:20596800494800007355000095550000000100000F9201FFF000000002000000500A0000EE
:1059880074590000500A202080590000000020208F
:00000001FF
