:2000000000802020455F00000F3700000F37000000000000000000000000000000000000F0
:200020000000000000000000000000000F37000000000000000000000F3700000F370000EE
:200040000F370000F54A00000F3700000F3700000F3700000F3700000F3700000F37000077
:20006000000000000F3700000F37000000000000000000000F3700000F370000DD5A000031
:200080000F3700000F3700000F370000AD2000000F3700000F370000000000000000000035
:2000A0000F3700000F37000000000000000000000F370000000000000F3700000F370000E2
:2000C000F0B599B0AE200024214602F069FA2046214602F065FA1020214602F061FA40261C
:2000E0003046214602F05CFA81201690214602F057FACF20214602F053FAA1201590214688
:2001000002F04EFAC820214602F04AFAA6252846214602F045FAA820214602F041FA3F2094
:200120000A90214602F03CFAD3200D90214602F037FA2046214602F033FAD520069021469E
:2001400002F02EFA80273846214602F029FAD9200590214602F024FAF1200490214602F0E1
:200160001FFADA20214602F01BFA1220214602F017FADB200B90214602F012FA0C9630464F
:20018000214602F00DFA20200790214602F008FA0220214602F004FA8D200390214602F0BB
:2001A000FFF91420214602F0FBF9A4200990214602F0F6F90E952846214602F0F1F9014A82
:2001C000089701E00000202017970120119040021890101814900320C001129011181391E6
:2001E0001046E03010901046C0300F901346A0331546803517466037114640311046203076
:200200001470147214741476079E94550472047404760C9814540C720C740C766020145458
:200220003C723C743C76089814542C722C742C76A02014541C721C741C76C02014540F98FF
:20024000047204740476E020145410980472047404761198000214542126F00014541120DB
:20026000000114542325E80014540920400114542523D80014541320000114542721C80077
:2002800014540520800114542920C00014541520000114542B20C00014540B204001145492
:2002A0002D20C00014541720000114542F20C00014541298145413980472047404760D2060
:2002C000400114543520C00014541B20000114543720C00014540720800114543920C000AC
:2002E00014541D20000114543B20C00014540F20400114543D20C00014541F200001145468
:200300000A98C0001454179F403F149A00D05BE707950A930C91024B8020089602E0C046D5
:20032000000020201390FF20179082301190191812911846E13010901846C1300F901D468D
:20034000A1351F468137194661311A464132184621305C705C725C745C76089E9C550472EE
:2003600004740476412014901C5414721474147661229C540C720C740C7616981C543C72BF
:200380003C743C76159FDC552C722C742C76C1255C550F980472047404761799E1269C55E8
:2003A0001098047204740476084602301C5408460A301C54084612301C5408461A301C543D
:2003C000084622301C5408462A301C54084632301C5408463A301C54084642301C5408462F
:2003E0004A301C54084652301C5408465A301C54084662301C5408466A301C5408467230F3
:200400001C5408467A301C5411981C5412980472047404760846A2301C540846AA301C54B1
:200420000846B2301C540846BA301C540846C2301C540846CA301C540846D2301C540846FE
:20044000DA301C540846E2301C540846EA301C540846F2301C540846FA301C5418981B18CF
:200460001398403800D05DE70892024880210195029601E000002020139101994900119148
:20048000421812920146E23110910146C2310F910546A235074682370346623302464232C7
:2004A00001462231847084728474847622268455029E0C720C740C7642214454147214747C
:2004C0001476622144541C721C741C76822144543C723C743C76A22144542C722C742C7641
:2004E000C22144540F990C720C740C76E221445410990C720C740C7616994900445485225E
:200500005100445489214900445403994900445491214900445495214900445499214900BD
:2005200044549D2149004454159949004454A52359004454A92149004454AD2149004454E2
:20054000B12149004454B52149004454B92149004454BD21490044541199445412990C724C
:200560000C740C76D12149004454069949004454059949004454DD214900445471004454BF
:20058000E52569004454E92149004454ED2149004454049949004454F52149004454F921E7
:2005A00049004454FD2149004454189940181399403900D060E7029503930492014E802064
:2005C000179D01E0000020201590284684301290311813913046E33011903046C3301090BD
:2005E0003046A3300F9037468337314663313246433230462330F470F472F474F476079BDD
:20060000F454047204740476432016903454147214741476632034540C720C740C768321D2
:2006200074543C723C743C76A322B4540F98047204740476C323F4541098047204740476C8
:20064000E327F455119804720474047628460430345428460C303454284614303454284632
:200660001C30345428462430345428462C30345428463430345428463C303454284644306C
:20068000345428464C30345428465430345428465C30345428466430345428466C30345448
:2006A00028467430345428467C3034541298345413980472047404762846A4303454284681
:2006C000AC3034542846B43034542846BC3034542846C43034542846CC3034542846D430AC
:2006E00034542846DC3034542846E43034542846EC3034542846F43034542846FC30345418
:20070000189836181598403800D05DE70597069307920F910148802102E0C0460000202022
:200720001591089989001291421813920146E43111910146C43110910546A4350746843740
:200740000346643302464432014624310471047304750477242684550C720C740C76442177
:200760004454147214741476642144541C721C741C76842144543C723C743C7609994454F5
:200780002C722C742C76C421445410990C720C740C76E421445411990C720C740C7614995F
:2007A000890044541699890044544523990044544722910044544921890044544B2189009D
:2007C00044544D21890044544F2189004454512189004454532189004454552189004454A2
:2007E0005721890044545921890044545B21890044545D21890044545F218900445412993D
:20080000445413990C720C740C766921890044546B21890044546D21890044546F218900F4
:2008200044547121890044547321890044547521890044547721890044547921890044548D
:200840007B21890044547D21890044547F2189004454189940181599403900D060E7099279
:20086000F8488021179A11930A9F169186321492811815910146E53113910146C531129174
:200880000646A536054685350346653302464532014625314471447344754477C4550C7278
:2008A0000C740C7611994454147214741476652144541C721C741C76049944542C722C741B
:2008C0002C7603994454347234743476179AC521445412990C720C740C7602994454139911
:2008E0000C720C740C7611460631445411460E31445411461631445411461E314454114659
:200900002631445411462E31445411463631445411463E31445411464631445411464E31AA
:20092000445411465631445411465E31445411466631445411466E31445411467631445481
:2009400011467E3144541499445415990C720C740C761146A63144541146AE31445411469B
:20096000B63144541146BE3144541146C63144541146CE3144541146D63144541146DE31EA
:2009800044541146E63144541146EE3144541146F63144541146FE314454189940181699BF
:2009A000403900D061E7A74880211691069949001491421815920146E63113910146C631A1
:2009C00012910646A6360746863705466635024646320146263184718473847584772623D5
:2009E000C4540C720C740C7646214454147214741476662144542C722C742C76862144548A
:200A00003C723C743C760E994454347234743476179AC621445412990C720C740C76E6212D
:200A2000445413990C720C740C760F99490044548723590044548B21490044548F21490048
:200A400044549321490044549721490044549B21490044549F214900445407994900445411
:200A6000A72569004454AB2149004454AF2149004454B32149004454B72149004454BB2101
:200A800049004454BF21490044541499445415990C720C740C760D9949004454D721490079
:200AA00044540B9949004454DF2149004454059949004454E72671004454EB2149004454B6
:200AC000EF2149004454F32149004454F72149004454FB2149004454510044541899401848
:200AE0001699403900D060E7564880210A9308950496169111468831149143181593103203
:200B00001292811813910146E73111910146C73110910746A73705468735034667330246B6
:200B2000473201462731C471C473C475C4770C9E84550C720C740C76099944541472147472
:200B40001476672144541C721C741C760A9BC4542C722C742C76089D44553C723C743C7650
:200B6000C721445410990C720C740C76049E179A845511990C720C740C761146083144544E
:200B80001299445413990C72114620314454114628314454114630314454114638314454B8
:200BA0001146403144541146483144541146503144541146583144541146603144541146AE
:200BC000683144541146703144541146783144541146803144541499445415990C720C742B
:200BE0000C761146A83144541146B03144541146B83144541146C03144541146C83144543B
:200C00001146D03144541146D83144541146E03144541146E83144541146F031445411467D
:200C2000F831445408494454189940181699403900D05EE701F07EFEAF20002101F0B0FCCA
:200C400019B0F0BD00002020FF010000F0B593B0014C80200A9001E000002020119001208C
:200C60000D9040021290201810900320C0010E9021180F912046E0300C902046C0300B90BD
:200C80002546A03527468037264660362246403220462030002121702172217421762023AA
:200CA000E15401720174017640202154117211741176602021543172317431760A98215441
:200CC000397239743976A0202154297229742976C02021540B98017201740176E020215435
:200CE0000C980172017401760D98000221542126F00021541120000121542325E8002154DD
:200D00000920400121542523D80021541320000121542722D00021540520800121542920C4
:200D2000C00021541520000121542B20C00021540B20400121542D20C000215417200001B8
:200D400021542F20C00021540E9821540F980172017401760D20400121543520C00021540C
:200D60001B20000121543720C00021540720800121543920C00021541D20000121543B207D
:200D8000C00021540F20400121543D20C00021541F20000121543F20C0002154119840383D
:200DA000109C00D05AE7069508930992014C80200A9601E0000020201190FF273846823000
:200DC0000D9022180E922046E1300C902046C1300F902046A1300B902646813622466132A3
:200DE000234641332046213061706172617461760A9D6155017201740176412010902154DD
:200E00001972197419766123E1541172117411768122A154317231743176A126A1550B98FC
:200E2000017201740176C12561550F98017201740176E1200F9021540C9801720174017699
:200E400038460230215438460A30215438461230215438461A30215438462230215438460B
:200E60002A30215438463230215438463A30215438464230215438464A302154384652301F
:200E8000215438465A30215438466230215438466A30215438467230215438467A3021541C
:200EA0000D9821540E980172017401763846A23021543846AA3021543846B230215438462E
:200EC000BA3021543846C23021543846CA3021543846D23021543846DA3021543846E2305F
:200EE00021543846EA3021543846F23021543846FA302154129824181198403800D05BE725
:200F0000079311970495024D80200392059601E0000020200E90049840000C902A180D92BF
:200F20002846E2300B902846C2300A902A46A2322E4682362C4662342B464233284622307E
:200F4000A970A972A974A9762227E9550172017401764220295419721974197662202954B6
:200F600021722174217682202954317231743176059EA2202954117211741176C2202954D4
:200F80000A98017201740176E22029540B9801720174017603984000295485225000295403
:200FA0008920400029548D20400029549120400029549520400029549920400029549D204E
:200FC0004000295470002954A52358002954A92040002954AD2040002954B120400029542C
:200FE000B52040002954B92040002954BD20400029540C9829540D98017201740176D12019
:2010000040002954D52040002954D92040002954DD20400029540F9840002954E524600024
:201020002954E92040002954ED2040002954F12040002954F52040002954F920400029542D
:20104000FD204000295412982D180E98403800D060E700940193029201488022119B01E05E
:20106000000020200E9284330C93C2180D920246E3320B920246C3320A920546A33506467F
:201080008336044663340346433302462332C170C172C174C176069FC15511721174117640
:2010A00043220F92815419721974197663228154217221742176119B8324015531723174A4
:2010C0003176A3268155297229742976C32541550A9A117211741176E327C1550B9A1172FA
:2010E000117411761A46043281541A460C3281541A46143281541A461C3281541A46243252
:2011000081541A462C3281541A46343281541A463C3281541A46443281541A464C328154CB
:201120001A46543281541A465C3281541A46643281541A466C3281541A46743281541A4658
:201140007C3281540C9A81540D9A1172117411761A46A43281541A46AC3281541A46B432F7
:2011600081541A46BC3281541A46C43281541A46CC3281541A46D43281541A46DC3281549B
:201180001A46E43281541A46EC3281541A46F43281541A46FC328154129A80180E9A403A8D
:2011A00000D05FE70397049505960694014E802002E0C046000020200E90079880000C9041
:2011C00032180D923046E4300B903046C4300A903746A43734468434324664323346443375
:2011E000304624303171317331753177242571550172017401764420315419721974197693
:201200006420315411721174117684203154217221742176A4203154397239743976C4201A
:2012200031540A98017201740176E42031540B980172017401761098800031540F988000C9
:2012400031544523980031544722900031544920800031544B20800031544D2080003154B6
:201260004F208000315451208000315453208000315455208000315457208000315459209D
:20128000800031545B20800031545D20800031545F20800031540C9831540D98017201740D
:2012A00001766920800031546B20800031546D20800031546F2080003154712080003154DD
:2012C0007320800031547520800031547720800031547920800031547B20800031547D2065
:2012E000800031547F2080003154129836180E98403800D060E70792F64A80200B93119B55
:20130000089F109086330E93D0180F901046E5300D901046C5300C901646A536154685356A
:201320001446653413464533104625305171517351755177D1550172017401760B9811549D
:2013400019721974197665201154217221742176119B0298115429722974297601981154BD
:20136000317231743176C52011540C98017201740176009811540D980172017401761846D2
:201380000630115418460E30115418461630115418461E30115418462630115418462E30C2
:2013A000115418463630115418463E30115418464630115418464E301154184656301154AB
:2013C00018465E30115418466630115418466E30115418467630115418467E3011540E9882
:2013E00011540F980172017401761846A63011541846AE3011541846B63011541846BE3053
:2014000011541846C63011541846CE3011541846D63011541846DE3011541846E63011547A
:201420001846EE3011541846F63011541846FE301154129812181098403800D061E7A54DF3
:2014400080201090049840000E902A180F922846E6300D902846C6300C902E46A6362F4609
:2014600086372C4666342B46463328462630A971A973A975A9772622A954017201740176DD
:201480004620295419721974197666202954217221742176119A862029543972397439762B
:2014A000A6202954317231743176C62029540C98017201740176E62029540D980172017484
:2014C00001760698400029548723580029548B20400029548F204000295493204000295477
:2014E0009720400029549B20400029549F2040002954059840002954A72460002954AB20B7
:2015000040002954AF2040002954B32040002954B72040002954BB2040002954BF204000A7
:2015200029540E9829540F98017201740176D32040002954D72040002954DB2040002954E9
:20154000DF2040002954039840002954E72670002954EB2040002954EF2040002954F320D6
:2015600040002954F72040002954FB20400029545000295412982D181098403800D060E70F
:20158000544D80200893029401961090104688300E902B180F9310320C92A8180D90284666
:2015A000E7300B902846C7300A902F46A7372C4687342B4667332A46473228462730E971E7
:2015C000E973E975E977099EA95501720174017607982954117211741176672029541972B3
:2015E00019741976089BE954217221742176029C119A2955397239743976C72029540A985C
:20160000017201740176019EA9550B980172017401761046083029540C9829540D98017288
:20162000104620302954104628302954104630302954104638302954104640302954104655
:20164000483029541046503029541046583029541046603029541046683029541046703023
:2016600029541046783029541046803029540E9829540F980172017401761046A83029541B
:201680001046B03029541046B83029541046C03029541046C83029541046D0302954104625
:2016A000D83029541046E03029541046E83029541046F03029541046F8302954064829541E
:2016C00012982D181098403800D05EE701F032F913B0F0BD00002020FF010000F0B5FFB0C6
:2016E0008EB0049306920646929802900025E84305908C913468204604F0E5FB21188B9544
:2017000003918C4200D3BBE00020879087A908738890059889902F46049D2078002800D1A2
:20172000AFE0252805D0641C34600699A8477F1CF3E78B97601C306087AC2046314600F0B3
:20174000A7F88CAA2046314600F0BFF8306801787A2925D0682919D06A2908D06C290ED02F
:20176000742908D04C2922D1879980221BE087990122D20217E087990122520313E042787C
:2017800087996C2A64D10122120205E042788799682A60D10122520211438791801C05E041
:2017A0008799012212030A438792401C0178441C346087A8017373291FD06E2929D18798C4
:2017C00032490840202850D040283CD001214A03904238D04A02904242D0CA02904205D07E
:2017E0000A0390422FD0090288422CD1F8178C9904C98C91176050603BE087A800784006EC
:2018000019D4009587A88CAA8BAB069900F01DF92FE007AD87A98CAA284600F06DF90246D1
:2018200028460699029B9847411C059D00D0C5198B9503991FE0009587A88CAA8BAB0699E8
:2018400000F09FF815E08C9802C88C900F6010E0401C402201E0401C202211438791A5E76E
:201860008C9802C88C900F7003E08C9802C88C900F8003998B9D681C00D042E7059F00E09E
:201880002F4638467FB00EB0F0BDC046603F000010B50A681378302B0FD0232B07D02B2B9F
:2018A00009D02D2B05D0202B0ED1042306E0082304E0012302E0022300E0102304681C43D3
:2018C0000460521C0A60E5E710BDFEB516460D460446086802782A2A10D13068011D316021
:2018E00000686060002805D54042606020680121014321602868471C2F6017E00021303A09
:20190000092A08D84218531C2B60435C6F467B545278491CF3E76A460023535412784718D1
:20192000002A03D0684604F005F8606038782E2826D1781C286079782A2908D13068011D5F
:2019400031600068A0602868401C2860FEBD00203039092908D839188A1C2A604A786B46D0
:201960001A548978401CF3E76A46002111541078002804D0684603F0DDFFA060FEBDA160CF
:20198000FEBDF0B587B01E460C9F13681C1D14601D68002D3BD0049106908468002C04D4A1
:2019A000284604F079FA844203D3284604F074FA044606984068A042039000DC2046014658
:2019C0003068019140180296306005940398A0420EDD06980078C0070AD1059801990E1A45
:2019E0000024B44204DA20200499B847641CF8E70026049C069805998E420BDA2868010A62
:201A000019D12D1DC0B22146B847761CF2E70020B84718E00599039A8A4214DD0078C00701
:201A200011D00198451A0024AC420CDA20200499B847641CF8E70020C0430299086004F080
:201A400071FA5821016007B0F0BDF0B585B00C4606460A9D1068011D116000680490002893
:201A600044D00393B768002F04D4049804F02BFA874203D3049804F026FA074602967268D3
:201A8000BA42114600DC3946039B18680091401818600192BA420FDD02980078C0070BD1E9
:201AA0000098C01B039000260398864204DA20202146A847761CF7E70026BE4205DA049812
:201AC000805D2146A847761CF7E70198B84210DD02980078C0070CD00098C61B0027B74295
:201AE00007DA20202146A8477F1CF8E700202146A84705B0F0BDC046F0B589B001920F4651
:201B00000446FF210846FA30251878680290002607960391FE3120222046009204F0CCF9BB
:201B20007F20800006942118089104952E713D46387B0246613A172A2AD8012393402C461D
:201B4000B44D2B42254608D007A908AA2846019B00F066F900260596B3E071252B42254657
:201B600022D1022A14D1019B1868021D1A600068C2B2534253410593039AFC32069B9A18F1
:201B8000089208702868022188432860002698E001464539032907D3252860D0412803D00B
:201BA00058280596D0D08DE0019A1068C11D0720814308460830106005C9D1432F7B490056
:201BC000490D0BD17B3F944911400143049C2CD01920C1438F4234D36E2033E0002A01D456
:201BE000114602E00121C9075140D60F002205923A46413A062A0BD9613F062F61D8C04668
:201C00007F443F797F00BF440B5C5C5C3B3631007A4412795200974403545454332E290007
:201C200008AB2A4601F0ACFA4BE0002311461A46059303F029FB1921C9438F4225D366229F
:201C400024E04E20E0708F4201D3612100E04121A1700894607000200590022631E00020CE
:201C600006994870252008700120A1E008AB2A4601F096FB25E008AB2A4603F049FC20E0A9
:201C800008AB2A4602F03CF91BE04622E2708F4201D36E2200E04E22A2708F4201D369217F
:201CA00000E0492161703F21C900069A51180891002803D02D202070042602E02B2020707F
:201CC0000326287B012701466F39092904D801228A4052490A4201D158286BD1049B029C74
:201CE00004972946069F3D1908980C460978C90707D1191D091A62689142069F01DC691AC9
:201D00004F1C411C0398430000263846324604F003F808900599002903D0411C0891067074
:201D200000E00146A94206D8481E691A491C202204F0C2F82E702078C00605D40698391AAF
:201D4000202204F0B9F82EE0069887422BD00698391A3026324604F0AFF80798414241412E
:201D600004980140012905D12078400702D43846069905E03878069A511C1070781C3E7050
:201D8000227B412A0CD0582A05D0612A08D0782A01D0702A07D123781B0701D4612A02D1D0
:201DA00042784A704670069804F08DF80599401809B0F0BD002E09D0012E049B029C8FD1B3
:201DC0000120079029680220084007E0079A296802200840002A09D0049B029C08994A1E84
:201DE00008922D220A704742474179E70028049B029C08D1480700D472E70898411E0891BD
:201E0000009901706CE70898411E08912B210170002765E708C19000FFFF0F0043020000F2
:201E2000F8B514460F4605468068002804D4286810218843286001E00120A860287B10261C
:201E4000582808D0782806D0702804D06F2801D1082600E00A262846194600F055F8AA6885
:201E6000002A09D102460A4306D12878000749D52B7B0020024612E02B7B642B03D164239D
:201E800000290BD504E0692B08D1002906D5692301223A60002240428A4100E00A46009468
:201EA0001146324600F0B0F8A968884206DA401C21684A1E226030220A70F5E7287B582866
:201EC00003D0782801D070280FD1297809070CD5702800D1782021684A1E22600870206840
:201EE000411E216030210170287B6F280AD12878000707D520684178302903D0411E21605B
:201F000030210170F8BDC04610B5037B702B05D10868021D0A60006800226FE00068384AD4
:201F2000024001204403A24222D0402A20D00402A24230D04402A24246D0C402A2422AD0F9
:201F40000403A24214D0202A12D100221C46643C142C06D8A0402B4C204204D1212420420E
:201F60003ED1582B49D10868031D0B60008845E000221C46643C142C06D8A040214C20421C
:201F800004D1212420422BD1582B36D10868031D0B60006832E01A46643A142A06D89040E0
:201FA000184A104206D12122104203D10020582B024623D10868C21D072082431046083085
:201FC00008601068526819E000221C46643C142C0CD8A0400B4C20420AD12124204205D036
:201FE0000868021D0A600068C21707E0582B04D10868031D0B60007800E01046114610BD9B
:20200000603F000000081200FEB501920D460646582B01D0174800E0154800900898029070
:202020003046284305D1029A1068411E116030210170019C3046284313D030462946224695
:2020400000F01AF807460D46224603F053FE301A0099085C029B19684A1E1A6008703E46EF
:20206000E8E70298006803F02EFF401EFEBDC046987A0000A97A000080B5102A06D0082AA4
:2020800009D1C0084A078018C90880BD00090A078018090980BD002904D1114603F00AFC58
:2020A000002180BD002303F0B5FE80BDF0B585B0F0480068C0B2012800D02DE20120049013
:2020C00003F0B2FE4042EC4C208003F0B7FE4042EA49088000210391615EE94B1A68551887
:2020E0001D6000B2E74A11680C1814604120C6002846314603F038FA03F0AAFDE24FE34B45
:202100003A4602F087FAE24A03C22046314603F02BFA03F09DFD3A46DC4B02F07BFADD4A24
:2021200003C2DD4E3078012874D1E81745402D1AFA49886AC96A03F0E5FAC1174840401ADA
:202140000A388542039D10DBE0174440241AF949886AC96A03F0D6FAC1174840401A0A380C
:20216000844201DA002500E0012503F039FBC0B2411E8841002D049900D1014601290FD1E6
:2021800000203070EC490870EC490870EC49087003F0DCFC03F086FDEA480168491C0160D6
:2021A000E9480178E9480078421E504250410129049900D0014601292CD101F071FB01F0F6
:2021C000A7FA01F071FD03F09DFAE149086003F03FFD04460D46DF4804604160DE4903C9F8
:2021E00022462B4601F0CFF903F08CFADB4E3060DB4903C922462B4601F0C0F903F082FA39
:20220000D84C20603046214603F00AFD3068216802F0FEFFD44F387801283ED1CA4801789D
:20222000CA480078421E504250410129049900D00146012915D101F033FBC74903C903F0B5
:2022400061FAC64C2060C64903C903F05BFAC54D28602046294603F0E3FC2068296802F022
:20226000D7FFB24860C8C14903C90024C04B224601F089F902460B462846314603F018F805
:2022800000280AD03C70AC48047003F05FFC03F009FDAC480168491C0160B648007801281F
:2022A00000D08FE0A8480178A8480078421E504250410129049900D00146012900D081E052
:2022C00001F0EEFAA44903C903F01CFAA34C2060A34903C903F016FAA24D286020462946ED
:2022E00003F09EFC2068296802F092FF9048866AC46AA14804408B48006803F0A9FC054674
:202300000F469D48074000229C4B0296304601942146009201F037F906460C4603952846D2
:2023200039463246234602F0C3FF002820D07E48006803F08DFC0122D507A94332462346FB
:2023400002F0B6FF002813D003F000FC03F0AAFC884800990170784801707A480168491CA8
:2023600001607048006803F073FC03900F46AF430024834B02980199224601F004F90546D9
:202380000E46039839462A46334602F09BFF0028784F0CD16448006803F05AFC0122D20735
:2023A00091432A46334602F08DFF00280AD003F0CDFB03F077FC3C705F48047061480168E6
:2023C000491C01606F480078012800D0A4E003F009FD03F013FD5C4801785C480078421EF6
:2023E00050425041012900D004900498012800D08FE001F015FE644903C903F083F9574C99
:202400002060624903C903F07DF9564D28602046294603F005FC2068296802F0F9FE5C48C2
:20242000856AC46A002228462146134602F04AFF002833D05748006803F05CFA0746049197
:202440000026564B28462146324601F09CF83A464C4C049B02F022FF00285AD003F076FB63
:2024600003F020FC26703448067036480168491C01604EE020308640940A2020960A202016
:202480008C0A2020900A20204694F6065FD82D40300A2020380A20209A0A202000222846A2
:2024A0002146134602F0F0FE002832D03948006803F020FA0746049101208307002628463B
:2024C0002146324601F05FF803973A46049B02F0EFFE07460320830728462146324601F005
:2024E00052F8002F274D14D0039A049B02F0D6FE00280ED0284C2068411C2160092808DB15
:2025000003F024FB03F0CEFB2E700B4806702660ABE701200249886205B0F0BDF005202081
:20252000203086408C0A2020900A2020300A2020F0052020A00620209D0A20209E0A202071
:20254000A20A20207C0A20209F0A2020A00A2020800A2020180A2020400A2020840A202072
:20256000480A2020880A2020990A2020100A2020000014C09B0A2020FFFFFF7F000024C0A1
:2025800000004940980A2020500A2020580A2020600920203C052020780A2020000028C0C0
:2025A000F0B583B000910290E14F103F02253D6001243C600A26304603F0DCF9DC48056025
:2025C000304603F0D7F9DA480460304603F0D2F9D7480560304603F0CDF93C60304603F050
:2025E000C9F9D34804603D60304603F0C3F93C60304603F0BFF9CE4804603D60304603F09B
:20260000B9F93C60304603F0B5F9C94804603D60304603F0AFF93C60304603F0ABF9C4487D
:2026200004603D60304603F0A5F93C60304603F0A1F9BF4804600560304603F09BF93C608A
:20264000304603F097F9BA4804600560304603F091F93C60304603F08DF9B5480460056072
:20266000304603F087F93C60304603F083F9B048046001953D60304603F07CF93C60304671
:2026800003F078F9AA480460304603F073F90098002853D0A648019E06600A25284603F045
:2026A00069F93C60284603F065F9A14804603E60284603F05FF93C60284603F05BF99C4884
:2026C00004600660284603F055F93C60284603F051F9974804600660284603F04BF93C6050
:2026E000284603F047F9924804600660284603F041F93C60284603F03DF98D480460066028
:20270000284603F037F93C60284603F033F9884804600660284603F02DF93C60284603F0E1
:2027200029F9834804600660284603F023F93C60284603F01FF97E4804605CE07C4901988C
:2027400008600A25284603F015F9794E103E3460284603F00FF976490C60019808602846C7
:2027600003F008F93460284603F004F970490C6001980860284603F0FDF83460284603F002
:20278000F9F86B490C6001980860284603F0F2F83460284603F0EEF865490C6001980860E6
:2027A000284603F0E7F83460284603F0E3F860490C6001980860284603F0DCF834602846BC
:2027C00003F0D8F85A490C6001980860284603F0D1F83460284603F0CDF8554804600199A7
:2027E0000160284603F0C6F83460284603F0C2F84F480460019E3E600A25284603F0BAF830
:202800003C60284603F0B6F849480460284603F0B1F8029840B20028454800DA384606600F
:20282000284603F0A7F83C60284603F0A3F840490C6002984006084600D5384606602846B6
:2028400003F098F83C60284603F094F838490C6002988006084600D538460660284603F0F7
:2028600089F83C60284603F085F831490C600298C006084600D538460660284603F07AF83D
:202880003C60284603F076F829490C6002980007084600D538460660284603F06BF83C60E7
:2028A000284603F067F822490C6002984007084600D538460660284603F05CF83C602846DA
:2028C00003F058F81A490C6002988007084600D538460660284603F04DF83C60284603F01B
:2028E00049F813490C600298C007084600D038460660284603F03EF83C60284603F03AF8A6
:202900000B4804603E60284603F034F83C60284603F030F806480460284603F02BF804482E
:2029200006603C60284603F025F83E6003B0F0BDA0120A40F0B589B00021CC48CC4F10E0FF
:20294000089E3E603D46103D079828600A2003F011F82E600099491C0198401C082900D193
:2029600082E10190B02000910843C0B200242146FFF716FE20462146FFF712FE1020029417
:202980002146FFF70DFE3E46103E022008903060012434600A25284602F0ECFF0898386048
:2029A000284602F0E7FF3C60284602F0E3FF08983860284602F0DEFF3460284602F0DAFFB1
:2029C0003C6008983060284602F0D4FF3460284602F0D0FF3C6008983060284602F0CAFF40
:2029E0003460284602F0C6FF3C6008983060284602F0C0FF3460284602F0BCFF3C60089848
:202A00003060284602F0B6FF3460284602F0B2FF3C6008983860284602F0ACFF346028468B
:202A200002F0A8FF3C6008983860284602F0A2FF3460284602F09EFF3C6008983860284655
:202A400002F098FF3460284602F094FF3C6008983060284602F08EFF3460284602F08AFF30
:202A60003C60284602F086FF08983860284602F081FF3460284602F07DFF3C600898306081
:202A8000284602F077FF3460284602F073FF3C6008983860284602F06DFF3460284602F066
:202AA00069FF3C6008983860284602F063FF3460284602F05FFF3C6008983860284602F092
:202AC00059FF3460284602F055FF3C6008983860284602F04FFF3460284602F04BFF3C60FA
:202AE00008983860284602F045FF3460284602F041FF3C6008983860284602F03BFF3460C4
:202B0000284602F037FF3C6008983060284602F031FF03963460284602F02CFF07943C60D4
:202B2000284602F027FF8020019E1FE0089E0660284602F01FFF079F2760284602F01AFFA1
:202B40004B4807602660284602F014FF2760284602F010FF464807600746284602F00AFFE1
:202B6000059E08360698401E00D1E9E606903846029905967756002F00DA0398089901601B
:202B80000A25284602F0F6FE039C079E2660284602F0F0FE36490E607806084600D52046A6
:202BA00008990160284602F0E5FE079E2660284602F0E0FE2E490E60B806084600D520463B
:202BC00008990160284602F0D5FE079E2660284602F0D0FE26490E60F806084600D5204603
:202BE00008990160284602F0C5FE079E2660284602F0C0FE1E490E603807084600D52046CA
:202C000008990160284602F0B5FE079E2660284602F0B0FE16490E607807084600D5204691
:202C200008990160284602F0A5FE079E2660284602F0A0FE0E490E600497B807084600D524
:202C4000204608990160284602F094FE079F2760284602F08FFE064E37600498C00730463C
:202C600000D163E7204661E709B0F0BD00002020A0120A409CB002F0A1FF874801680124AE
:202C80002143016003F0AEF803F0B8F802F0CCFDFDF716FA0025089509950A950B95079539
:202CA000069505950495039502957C4F019700957B487C4E2A46334602F060F90895099523
:202CC0000A950B950095019702950395049505950695079574482A46334602F04FF9089573
:202CE00009950A950B950795069505950495039502956E4F01976E4E00966E486E4B2A46D8
:202D000002F03CF9089509950A950B950096019702950395049505950695079567482A462C
:202D2000654B02F02BF9089509950A950B95009501950295039504950595069507956048E7
:202D4000604A614B02F01AF9089509950A950B9507950695059504955C480390A0070290C4
:202D60005B4801900720400700905A485A4B2A4602F004F9089509950A950B9500950195D6
:202D80000295039504950595069507955348544B2A4602F0F3F85348046003F0A1F8E004A4
:202DA000514908600D94E2030A6002230B600B604E4908600A600B600B60FDF747FF642029
:202DC00001F042FE324C2068C005C00F0E90314A10684001C30F10688001C00F1168C90575
:202DE000C90F25682D03ED0F26687603F60F27687F06FF0F1468A405E40F00AAE3C2059414
:202E00000FAE30463A490E9A02F0BCFE0D9C0094002510272846294632463B4601F05CFFED
:202E2000FFF788FD334802683046334902F0AAFE00942846394632463B4601F04DFFFFF7F9
:202E400079FD2E4800681B498A6ACB6A009030462B4902F097FE00942021284632463B4654
:202E600001F03AFFFFF766FD26480CC8264903C9009001913046254902F084FE00943021F3
:202E8000284632463B4601F027FFFFF753FD99E780330A4080130A40045808400000F83F39
:202EA0005007202000002E40000820209999A93F9A999999F005202000001440A0062020D7
:202EC00060092020333333333333F33F3333C33F51B89E3F4005202000001040B0082020CA
:202EE00000207240740A202080E200E000E100E06C7A0000800A2020F07A00008C0A20204F
:202F0000BA7A0000300A2020380A2020CB7A0000F0B58CB00A910190082B01D1062408E018
:202F2000D808590700D0401C5C084443200600D119E1119D203AD1B25808009024200291F7
:202F400048438A4909180020E2B203922C46019E05460493089409E006460799069D6D1C19
:202F6000E8B2491C039A904200D3FCE0082B0791069504D10621029A51437F4A0FE0182BA7
:202F800000D1EEE0102B07D00C2B00D0EBE00C21029A5143774A02E002990901744A5118E2
:202FA00008180B900596F1B20A9AD0B2C60807200240012709979740C900704A5518A95D26
:202FC0000A46BA430F43002C394600D0114600240B9B1C570B94089B002B00D03A460B9CDF
:202FE000E40700D01146A9550A994A1CD1B2CE08024009999140AC5D22468A432143089C64
:20300000002C0F4600D01746002C00D00A460B99890700D51746AF550A998A1CD1B2CE08AA
:20302000024009999140AC5D22468A432143089C002C0F4600D01746002C00D00A460B99F7
:20304000490700D51746AF550A99CA1CD1B2CE08024009999140AC5D22468A432143089C0D
:20306000002C0F4600D01746002C00D00A460B99090700D51746AF550A990A1DD1B2CE0849
:20308000024009999140AC5D22468A432143089C002C0F4600D01746002C00D00A460B9997
:2030A000C90600D51746AF550A994A1DD1B2CE08024009999140AC5D22468A432143089CAD
:2030C000002C0F4600D01746002C00D00A460B99890600D51746AF550A998A1DD1B2CE08EA
:2030E000024009999140AC5D22468A432143089C002C0F4600D01746002C049B00D00A463C
:203100000B99490600D51746AF550A99C91DCAB2D6080840099A8240A95D084690430A4382
:20312000002C1746114600D00146002C00D038460B9A002A00D40846A8550598401C082B04
:2031400000D109E7C1B2019A891A009DA942164600D00646A94200D0FFE60A9808300A90E9
:20316000FBE60B911EE70CB0F0BDC046505F0000AC6C00009C7200001077000000002020C2
:20318000F0B5A5B0049308920E46074600240A947E4D22462B4602F08BF8002813D1002458
:2031A0007B4D3846314622462B4602F077F8002809D1002238463146134602F05BF8002839
:2031C0003C46354607D10AAA2046294602F046F90A98401E0A900899087B0BAE412801D0AF
:2031E0006D4800E06B480990886801903020039030700022079220462946134602F044F8D3
:2032000001210028029101D0C8074540771C20462946079A134602F02DF800280DD124AA5F
:203220002046294602F01AF9249801210A1A2046294601F0CFFA04460D462046294602F0BF
:2032400061FA06463946059702F036F90690304602F0FEFC02F04FFE04460D460198471CBB
:2032600020D3059806994618002220462946134602F000F8002848D1002220462946474BBD
:2032800001F0C8F904460D4602F03CFA0999095C771C317002F0DCFC02F02DFE04460D46F8
:2032A0003E46E1E70BA806994618002F16D07F1E002220462946394B01F0ACF904460D46B2
:2032C00002F020FA0999095C3246761C517002F0BFFC02F010FE04460D46E6E73178099CAB
:2032E000204602F0B5FD001B08280EDB0196741E089D079F099E2178304602F0A9FD801B33
:203300000E2805DD2770641EF5E7089D079F04E00999081840782070019E37700A98297BDB
:203320004129049C01D0702100E05021069E059F224602F06FF9AA68501C04D1384602F003
:20334000C2FD421EAA6038463146234602F050FCA8680028029A02D128680007C20F38461B
:203360003146234601F0EEFE287B412801D0782000E0582021684A1E226008702068411EF1
:2033800021600399017025B0F0BDC0460000F07F0000F0FF987A0000A97A00000000304014
:2033A000F0B5A3B003930F46044604929168002903D0002904D5062100E0012104988160AD
:2033C00007910AA83021089101700025204639462A462B4601F058FF01210028059101D064
:2033E000C8074740624E20463946604A334601F069FF002809D00022204639465E4B00F0C5
:203400009FFE04460F466D1CEDE75A4E0022204639460992134601F02DFF002811D1002227
:2034200020463946334601F02FFF002809D0002220463946504B01F0EDF804460F466D1E6C
:20344000E4E702950AA8451C2046394602F05AF90695294602F030F807998842019004DDCD
:20346000481C0AA90A18085C1FE0C9430E180AA90D18681C07902046394602F043F902F086
:20348000E7FB02460B462046394600F077F80022394B01F0BFF804460F4602F033F9079AC1
:2034A00030306870761C1546E3D3C0B23528039E049F029B099D0FD31446501E0178491C53
:2034C000CAB201703A2A03D330210170401EF5E70AA98842224640D00198C41815700220B8
:2034E000C043844202DBB868844207DD601E397B891EC9B2324602F08DF80124069802F064
:20350000E2FC401E0599A0421ADB0028089A01D4069A125C1346303B5D1EAB41C9431943BA
:20352000C90705D13978090702D40025059905E031684B1E33600A7001250021401EE2E729
:203540003868082202402A43501E824106982146334601F0F7FD23B0F0BD501E00210170DE
:203560000198C018441C0AA80690B8E70000C0FFFFFFDF410000F03F00002440FCB401244E
:20358000E407634002E0FCB40124E40708B41D03ED08D60D354356025F007F0D06D12C0089
:2035A000344300D0AEE001B0FCBC7047A408254307242402FF34A74205D10020190D09056B
:2035C00001B0FCBC7047002B03D50024A61BAC4125000B03DB08C20D134342024800400DE2
:2035E00007D11C00144300D08CE00EBC1000F0BC704701246407234307242402FF34A042AB
:2036000005D10020090D090501B0FCBC7047002903D50024A21A9C412300C11B08D51C00BA
:203620002B0025001400320026000024611A3800362925D502B4393949420C00203C03D2AE
:203640002F008F40374301E03700A740002F01D040210E4302BC20290BD500290ED04C42C5
:20366000203420B4A5402C0020BC0D41CE40361904E000292E000D4120390E4192196B4102
:203680001C0014433ED00024002B04D5012400218A1A99410B00401E52005B41FBD5012174
:2036A000890215000D400CD0521800277B4101D3401C0BE00721C90115000D4001D189002A
:2036C0008A43072109028A4352005B41801C19DD07210902FF31884209D30EBC0020C90FD2
:2036E0000902FF31C900C91D0905F0BC7047190B00050143E40721431805120B104301B075
:20370000FCBC70470021002001B0FCBC7047FEE7F0B587B059490868C005C00F584A136855
:203720005B01DD0F13689B01DB0F00931368DB05DB0F01930B681B03DB0F02930B685B03F3
:20374000DB0F039309684906C90F049111688905C90F059102F02CF906464A4901F048FB1D
:203760000021069101F0A7F80446284602F020F90746454901F03CFB214601F09CF8054604
:203780003046394601F097F80646009802F010F904463E4901F02CFB294601F08CF80546BD
:2037A0003046214601F087F80646019802F000F90446374901F01CFB294601F07CF80546FB
:2037C0003046214601F077F80646029802F0F0F807467D20C105384601F00AFB294601F068
:2037E0006AF805463046394601F065F80646039802F0DEF80746FD208105384601F0F8FAD9
:20380000294601F058F805463046394601F053F80646049802F0CCF804461E4901F0E8FA5A
:20382000294601F048F805463046214601F043F80646059802F0BCF80446174901F0D8FA98
:20384000294601F038F8074630462146069C01F032F805463846294601F010FB0F4901F074
:20386000C7FA02F057F906462846214601F034FD002800D13446204607B0F0BD80330A40C8
:2038800080130A400000E0BF0000A0BF000040BF000080BE0000A03F0000E03F00803B4413
:2038A000F0B581B044480078012805D043480078012801D001B0F0BD41480178491CCAB2F2
:2038C0000170022A20D3002404703E48006802F0BFF902463C480B4600F03AFD3B4D2246F4
:2038E0002B4601F0C0FE3A4A03C23A48006802F0AFF9024638480B4600F02AFD22462B46D2
:2039000001F0B1FE354A03C231480CC8344F384602F010FB31480CC8324802F00BFB32483F
:203920000024005F02F094F9304B224600F072FE2F4D22462B4600F06DFE2E4E2246334635
:2039400000F0FEFB01F0DEFE02F082F9024638460B4600F03FFA284F03C72848005F083FAD
:2039600002F076F92246214B00F054FE22462B4600F050FE2246334600F0E2FB01F0C2FE5A
:2039800002F066F9024617480B4600F023FA1C4E03C603CF1B4D22462B46083F083E01F00D
:2039A00062FE03C703CE22462B46083E01F05BFE03C601B0F0BDC0469F0A2020A00A2020A3
:2039C000A10A20208C0A2020F00520200058AB40200A2020900A2020A0062020280A202012
:2039E0005007202000082020940A202000408F4000004E400050C440400A2020960A2020AF
:203A0000480A2020004CBD40F0B587B0044602634363806AE16AFFF7B1FD06460F46A0651B
:203A2000E16500254B4B2A4601F04CFC0028059701D0494B09E00025484B304639462A46AD
:203A400001F022FC00280AD0454B304605992A46FFF799FD06460D46A065E16500E0059D49
:203A600000273F4B304629463A4601F021FC00280AD10022384B3046294601F00FFC002871
:203A800002D10CCC083C05E0A765E7653A463B463E463D460696304605952946FFF773FD71
:203AA00006460D462F4B3A46049301F00BFC02902D4B304629463A46039301F0E5FB0028E0
:203AC00000D103950028384600D130460299002900D107460029069901D10398049027605E
:203AE000049D6560226963690846059E314600F091FD0390029120646164A069E1693A46E1
:203B00002B4600F087FD04900191A064E164276A656A226E636E06983146FFF72FFD024611
:203B20000B463846294600F075FD07460D462065616503980299049A019BFFF724FD3A46F3
:203B40002B46FFF720FDA063E163069A2266666607B0F0BD00806640006076C0008066C0E0
:203B60000060764000408F4000408FC0F0B587B01D461646302405900470002710461946BD
:203B80003A463B4601F080FB0028019402D00120C00745400D9804900C9803903F4C30464B
:203BA00029463D4A234601F08DFB002809D00022304629463B4B00F0C3FA06460D467F1CB8
:203BC000EDE70598441C0022304629460692134601F050FB002811D1002230462946304B54
:203BE00001F052FB002809D00022304629462D4B00F010FD06460D467F1EE4E70398C0198F
:203C000003903046294601F07DFD214601F054FC02942418C019049908600398471C012F3B
:203C20001ADB3046294601F06DFD02F011F802460B4630462946FFF7A1FC0022194B00F0CD
:203C4000E9FC06460D4601F05DFD3030611C20707F1E0C46E5D100E02146481E0278352AFD
:203C60000DD3891E019C0A78521CD3B20A703A2B02D30C70491EF6E7059A914204D0069952
:203C80000170029807B0F0BD0699017004990868401C08600598F5E70000C0FFFFFFDF417E
:203CA0000000F03F00002440F0B587B001F0D0FF04460D46424EB065F16530697169224662
:203CC0002B4600F0A7FC039030640291716403CE0694224605952B46083EFFF754FC05469C
:203CE0000C460027374B3A4601F0ECFA0490364B284621463A46019301F0C6FA002839461C
:203D000000D12946002800D10194049800282D4B00D1019B0028049700D10F4637607360D9
:203D2000B069F1693A4600F075FC01900D46B064F164376A746A326E736E06980599FFF7B0
:203D40001DFC02460B463846214600F063FC07460C463065716503980299019A2B46FFF73B
:203D600012FC3A462346FFF70EFC05460C46174F049E32463B4601F0A5FA0390144B2846BE
:203D8000214632461E4601F07FFA002800D1264600280499084600D12846039B002B084AA4
:203DA00000D10146002B00D137469163D76306981066059850660846394607B0F0BDC046A6
:203DC000400520200058AB400058ABC000C0924000C092C0F0B587B0044601F06DFC2063B1
:203DE0006163A26AE36A204600F0CCFD226B636BFFF7C4FB06460D4600273D4B3A4601F0B8
:203E000043FA06903B4B304629463A4601F05AFA00283A4600D132460699002900D132469D
:203E200000283B4600D12B46002900D12B46A265E36503CC05920693083CFFF7A4FB0646B9
:203E40000D462D4B3A4601F03DFA04902B4B304629463A46039301F017FA0028394600D170
:203E60003146002800D1039504980028059A069B214D00D1039D002800D10F4627606560BD
:203E800020696169164600F0C5FB0490039120646164A069E1693A462B4600F0BBFB0290D6
:203EA0000F46A064E164256A606A0190226E636E30460699FFF762FB02460B462846019910
:203EC00000F0A8FB06460D462065616504980399029A3B46FFF757FB32462B46FFF753FB9B
:203EE000A063E163059A2266069A626607B0F0BD0000E03F0000E0BF00408F4000408FC02C
:203F0000F0B5A1B0049305469068002801D5062090600290039200243D4F28462246069179
:203F20003B4601F0C5F906990028264614D10026384F284632463B4601F0B0F906990028C4
:203F40000AD1002228460592134601F093F9069B00282E461F4622D12F4D01F0D9FF01F0BE
:203F600093F9002809D00022304639462B4B00F051FB06460F46641EEFE7284D01F0C8FFC5
:203F800001F096F9002807D001F0C2FF00F0D8F806460F46641CF1E735463B46059407A8F3
:203FA00002990091019008A82A46FFF7DFFD0446079D022D0DD1059D6D1C204601F083FF53
:203FC0002018401E0021017028460125049E039F02E0049E039F0598397B324601F01AFBEC
:203FE000BA6820462946334601F002FE204601F06AFF854203D138680007C20F00E001228A
:2040000020462946334601F09DF821B0F0BDC0460000F07F0000F0FF0000F03F0000244057
:20402000F0B581B03648007836490978014364D035480178491CCAB20170012A15D90024B7
:2040400004703348006801F065FD01F001FE024630480B46FFF7D8FC2F4B224601F003FB1A
:2040600002462A480260416002E02848026841680120C3074B40294801F05CFF23480CC8AC
:20408000274801F057FF27480025405F01F0E0FD254F2A463B4600F0BDFA244C2A46234614
:2040A00000F0B8FA224E2A46334600F049F801F029FB01F0CDFD024618480B46FFF78AFE8D
:2040C0001C4A03C21C48405F01F0C2FD2A463B4600F0A0FA2A46234600F09CFA2A4633463F
:2040E00000F02EF801F00EFB01F0B2FD02460C480B46FFF76FFE114A03C201B0F0BDC0463C
:204100009F0A2020A00A2020A30A2020600A20203C052020600920200058AB405007202031
:2041200000082020940A202000408F4000004E400050C440500A2020960A2020580A20204C
:20414000FCB40C005C40E40FE40710B41D032D0B56006D415F007F0D73D0012464052543E5
:2041600007242402FF34A74261D00B031B0B42005B414800400D64D00124640523430724A7
:204180002402FF34A04252D0C01B002100273624AB4200D1B24204D37F414941921BAB41D9
:2041A00001E07F414941641E06D0002B01D1002A02D052005B41EBE7202C07D2162C0AD37F
:2041C0003900A7402026361BF1400BE0203C3900A140002706E0A1402026361B3D00F5409F
:2041E0002943A74001246405214202D17F004941401E00247F1C61410124A405214202D0DD
:20420000401CA14301E06408A14303242402FF34001916DD2419A04209D8CC074908000578
:2042200001437808204310BC2143FCBC704702BC0020C90F0902FF21C900C91D0905FCBC62
:2042400070470021002001B0FCBC7047F0B5394A8218394BC0183A4D4C790B79002C22D03A
:20426000466F202B02D00524E70100E0354F2E40002B00D188273E434667846F2C403C43D2
:204280008467446B2D4E34404463846B3440846300244465846554688F26F643344054601C
:2042A0009468344094600C688979202B09D006467036002B15D1641E4460C46E2C4088278A
:2042C00015E0641E4460C46E2C401E4E3443C466046F2C40344304671B4D01246707064610
:2042E00007E00527FF0164084460C46E2C403C43C46634682C403C433460C46A0F4D2C4043
:20430000C462046B2C4004630024C4640465C46F8F25ED432C40C46714682C40146019431A
:2043200002680A4B1340BD220A40D118891C0160F0BDC04684180000041800008888FDFFDC
:2043400024493E0001040000FFFFFFCF4000FFCFF0B587B019461546044602634363826AFC
:20436000C36A284601F04AF8226B636BFFF706F90591A065E1650CCC07460690083CFFF749
:2043800002F905460E4603C4A268E3683846059F3946083C00F03EF90490039120646164EA
:2043A000A269E3692846314600F034F906460291A064E164256A606A0190226E636E069893
:2043C0003946FFF7DBF802460B462846019900F021F907460D46206561650498039932464F
:2043E000029BFFF7D0F83A462B46FFF7CCF82546903590220492A25803926E680D4A0E4B2A
:2044000000F008F9074602910C4B03983146094A00F000F93A46029BFFF7B5F8A063E1631F
:20442000049AA0506960069A2266059A626607B0F0BDC0469A9999999999C93F9999E93F33
:20444000F0B52C4B84201860012001032A4A11608521596041031160284C822525652849F0
:2044600061655D61996181251D64264F6762264EA660666625499963E1631D619D605D632A
:20448000DD60DE63E76526665E665E65A664DE629E62A665E66425606560114630391C4B2F
:2044A0000B601146403903240C60D91C116019490A68030613430B6017490A6A03071A43EF
:2044C0000A620A681A430A601449154A0A600A6314490A680A4B9B1E13430B600A69400251
:2044E00002430A6110490A6A02430A620A6802430A60F0BD88804240D0120A400480424004
:20450000820004008100010081000D0081000E0020C04100A0130A4028100A40A0320A40BA
:204520008000400090330A4028300A40B0B5364A80184A6842600A78222A56D8930001A407
:20454000E3589F46E1450000EB450000E1450000EB450000EB450000EB450000EB450000FF
:20456000EB450000EB450000EB450000EB450000EB450000EB450000EB450000EB450000BB
:20458000EB450000D1450000EB450000D1450000EB450000EB450000EB450000EB450000CF
:2045A000EB450000EB450000EB450000EB450000EB450000EB450000EB450000EB4500007B
:2045C000EB450000D1450000EB450000D1450000036803242407A343012464071B1903E005
:2045E000036803242407A34303600B69C360CB68C46A064D2540064C1C402B19C362097A6B
:2046000011430160B0BDC046041800008888FDFF77770200FCB50C005C40E40FE40710B45F
:20462000DD02540D2543D6025F007F0D60D00124E407254307242402FF34A74250D0CB020D
:20464000440D2343C2024800400D51D00124E407234307242402FF34A04241D0C01901B4AE
:204660001800290001F01CFA0F0001B41800310001F016FA03000C001000310001F010FA99
:2046800006001000290001F00BFA05007618002202BC01BC55415141A41955415141802404
:2046A000A4005B195141FF18514100D564003F19514102D47F00494100E0401C032424021C
:2046C000FF34001B14DD2419A04209D80305F80A4C0520434900090B194310BC2143FCBD3B
:2046E0000020FF21C900C91D090510BC2143FCBD0021002001B0FCBDF0B584B03049314A5C
:204700000125AC0316682B0203939E4316600E68264205D10E68264202D10E682642F6D023
:204720006C02467E9769AF432E40BD1995612025455DD6690327BE433D407519D561224D1A
:204740002E680727374005262E60466A33681362736853622F60C3695B065B0CD5697F26AF
:204760003602B543EB18D361E8C8009707680197476802971B071B0B2D03ADB2ED18330726
:204780001B0D007A009E35431D43019B1D43029B1D43054390690D4B03400D482840C01897
:2047A00090611068039B184310600868204205D10868204202D108682042F6D004B0F0BDE1
:2047C00004020B4008010B40001340408D00F0FF72FF0F00F8B515462A4E0A0D771C3A4001
:2047E000294B9A4213D00C46002A18D10122D2079443044344D00022244BFFF70BFF0C4610
:2048000023498D4208DC234A234B214636E002460B46FEF7B8FEF8BD220D3A40363A5119A5
:20482000B1420ADD01F07EFB222101600120C00704401D4821180020F8BD012904DB174A87
:20484000144009052143F8BD3522D24391420CDC01F068FB2221016012488542E6DA0120BC
:20486000C007044000202146F8BD0C4A144009051B225205891821430022094BFFF7CAFE6C
:20488000F8BDC046FE070000FF07000000005043AF3CFFFF59F3F8C21F6EA501FFFF0F8010
:2048A0000000903C51C300000000F07FFCB40127FF07794002E0FCB40127FF070C024D00F7
:2048C0002D0E03D1002C52D1FCBC70473C43FF2D50D0A408002900D56442020243001B0E80
:2048E00004D1002A43D10800FCBC70473A43FF2B41D09208002800D552425E1B04D51700E2
:2049000022003C0076422B00192E06D527003741D2191C27F71B7F42BC40002A27D002D5A0
:204920005242012700E00027013B5200FCD51500802635400FD01500202635402C43803255
:2049400008D21500402635402C4304D101263602B24300E05B1C5200023308DDFF2B0BD22B
:20496000500ADB051843FF073843FCBC70470020FCBC70470800C70FFF07FF20C0053843E0
:20498000FCBC7047F0B585B0194604468834076B436B0392104604913A460293FEF7EEFDD4
:2049A0000125EA079143244A244B00F06DFC00260028304607D1384602AB0ECB00F064FCE6
:2049C0000028284606D0206201F042F902900191AF0706E00026F0432062194F19480190C8
:2049E0000296A268E3680398049904920393FEF7C5FD05460120C007009181432846324641
:204A00003B4600F05FFC394607463046029A019BFFF700FE02460B46002F00D12A46002F24
:204A200000D1009B04980399FEF7ADFD03C42060616005B0F0BDC046FCA9F1D24D62503F1D
:204A4000000008400000F0BFB0B51B4901220A701A4900240C701A490C701A490C701A49D5
:204A60000C604C6019490C604C6019490C6019490C6019490C604C600C664C6601F0E8F899
:204A8000164A03C2164A174BFFF75AFB164B2246FFF7C0FD04460D46144822460B4601F0C5
:204AA00049FA134822462B4601F044FA01F09AF901F0A4F9B0BDC0469A0A20209B0A202002
:204AC0009C0A2020990A2020300A2020380A20208C0A2020900A202040052020100A202082
:204AE0004694F6065FD82D4000408040F0052020A0062020F0B5234801225102224B1B68AB
:204B0000012B16D0022B3BD1204B1C46103C2468E40023D514071E4D2F681E4D2E68FF02AA
:204B200001D50022D24392192A601A6822431A6014E0164A1346103B1B68DB000ED5012474
:204B40002307134D2F68134D2E68FF0201D50024E443A4192C6014681C43146002680A42CE
:204B60000ED00B4A14680C4A1368240702D50024E44300E00124E318136002690A430261DA
:204B8000F0BDC04638300A403011404048100A4080330A406C0A2020700A2020F0B58B426E
:204BA00000D1824204D90B0002000021002040E0002B00D1002A0CD10B00020000210020C4
:204BC000002B00D1002A01D0C943C04300F011FA2FE01C0015000B0002000CB40021260080
:204BE0002F00FF19764102D2491C4029F9D100201E001700FF19764102D2401C4028F9D1C5
:204C00000E1A21002800320001F0A8F80C0005000CBC00200021A34200D1AA4201D3521B63
:204C2000A341404149416D08E7073D436408761EF1D5059F002F01D03A607B60F0BD002AEC
:204C400049D084468B071CD1830722D1102A08D370B4103A78C978C0103AFBD270BC1032F4
:204C600038D0042A2CD3082A05D30C2A01D308C908C008C908C008C908C092072AD0920FEC
:204C800022E00B780370491C401C521E22D08B07F7D1C30714D18307D8D0121F12D308C9D7
:204CA00003801B0C4380001D121FF8D20AE008C903701B0A43701B0A83701B0AC370001DDC
:204CC000121FF4D2121D05D00B780370491C401C521EF9D160467047F0B585B006461778D6
:204CE00038462038C0B25E283AD8082B01D0580800E0062002900A980490D41C0391029D7F
:204D000004980090F0B2FAB203991F46FEF700F9A01E027810462038C0B25E2820D80298BA
:204D2000361804980090F0B203993B46FEF7F0F8601E027810462038C0B25E2810D8761948
:204D400004980090F0B203993B46FEF7E1F83B467619277838462038C0B2E41C5F28CFD37A
:204D600005B0F0BD70B582B01B491C4C204601F013F81B492046FFF769FA1A4801681A4AFA
:204D80000A40026000250095204629462A462B4601F010F8204629462A4600F0EFFF204675
:204DA00029462A4601F070F801260096204629462A462B4600F0FEFF20462946324600F01E
:204DC000DDFF20462946324601F05EF8074886600321016002B070BD417A00000040084087
:204DE00038790000045808407F00FFFF00510840FCB40127FF0706004E4001D4002600E0FB
:204E00003E00020243001B0E30D03A43FF2B30D00C024D002D0E29D03C43FF2D29D05B1996
:204E20004240504042404C4061404C4000B500F037FE20BCAE464240504042404C406140BA
:204E40004C4025001400002C01D46400013B803401D3013364087E3B08DDFF2B09D2BC4322
:204E6000200ADB0518433043FCBC70470020FCBC7047FF20C0053043FCBC7047FCB40127BE
:204E8000FF0706004E40F60FF607020243001B0E2DD03A43FF2B2DD00C024D002D0E26D0D9
:204EA0003C43FF2D26D05B1B0020202164085208A2424041A24200D3121B013904D0002A33
:204EC00001D05200F4D18840384201D14000013B803001D3013300E040007F3307DDFF2BC2
:204EE00008D2400ADB0518433043FCBC70470020FCBC7047FF20C0053043FCBC7047704765
:204F0000F8B5451C00780023082B32D02F78C2070CD16A780F241440E41C122C0BD10224BD
:204F20002E57F4B2002E08D4EE1C0EE06D1C4A1C0F7011461AE0AE1C08E02E1DED7800958E
:204F40007F252C40009DED012C1912343D0112095219094DAA420ED0D243002C05D08D5C48
:204F60004F1C0D70641E3946F7E7354640085B1CCAE72846C5E7F8BDFF0F0000F0B589B0C4
:204F80001F4616461899089119990791169906911799059115990291149901911299049170
:204FA000139903910EAD3CCD00210160416006614761064618363CC68162C1620163416311
:204FC000024680328023019CC450029B53608165C16501664166049981660399C166069933
:204FE000016705994167089981670799C16709B0F0BD704710B51649164C204600F032FF88
:205000001549204600F0A4FB144802680321CB039A4302600269124B1340412292009A1884
:20502000026142691B231343242293434361426801231A4044689C43A2184260094A146830
:2050400089022143116001681943016010BDC046FD7A000000801040E67A0000009110406F
:205060000000FFFF28901040FEB502930F46194D0024E143184E00973740019043422B46E4
:20508000BB4101D20C4623E0084602990E405342B54101D204461BE0134601990B433E4350
:2050A0001E43029D009E13D02B46334004D401998B1A3346AB4103E00199531A2B46B341C0
:2050C000044605DB51406E400E43701E864134462046FEBD0000F07FFFFFFF7FF8B5044644
:2050E000164F174D0E462E400120009464423C46B4411AD31D405442AF4116D31046009CA8
:2051000020433543054311D00020C0431C460C400ED4009CA41A0C469C4106DB0098504046
:2051200059400143481E81410846F8BD0020F8BD009C141B1C468C41F0DAF6E70000F07F82
:20514000FFFFFF7FF8B51C4617460E46054600F0BAFE0021012E03DBB04201DBA919491EFB
:20516000002F04D02268531E23602E2313703246824206DD23685F1E276030271F70521ED6
:20518000F6E7B04200DB3046012808DBA9420BD308782268531E23601070491EF6E72068D0
:2051A000411E216030210170F8BD000070B5154800240460144D28680F2109028843012670
:2051C000710240182860281F01680322D2430A4002606868B04368606868310288436860C5
:2051E0000A48FFF789FA2868102101432020814329602868310301432960204600F038FB38
:2052000070BDC04608030B4004010B40447A0000F0B581B00C46154E374610370028394601
:2052200000DC31460028324600DC3A4601252B040B60A9031160C1174840411A0C48002211
:2052400000F022FE002C384600DC3046002C00DC3E46A9050160E8033060E0174440211A76
:2052600003482A4600F010FE01B0F0BD90120A400040084010B5FFF731FF002801D000209F
:2052800010BD012010BDC04610B5FFF727FF002801DB002010BD012010BDC04610B5FFF7CC
:2052A0001DFF002801DD002010BD012010BDC04610B5FFF7D9FE002801DA002010BD012048
:2052C00010BDC04610B5FFF7CFFE002801DC002010BD012010BD000010B500F0C3FB0028F8
:2052E00001D0002010BD012010BDC04610B500F0B9FB002801DB002010BD012010BDC046AE
:2053000010B500F0AFFB002801DD002010BD012010BDC04610B500F069FB002801DA00200B
:2053200010BD012010BDC04610B500F05FFB002801DC002010BD012010BD8446830706D093
:20534000002A29D001700130013A8307F8D1042A1CD30906090E0B0219430B041943082AB1
:2053600010D30B00102A09D370B40F24161B22400C000D003AC0103EFCD870BC082A01D3D8
:205380000AC0083A042A01D302C0043A002A03D0013A8154013AFCD26046704710B512496C
:2053A000124C204600F05EFD1149204600F0D0F9104801680322D2039143016001690E4AB3
:2053C0000A40911C016141690B220A4334218A4342614168012211404368934359184160DB
:2053E00001681143016010BDFB7A000000001040DC7A0000001110400000FFFFF0B581B072
:205400001E4617460B460546104631462A460093FEF7B4F80122D207914300220D4C23460A
:20542000FFF750FF002811D0384631462A46009E3346FFF747FF002800D1074C0020214693
:205440002A463346FEF79FF807460E463846314601B0F0BD00003440000034C070B51446FC
:205460000F4D0B462B40002222600E4EB34215D81E46064312D01E0D07D100220A4BFFF733
:20548000C9F80D403522D2432B461B0D9A18074BD2182260064A0A400649511870BDC04604
:2054A000FFFFFF7FFFFFEF7F0000504302FCFFFFFFFF0F800000E03FF0B587B0019106460F
:2054C00002AD0020E874123537460A243846214600F04AF84443391BCA175140891A303147
:2054E000297009376D1E122F0746EED8002E01D46D1C01E02D20287002A8441B22461432EB
:205500000198294600F012FD1334204607B0F0BDF0B5FFB086B01C4615460246A8680028AC
:2055200001D50620A8602368039304AB0090019305A80B46FEF71AFB0646049FAA683946EB
:20554000234600F055FB20680399814201D0012202E028680007C20F304639462346FFF729
:20556000F1FD7FB006B0F0BD1CB5002922D04C08002900D5494242105440002800D540427D
:2055800000230A00904201D95200FBE790425B41904200D3801A914201D25208F6E719005B
:2055A000002C00D54042640000D549420200080011001CBD01000020FFF7A1FC1CBD000023
:2055C00070B50C480C4941600C4A51600C4B59600C4C61600C4D69600C4E71600C49016029
:2055E00011601960216029603160102000F07EFC70BDC04600080A40030000B100280A40E1
:2056000000480840002886400088104000081040010000267CB515460C460646C01731463D
:205620004140081A009200210A226423FCF7ECFC30460930122808D8DF202040502804D012
:205640002868411E296030210170002E01D42B2000E02D2029684A1E2A6008702868411EAB
:20566000296004707CBDF0B583B01F4600920D460446FFF727FE01900120C60702977E4097
:2056800027462C46009D284631463A462346FFF719FE002800D126460028284600D1384669
:2056A000019A002A029900D10546002A00D13146284603B0F0BD0000F0B583B0029301922E
:2056C000064604469834A068E1680B4A0B4BFEF7A1FF07460D460A4B01980299064AFEF769
:2056E00099FF3A462B46FDF74EFF9822B0506160A060E16003B0F0BD9A9999999999E93F05
:205700009999C93F0CB54A00520D03231B02FF33D21A13D31F239A1A12D98E46C9020123FA
:20572000DB071943D1400B2A02D21532D04001437346002B00D5494208000CBD00200CBD78
:205740000B000120C007002B00D401380CBD000070B511221302C218C4580125AC43C450C9
:205760000C888D7825438C882C43C558084E2E40084D25407419C4508879CB790343087A5C
:20578000184351687E23994318400818506070BDE798FDFF1867000010B50B490B4C204653
:2057A00000F0FAFA0A492046FEF7C0FE0948016801221143016008480168FF231B0699432F
:2057C00001600648026010BDF87A000000208640847A00002830864010E400E008318640A4
:2057E000B0B50F490A680020D20518D40D4A13685B0114D413689B0111D401231C021568C6
:2058000025420CD10C68240309D40C68640306D40968490603D41068400A83431846B0BD2D
:2058200080330A4080130A4080B58CB00022089209920A920B9207920692059204920848DF
:205840000390084801900120800702900720400700900548054BFFF791FB0CB080BDC0467E
:205860003333C33F51B89E3F400520200000104010B50E490E4A01235C059060086820424A
:2058800005D10868204202D108682042F6D010681B04034313600868C00605D40868C00660
:2058A00002D40868C006F6D510BDC04604020B4004010B401CB50A0017D000230124E407A8
:2058C000A04200D20400944201D95200FBE790425B41904200D3801A914201D25208F6E7A2
:2058E00019000200080011001CBD01000020FFF706FB1CBD08B443001B0E0FD0FF2B11D098
:205900000721C9015B18C10FC9020B43010048074902090B1B05194308BC70470021002052
:2059200008BC704701004002C90DC900C91D090508BC704710B50E4902788B185B78401C33
:20594000DB06F9D400212D2A04D02B2A02D0401E134600E00378303B092B04D80A244C43DC
:205960001919401CF6E72D2A00D14942084610BD4079000080B582B001900198411E0191B3
:20598000002813D0502000F0B1FA0198411E019100280BD0502000F0A9FA0198411E0191D7
:2059A000002803D0502000F0A1FAE6E702B080BD06B49E22002802D404D106BC70474142EC
:2059C00004D400E00100013A4900FCD5803101D3013200E04900490AD2051143002802D55B
:2059E0000122D2071143080006BC704740B542004B005E08164301D006004E4000D4D01A72
:205A000004D20120C90F06D1404204E003D90120C90F00D04042FF263606B24200D8B34231
:205A200001D90120404240BD70B50A480A4C84420CD00A4D0A4EB54208D02A686968501C30
:205A400012789200A25890470835F4E700BF00BF70BDC0460C7B0000007B0000207B0000F3
:205A6000307B000040B542004B005E08164301D006004E4000D4D01A04D20120C90F06D171
:205A8000404204E003D90120C90F00D04042FF263606B24200D8B34200D9012040BD000060
:205AA000FCB4020C0B0CFF242402FF34204021400C00444315005D4306005E430F0057433C
:205AC000320C3B0CA818C01832043B040025A1186841C9186841FCBC704700000A480068FA
:205AE000C0B20B280ED10948C169094A117011780268D20705D00268D20702D00268D207DA
:205B0000F6D181617047C0462090104008911040A40A202006B54100090E7F390DD41F225B
:205B2000511A0CD9864600020122D2071043C8407246002A00D5404206BD002006BD02000F
:205B40000120C007002A00D4401E06BD80B509480021017008480078002804D107480168A9
:205B6000012291430160064800210A4600F08CF980BDC0469F0A2020A00A202004580840DF
:205B80000040084082B0F8B5069207930291019006A9039107480090074B02A801AAFBF78D
:205BA0009DFD019900220A7004B080BC02BC02B00847C046CD5D00001B5F000080B5FFF791
:205BC000FFFCFEF73DFCFFF7F1FAFFF7CBF8FFF7E3FDFFF70FFAFFF7E1FB00F0AFF800F0D4
:205BE0004DF80248B8210022425480BD80042020F8B51C4615460646571800F064F9711E83
:205C0000012D0CDB3022012F02DB874200DCCA5D23685E1E26601A707F1E6D1EF0E7F8BD79
:205C2000B0B5094B094A05689542144602DC9D421C4600DA04600868904202DC98421A4603
:205C400000DA0A60B0BDC046B4E2FFFF4C1D000004B40422002802D1002104BC704701D549
:205C60000832404212021F320100521E4900FCD30805090B1205114304BC704707480849D7
:205C800002680A408A4207D002680A408A4203D002680A408A42F3D17047C04604020B4008
:205CA000000A200080B506480021017005480368012293430360044800F0E6F880BDC04634
:205CC000A00A20200458084000400840084880F3088800BF00BF00F037F9002801D0FFF7CE
:205CE000A3FE0020FCF7C6FF012000F026F9C0460080202030B514004C4325001C004443E5
:205D00006419050010002900FFF7CAFE001904000D002100280030BDB0B504460020002BB0
:205D200008D0D2B20D782570954204D0641C491C5B1EF7D1B0BD601CB0BD00000548042154
:205D400001600549416000218160016805220A430260704710E000E0FF69180018B520239B
:205D60009B1A04D8010000205B42994004E004009140DC402143904018BD000010B59200C6
:205D80008018044A83580724A404A34321405918815010BD3018000010B501221203831839
:205DA0000C789C604B7883508978014A815010BD0C11000010B5029CA400001911431943F6
:205DC000014A815010BDC04650180000B0B514460D460146286800F0A9F8286800192860C1
:205DE0002046B0BD034801210170034802680A43026070479F0A20200458084003480121DD
:205E00000170034802680A4302607047A00A20200458084040B584B002AE0096FEF7BEFE48
:205E2000029A039B04B040BD72B60349086800220A6062B67047C0466C0A202072B6034908
:205E4000086800220A6062B67047C046700A2020C9B202788A4204D0002A01D0401CF8E7EC
:205E60000020704710B50122120383180C789C604978815010BD80B50B4603214258C11DB2
:205E8000184600F053F880BD92008018014A81507047C0461018000000214258091D002AF6
:205EA000FBD1081F8010704780B50A4603214158104600F00FF880BD0B4611461A4680B59F
:205EC000FFF73BFA80BD0021425C491C002AFBD1481E70470A46002180B5FFF72EFA80BD22
:205EE0000148202101607047A0120A40811E091F00BFFCD2704702460B4620462946FFE7A5
:205F000082B00094014C019410BD00BF7D3500000022304639462B4670470A68531C0B6010
:205F20001070704700487047680A202080B5FEF786FE80BD8262C362704700F001F8FEE700
:105F400000BF7047C2E670470120704700000000A4
:205F5000000000000000000000000000000000000000000000000000000000000000000031
:205F7000000000000000000000F0F0F0000000000000000000017F010000000000000000C0
:205F9000001C1C1C0000000000008060301C8C60301C0C000000000000000000000000002D
:205FB000000000000000000000000000000000E00000000000E000000086E69F86868686EE
:205FD000E69F860000011F01010101011F010100000080C06020F820E0C0000000000307DE
:205FF0000C18FF70E18100000000070F10107F100F0700008060206080000000E0200000E1
:206010000F3020309F70DC371030C0000000100E03000718101807000000C02020E0C000B0
:206030000000000080E01F38E88703C43C040000070F1810100B070D1010080000808C4C36
:206050003800000000000000000000000000000000000000000000000000000000000000F8
:2060700000000000000080E0300804000000000000FEFF0100000000000000000000030F64
:206090001820400000040830E0800000000000000000000001FFFE00000000000040201866
:2060B0000F03000000000000000000000000C00000000000004266663C18FF183C6666423B
:2060D000000000000000030000000000000000000000800000000000001010101010FF10CE
:2060F00010101010000000000000030000000000000000000000000000000000000000004D
:20611000000000000000000000808C4C3800000000000000000000000000000000000000DF
:206130000010101010101010101010000000000000000000000000000000000000000000AF
:206150000000000000000000000000000000000000001C1C1C0000000000000000000000DB
:2061700000000000E0380C000000000080701C03000000000060380E010000000000000035
:20619000000080C060202060C080000000FEFF010000000001FFFE000001070E181010180D
:2061B0000E0701000000808080C0E000000000000000000000FFFF0000000000000010107B
:2061D000101F1F10101000000080402020202060C080000000030300804020381F0700000D
:2061F000001C1A1918181818181F00000080C020202060C080000000000303001010182FFC
:20621000E780000000070F10101010180F070000000000000000C0E0F000000000C0B088FB
:20623000868180FFFF808000000000000010101F1F1010000000E0606060606060600000CB
:2062500000003F1008080818F0E0000000070B101010101C0F030000000080C0402020207F
:20627000E0C0000000FCFF211008080818F0E0000001070C18101010080F03000000C0E02C
:206290006060606060E06000000003000000E0180700000000000000001F1F00000000008E
:2062B0000080C0602020202060C080000087EF2C1818303068CF830000070F0810101010C4
:2062D000180F07000000C0C020202020C0800000001F3F604040402010FFFE0000000C1C6D
:2062F000101010080F03000000000000000000000000000000000000000E0E0E000000001A
:2063100000000000001C1C1C0000000000000000000000000000000000000000000C0C0001
:20633000000000000000000000583800000000000000000000000080402010000000102895
:20635000448201000000000000000000000001020408100000000000000000000000000047
:206370000084848484848484848484000000000000000000000000000000102040800000F5
:206390000000000000000000000001824428100000001008040201000000000000C02020CF
:2063B0001010101030E0C0000003030000F010080C070300000000001C1C1C000000000045
:2063D000000000C0406020202040C00000FCFF01F00E03C1FE03807F0001070E08111110DF
:2063F000110904020000000080E0E000000000000000807C4340477FF880000010181F1019
:2064100000000000131F1C1020E0E02020202060C080000000FFFF10101010182FE7800022
:20643000101F1F1010101010180F0700000080C0402020202060E00000FCFF010000000044
:20645000000001000001070E181010100804030020E0E02020202040C080000000FFFF00E0
:206470000000000001FFFE00101F1F10101018080E07010020E0E0202020202020608000DA
:2064900000FFFF101010107C00000000101F1F10101010101018060020E0E02020202020E6
:2064B0006060800000FFFF101010107C00000100101F1F100000000000000000000080C033
:2064D0006020202040E0000000FCFF0100004040C0C140400001070E181010100F0F0000D3
:2064F00020E0E0200000000020E0E02000FFFF101010101010FFFF00101F1F1000000000D2
:20651000101F1F100000202020E0E020202000000000000000FFFF0000000000000010106F
:20653000101F1F101010000000000000202020E0E020202000000000000000FFFF0000004F
:206550000060E0808080C07F3F00000020E0E020000020A06020200000FFFF30187CE3C028
:2065700000000000101F1F10000001131F1C181020E0E020000000000000000000FFFF0038
:206590000000000000000000101F1F10101010101018060020E0E0E000000000E0E0E0209F
:2065B00000FF013FFEC0E01E01FFFF00101F1000031F0300101F1F1020E0E0C0000000006F
:2065D0000020E02000FF0003071C78E08000FF00101F100000000000030F1F00000080C0DF
:2065F00060202060C080000000FEFF010000000000FFFE000001070E181010180C070100D6
:2066100020E0E0202020202060C0800000FFFF2020202020301F0F00101F1F1000000000F0
:2066300000000000000080C060202060C080000000FEFF010000000000FFFE000001070EB9
:206650001111133C7C67210020E0E0202020202060C0800000FFFF101030F0D0080F070069
:20667000101F1F10000000030F1C10100080C060202020204040E00000070F0C181830302C
:2066900060E08100001F0C0810101010180F07008060202020E0E020202060800100000047
:2066B00000FFFF000000000100000000101F1F100000000020E0E020000000000020E0204D
:2066D00000FFFF00000000000000FF0000070F1810101010100807002060E0E020000000C0
:2066F00020E060200000077FF88000807C03000000000000071F1C070000000020E0E020C4
:2067100000E0E0200020E0200007FFF8E01FFFFCE01F00000000031F0300011F030000002A
:20673000002060E0A0000020E0602000000000038F7CF8C6010000000010181E130001178B
:206750001F1810002060E0E02000000020E06020000001073EF8E0180700000000000010B5
:20677000101F1F101000000000806020202020A0E0E0200000000000C0F03E0F03000000BB
:2067900000101C1F17101010101806000000000000FC0404040404000000000000FF00001A
:2067B0000000000000000000007F404040404000000010E00000000000000000000000001A
:2067D000031C60800000000000000000000000030C70800000000404040404FC000000009B
:2067F00000000000000000FF00000000000040404040407F0000000000000010080C040C97
:20681000081000000000000000000000000000000000000000000000000000000000000050
:20683000000000000000000000000000000000000000000080808080808080808080808048
:20685000000000040408080000000000000000000000000000000000000000000000000010
:2068700000000000000000000000000000000000000098D844642424FCF80000000F1F186E
:20689000101010081F1F10180020E0F000000000000000000000FFFF180804040CF8F00040
:2068B00000001F0F18101010180F030000000000000000000000000000E0F8180404043CF0
:2068D0003800000000030F0C10101010080600000000000000000020E0F0000000E0F81C20
:2068F00004040408FFFF000000030F18101010081F0F0800000000000000000000000000DE
:206910000000E0F8484444444C7870000000030F0C181010100804000000000080C0602015
